{
  "abi": [
    {
      "inputs": [
        {
          "internalType": "address",
          "name": "_token",
          "type": "address"
        },
        {
          "internalType": "address",
          "name": "_treasury",
          "type": "address"
        },
        {
          "internalType": "address",
          "name": "_vault",
          "type": "address"
        },
        {
          "internalType": "address",
          "name": "_foundation",
          "type": "address"
        }
      ],
      "stateMutability": "nonpayable",
      "type": "constructor"
    },
    {
      "anonymous": false,
      "inputs": [
        {
          "indexed": true,
          "internalType": "address",
          "name": "owner",
          "type": "address"
        },
        {
          "indexed": true,
          "internalType": "address",
          "name": "spender",
          "type": "address"
        },
        {
          "indexed": false,
          "internalType": "uint256",
          "name": "value",
          "type": "uint256"
        }
      ],
      "name": "Approval",
      "type": "event"
    },
    {
      "anonymous": false,
      "inputs": [
        {
          "indexed": false,
          "internalType": "uint256",
          "name": "bnb_amount",
          "type": "uint256"
        },
        {
          "indexed": false,
          "internalType": "uint256",
          "name": "stake_amount",
          "type": "uint256"
        },
        {
          "indexed": false,
          "internalType": "uint256",
          "name": "liquidity_minted",
          "type": "uint256"
        }
      ],
      "name": "FoundationFee",
      "type": "event"
    },
    {
      "anonymous": false,
      "inputs": [
        {
          "indexed": false,
          "internalType": "address",
          "name": "operator",
          "type": "address"
        }
      ],
      "name": "OperatorAddressAdded",
      "type": "event"
    },
    {
      "anonymous": false,
      "inputs": [
        {
          "indexed": false,
          "internalType": "address",
          "name": "operator",
          "type": "address"
        }
      ],
      "name": "OperatorAddressRemoved",
      "type": "event"
    },
    {
      "anonymous": false,
      "inputs": [
        {
          "indexed": true,
          "internalType": "address",
          "name": "previousOwner",
          "type": "address"
        },
        {
          "indexed": true,
          "internalType": "address",
          "name": "newOwner",
          "type": "address"
        }
      ],
      "name": "OwnershipTransferred",
      "type": "event"
    },
    {
      "anonymous": false,
      "inputs": [
        {
          "indexed": true,
          "internalType": "address",
          "name": "from",
          "type": "address"
        },
        {
          "indexed": true,
          "internalType": "address",
          "name": "to",
          "type": "address"
        },
        {
          "indexed": false,
          "internalType": "uint256",
          "name": "value",
          "type": "uint256"
        }
      ],
      "name": "Transfer",
      "type": "event"
    },
    {
      "anonymous": false,
      "inputs": [
        {
          "indexed": false,
          "internalType": "uint256",
          "name": "amount",
          "type": "uint256"
        }
      ],
      "name": "TreasuryFee",
      "type": "event"
    },
    {
      "anonymous": false,
      "inputs": [
        {
          "indexed": false,
          "internalType": "uint256",
          "name": "amount",
          "type": "uint256"
        }
      ],
      "name": "VaultFee",
      "type": "event"
    },
    {
      "anonymous": false,
      "inputs": [
        {
          "indexed": false,
          "internalType": "address",
          "name": "addr",
          "type": "address"
        }
      ],
      "name": "WhitelistedAddressAdded",
      "type": "event"
    },
    {
      "anonymous": false,
      "inputs": [
        {
          "indexed": false,
          "internalType": "address",
          "name": "addr",
          "type": "address"
        }
      ],
      "name": "WhitelistedAddressRemoved",
      "type": "event"
    },
    {
      "anonymous": false,
      "inputs": [
        {
          "indexed": true,
          "internalType": "address",
          "name": "provider",
          "type": "address"
        },
        {
          "indexed": true,
          "internalType": "uint256",
          "name": "bnb_amount",
          "type": "uint256"
        },
        {
          "indexed": true,
          "internalType": "uint256",
          "name": "token_amount",
          "type": "uint256"
        }
      ],
      "name": "onAddLiquidity",
      "type": "event"
    },
    {
      "anonymous": false,
      "inputs": [
        {
          "indexed": true,
          "internalType": "address",
          "name": "buyer",
          "type": "address"
        },
        {
          "indexed": true,
          "internalType": "uint256",
          "name": "token_amount",
          "type": "uint256"
        },
        {
          "indexed": true,
          "internalType": "uint256",
          "name": "bnb_amount",
          "type": "uint256"
        }
      ],
      "name": "onBnbPurchase",
      "type": "event"
    },
    {
      "anonymous": false,
      "inputs": [
        {
          "indexed": false,
          "internalType": "uint256",
          "name": "balance",
          "type": "uint256"
        }
      ],
      "name": "onContractBalance",
      "type": "event"
    },
    {
      "anonymous": false,
      "inputs": [
        {
          "indexed": true,
          "internalType": "address",
          "name": "provider",
          "type": "address"
        },
        {
          "indexed": true,
          "internalType": "uint256",
          "name": "amount",
          "type": "uint256"
        }
      ],
      "name": "onLiquidity",
      "type": "event"
    },
    {
      "anonymous": false,
      "inputs": [
        {
          "indexed": false,
          "internalType": "uint256",
          "name": "price",
          "type": "uint256"
        }
      ],
      "name": "onPrice",
      "type": "event"
    },
    {
      "anonymous": false,
      "inputs": [
        {
          "indexed": true,
          "internalType": "address",
          "name": "provider",
          "type": "address"
        },
        {
          "indexed": true,
          "internalType": "uint256",
          "name": "bnb_amount",
          "type": "uint256"
        },
        {
          "indexed": true,
          "internalType": "uint256",
          "name": "token_amount",
          "type": "uint256"
        }
      ],
      "name": "onRemoveLiquidity",
      "type": "event"
    },
    {
      "anonymous": false,
      "inputs": [
        {
          "indexed": false,
          "internalType": "uint256",
          "name": "liquidity",
          "type": "uint256"
        },
        {
          "indexed": false,
          "internalType": "uint256",
          "name": "price",
          "type": "uint256"
        }
      ],
      "name": "onSummary",
      "type": "event"
    },
    {
      "anonymous": false,
      "inputs": [
        {
          "indexed": true,
          "internalType": "address",
          "name": "buyer",
          "type": "address"
        },
        {
          "indexed": true,
          "internalType": "uint256",
          "name": "bnb_amount",
          "type": "uint256"
        },
        {
          "indexed": true,
          "internalType": "uint256",
          "name": "token_amount",
          "type": "uint256"
        }
      ],
      "name": "onTokenPurchase",
      "type": "event"
    },
    {
      "inputs": [
        {
          "internalType": "address",
          "name": "",
          "type": "address"
        }
      ],
      "name": "_providers",
      "outputs": [
        {
          "internalType": "bool",
          "name": "",
          "type": "bool"
        }
      ],
      "stateMutability": "view",
      "type": "function"
    },
    {
      "inputs": [
        {
          "internalType": "address",
          "name": "",
          "type": "address"
        }
      ],
      "name": "_txs",
      "outputs": [
        {
          "internalType": "uint256",
          "name": "",
          "type": "uint256"
        }
      ],
      "stateMutability": "view",
      "type": "function"
    },
    {
      "inputs": [
        {
          "internalType": "address",
          "name": "addr",
          "type": "address"
        }
      ],
      "name": "addAddressToWhitelist",
      "outputs": [
        {
          "internalType": "bool",
          "name": "success",
          "type": "bool"
        }
      ],
      "stateMutability": "nonpayable",
      "type": "function"
    },
    {
      "inputs": [
        {
          "internalType": "address[]",
          "name": "addrs",
          "type": "address[]"
        }
      ],
      "name": "addAddressesToWhitelist",
      "outputs": [
        {
          "internalType": "bool",
          "name": "success",
          "type": "bool"
        }
      ],
      "stateMutability": "nonpayable",
      "type": "function"
    },
    {
      "inputs": [
        {
          "internalType": "uint256",
          "name": "min_liquidity",
          "type": "uint256"
        },
        {
          "internalType": "uint256",
          "name": "max_tokens",
          "type": "uint256"
        }
      ],
      "name": "addLiquidity",
      "outputs": [
        {
          "internalType": "uint256",
          "name": "",
          "type": "uint256"
        }
      ],
      "stateMutability": "payable",
      "type": "function"
    },
    {
      "inputs": [
        {
          "internalType": "address",
          "name": "owner",
          "type": "address"
        },
        {
          "internalType": "address",
          "name": "spender",
          "type": "address"
        }
      ],
      "name": "allowance",
      "outputs": [
        {
          "internalType": "uint256",
          "name": "",
          "type": "uint256"
        }
      ],
      "stateMutability": "view",
      "type": "function"
    },
    {
      "inputs": [
        {
          "internalType": "address",
          "name": "spender",
          "type": "address"
        },
        {
          "internalType": "uint256",
          "name": "amount",
          "type": "uint256"
        }
      ],
      "name": "approve",
      "outputs": [
        {
          "internalType": "bool",
          "name": "",
          "type": "bool"
        }
      ],
      "stateMutability": "nonpayable",
      "type": "function"
    },
    {
      "inputs": [
        {
          "internalType": "address",
          "name": "account",
          "type": "address"
        }
      ],
      "name": "balanceOf",
      "outputs": [
        {
          "internalType": "uint256",
          "name": "",
          "type": "uint256"
        }
      ],
      "stateMutability": "view",
      "type": "function"
    },
    {
      "inputs": [],
      "name": "bnbBalance",
      "outputs": [
        {
          "internalType": "uint256",
          "name": "",
          "type": "uint256"
        }
      ],
      "stateMutability": "view",
      "type": "function"
    },
    {
      "inputs": [
        {
          "internalType": "uint256",
          "name": "min_tokens",
          "type": "uint256"
        }
      ],
      "name": "bnbToTokenSwapInput",
      "outputs": [
        {
          "internalType": "uint256",
          "name": "",
          "type": "uint256"
        }
      ],
      "stateMutability": "payable",
      "type": "function"
    },
    {
      "inputs": [
        {
          "internalType": "uint256",
          "name": "tokens_bought",
          "type": "uint256"
        }
      ],
      "name": "bnbToTokenSwapOutput",
      "outputs": [
        {
          "internalType": "uint256",
          "name": "",
          "type": "uint256"
        }
      ],
      "stateMutability": "payable",
      "type": "function"
    },
    {
      "inputs": [],
      "name": "decimals",
      "outputs": [
        {
          "internalType": "uint8",
          "name": "",
          "type": "uint8"
        }
      ],
      "stateMutability": "view",
      "type": "function"
    },
    {
      "inputs": [
        {
          "internalType": "address",
          "name": "spender",
          "type": "address"
        },
        {
          "internalType": "uint256",
          "name": "subtractedValue",
          "type": "uint256"
        }
      ],
      "name": "decreaseAllowance",
      "outputs": [
        {
          "internalType": "bool",
          "name": "",
          "type": "bool"
        }
      ],
      "stateMutability": "nonpayable",
      "type": "function"
    },
    {
      "inputs": [],
      "name": "foundation",
      "outputs": [
        {
          "internalType": "address",
          "name": "",
          "type": "address"
        }
      ],
      "stateMutability": "view",
      "type": "function"
    },
    {
      "inputs": [
        {
          "internalType": "uint256",
          "name": "bnb_sold",
          "type": "uint256"
        }
      ],
      "name": "getBnbToLiquidityInputPrice",
      "outputs": [
        {
          "internalType": "uint256",
          "name": "",
          "type": "uint256"
        }
      ],
      "stateMutability": "view",
      "type": "function"
    },
    {
      "inputs": [
        {
          "internalType": "uint256",
          "name": "bnb_sold",
          "type": "uint256"
        }
      ],
      "name": "getBnbToTokenInputPrice",
      "outputs": [
        {
          "internalType": "uint256",
          "name": "",
          "type": "uint256"
        }
      ],
      "stateMutability": "view",
      "type": "function"
    },
    {
      "inputs": [
        {
          "internalType": "uint256",
          "name": "tokens_bought",
          "type": "uint256"
        }
      ],
      "name": "getBnbToTokenOutputPrice",
      "outputs": [
        {
          "internalType": "uint256",
          "name": "",
          "type": "uint256"
        }
      ],
      "stateMutability": "view",
      "type": "function"
    },
    {
      "inputs": [
        {
          "internalType": "uint256",
          "name": "input_amount",
          "type": "uint256"
        },
        {
          "internalType": "uint256",
          "name": "input_reserve",
          "type": "uint256"
        },
        {
          "internalType": "uint256",
          "name": "output_reserve",
          "type": "uint256"
        }
      ],
      "name": "getInputPrice",
      "outputs": [
        {
          "internalType": "uint256",
          "name": "",
          "type": "uint256"
        }
      ],
      "stateMutability": "view",
      "type": "function"
    },
    {
      "inputs": [
        {
          "internalType": "uint256",
          "name": "amount",
          "type": "uint256"
        }
      ],
      "name": "getLiquidityToReserveInputPrice",
      "outputs": [
        {
          "internalType": "uint256",
          "name": "",
          "type": "uint256"
        },
        {
          "internalType": "uint256",
          "name": "",
          "type": "uint256"
        }
      ],
      "stateMutability": "view",
      "type": "function"
    },
    {
      "inputs": [
        {
          "internalType": "uint256",
          "name": "output_amount",
          "type": "uint256"
        },
        {
          "internalType": "uint256",
          "name": "input_reserve",
          "type": "uint256"
        },
        {
          "internalType": "uint256",
          "name": "output_reserve",
          "type": "uint256"
        }
      ],
      "name": "getOutputPrice",
      "outputs": [
        {
          "internalType": "uint256",
          "name": "",
          "type": "uint256"
        }
      ],
      "stateMutability": "view",
      "type": "function"
    },
    {
      "inputs": [
        {
          "internalType": "uint256",
          "name": "tokens_sold",
          "type": "uint256"
        }
      ],
      "name": "getTokenToBnbInputPrice",
      "outputs": [
        {
          "internalType": "uint256",
          "name": "",
          "type": "uint256"
        }
      ],
      "stateMutability": "view",
      "type": "function"
    },
    {
      "inputs": [
        {
          "internalType": "uint256",
          "name": "bnb_bought",
          "type": "uint256"
        }
      ],
      "name": "getTokenToBnbOutputPrice",
      "outputs": [
        {
          "internalType": "uint256",
          "name": "",
          "type": "uint256"
        }
      ],
      "stateMutability": "view",
      "type": "function"
    },
    {
      "inputs": [
        {
          "internalType": "address",
          "name": "spender",
          "type": "address"
        },
        {
          "internalType": "uint256",
          "name": "addedValue",
          "type": "uint256"
        }
      ],
      "name": "increaseAllowance",
      "outputs": [
        {
          "internalType": "bool",
          "name": "",
          "type": "bool"
        }
      ],
      "stateMutability": "nonpayable",
      "type": "function"
    },
    {
      "inputs": [],
      "name": "isPaused",
      "outputs": [
        {
          "internalType": "bool",
          "name": "",
          "type": "bool"
        }
      ],
      "stateMutability": "view",
      "type": "function"
    },
    {
      "inputs": [],
      "name": "lastBalance_",
      "outputs": [
        {
          "internalType": "uint256",
          "name": "",
          "type": "uint256"
        }
      ],
      "stateMutability": "view",
      "type": "function"
    },
    {
      "inputs": [],
      "name": "name",
      "outputs": [
        {
          "internalType": "string",
          "name": "",
          "type": "string"
        }
      ],
      "stateMutability": "view",
      "type": "function"
    },
    {
      "inputs": [],
      "name": "owner",
      "outputs": [
        {
          "internalType": "address",
          "name": "",
          "type": "address"
        }
      ],
      "stateMutability": "view",
      "type": "function"
    },
    {
      "inputs": [],
      "name": "providers",
      "outputs": [
        {
          "internalType": "uint256",
          "name": "",
          "type": "uint256"
        }
      ],
      "stateMutability": "view",
      "type": "function"
    },
    {
      "inputs": [
        {
          "internalType": "address",
          "name": "addr",
          "type": "address"
        }
      ],
      "name": "removeAddressFromWhitelist",
      "outputs": [
        {
          "internalType": "bool",
          "name": "success",
          "type": "bool"
        }
      ],
      "stateMutability": "nonpayable",
      "type": "function"
    },
    {
      "inputs": [
        {
          "internalType": "address[]",
          "name": "addrs",
          "type": "address[]"
        }
      ],
      "name": "removeAddressesFromWhitelist",
      "outputs": [
        {
          "internalType": "bool",
          "name": "success",
          "type": "bool"
        }
      ],
      "stateMutability": "nonpayable",
      "type": "function"
    },
    {
      "inputs": [
        {
          "internalType": "uint256",
          "name": "amount",
          "type": "uint256"
        },
        {
          "internalType": "uint256",
          "name": "min_bnb",
          "type": "uint256"
        },
        {
          "internalType": "uint256",
          "name": "min_tokens",
          "type": "uint256"
        }
      ],
      "name": "removeLiquidity",
      "outputs": [
        {
          "internalType": "uint256",
          "name": "",
          "type": "uint256"
        },
        {
          "internalType": "uint256",
          "name": "",
          "type": "uint256"
        }
      ],
      "stateMutability": "nonpayable",
      "type": "function"
    },
    {
      "inputs": [],
      "name": "renounceOwnership",
      "outputs": [],
      "stateMutability": "nonpayable",
      "type": "function"
    },
    {
      "inputs": [
        {
          "internalType": "address",
          "name": "_lock",
          "type": "address"
        }
      ],
      "name": "setLock",
      "outputs": [],
      "stateMutability": "nonpayable",
      "type": "function"
    },
    {
      "inputs": [],
      "name": "symbol",
      "outputs": [
        {
          "internalType": "string",
          "name": "",
          "type": "string"
        }
      ],
      "stateMutability": "view",
      "type": "function"
    },
    {
      "inputs": [],
      "name": "token",
      "outputs": [
        {
          "internalType": "contract StakeToken",
          "name": "",
          "type": "address"
        }
      ],
      "stateMutability": "view",
      "type": "function"
    },
    {
      "inputs": [],
      "name": "tokenAddress",
      "outputs": [
        {
          "internalType": "address",
          "name": "",
          "type": "address"
        }
      ],
      "stateMutability": "view",
      "type": "function"
    },
    {
      "inputs": [],
      "name": "tokenBalance",
      "outputs": [
        {
          "internalType": "uint256",
          "name": "",
          "type": "uint256"
        }
      ],
      "stateMutability": "view",
      "type": "function"
    },
    {
      "inputs": [
        {
          "internalType": "uint256",
          "name": "tokens_sold",
          "type": "uint256"
        },
        {
          "internalType": "uint256",
          "name": "min_bnb",
          "type": "uint256"
        }
      ],
      "name": "tokenToBnbSwapInput",
      "outputs": [
        {
          "internalType": "uint256",
          "name": "",
          "type": "uint256"
        }
      ],
      "stateMutability": "nonpayable",
      "type": "function"
    },
    {
      "inputs": [
        {
          "internalType": "uint256",
          "name": "bnb_bought",
          "type": "uint256"
        },
        {
          "internalType": "uint256",
          "name": "max_tokens",
          "type": "uint256"
        }
      ],
      "name": "tokenToBnbSwapOutput",
      "outputs": [
        {
          "internalType": "uint256",
          "name": "",
          "type": "uint256"
        }
      ],
      "stateMutability": "nonpayable",
      "type": "function"
    },
    {
      "inputs": [],
      "name": "token_lock",
      "outputs": [
        {
          "internalType": "contract TokenLocker",
          "name": "",
          "type": "address"
        }
      ],
      "stateMutability": "view",
      "type": "function"
    },
    {
      "inputs": [],
      "name": "totalSupply",
      "outputs": [
        {
          "internalType": "uint256",
          "name": "",
          "type": "uint256"
        }
      ],
      "stateMutability": "view",
      "type": "function"
    },
    {
      "inputs": [],
      "name": "totalTxs",
      "outputs": [
        {
          "internalType": "uint256",
          "name": "",
          "type": "uint256"
        }
      ],
      "stateMutability": "view",
      "type": "function"
    },
    {
      "inputs": [],
      "name": "trackingInterval_",
      "outputs": [
        {
          "internalType": "uint256",
          "name": "",
          "type": "uint256"
        }
      ],
      "stateMutability": "view",
      "type": "function"
    },
    {
      "inputs": [
        {
          "internalType": "address",
          "name": "to",
          "type": "address"
        },
        {
          "internalType": "uint256",
          "name": "amount",
          "type": "uint256"
        }
      ],
      "name": "transfer",
      "outputs": [
        {
          "internalType": "bool",
          "name": "",
          "type": "bool"
        }
      ],
      "stateMutability": "nonpayable",
      "type": "function"
    },
    {
      "inputs": [
        {
          "internalType": "address",
          "name": "from",
          "type": "address"
        },
        {
          "internalType": "address",
          "name": "to",
          "type": "address"
        },
        {
          "internalType": "uint256",
          "name": "amount",
          "type": "uint256"
        }
      ],
      "name": "transferFrom",
      "outputs": [
        {
          "internalType": "bool",
          "name": "",
          "type": "bool"
        }
      ],
      "stateMutability": "nonpayable",
      "type": "function"
    },
    {
      "inputs": [
        {
          "internalType": "address",
          "name": "newOwner",
          "type": "address"
        }
      ],
      "name": "transferOwnership",
      "outputs": [],
      "stateMutability": "nonpayable",
      "type": "function"
    },
    {
      "inputs": [],
      "name": "treasury",
      "outputs": [
        {
          "internalType": "address",
          "name": "",
          "type": "address"
        }
      ],
      "stateMutability": "view",
      "type": "function"
    },
    {
      "inputs": [
        {
          "internalType": "address",
          "name": "owner",
          "type": "address"
        }
      ],
      "name": "txs",
      "outputs": [
        {
          "internalType": "uint256",
          "name": "",
          "type": "uint256"
        }
      ],
      "stateMutability": "view",
      "type": "function"
    },
    {
      "inputs": [],
      "name": "vault",
      "outputs": [
        {
          "internalType": "address",
          "name": "",
          "type": "address"
        }
      ],
      "stateMutability": "view",
      "type": "function"
    },
    {
      "inputs": [
        {
          "internalType": "address",
          "name": "",
          "type": "address"
        }
      ],
      "name": "whitelist",
      "outputs": [
        {
          "internalType": "bool",
          "name": "",
          "type": "bool"
        }
      ],
      "stateMutability": "view",
      "type": "function"
    },
    {
      "stateMutability": "payable",
      "type": "receive"
    }
  ],
  "bytecode": "6080604052603c600d556012805460ff191660011790553480156200002357600080fd5b50604051620035d5380380620035d583398101604081905262000046916200023d565b604080518082018252600e81526d29ba30b5b2902628103a37b5b2b760911b60208083019182528351808501909452600584526453544f4b4560d81b90840152815191929162000099916003916200017a565b508051620000af9060049060208401906200017a565b505050620000cc620000c66200012460201b60201c565b62000128565b600680546001600160a01b039586166001600160a01b03199182161790915542600c5560088054948616948216949094179093556009805492851692841692909217909155600a8054919093169116179055620002d7565b3390565b600580546001600160a01b038381166001600160a01b0319831681179093556040519116919082907f8be0079c531659141344cd1fd0a4f28419497f9722a3daafe3b4186f6b6457e090600090a35050565b82805462000188906200029a565b90600052602060002090601f016020900481019282620001ac5760008555620001f7565b82601f10620001c757805160ff1916838001178555620001f7565b82800160010185558215620001f7579182015b82811115620001f7578251825591602001919060010190620001da565b506200020592915062000209565b5090565b5b808211156200020557600081556001016200020a565b80516001600160a01b03811681146200023857600080fd5b919050565b600080600080608085870312156200025457600080fd5b6200025f8562000220565b93506200026f6020860162000220565b92506200027f6040860162000220565b91506200028f6060860162000220565b905092959194509250565b600181811c90821680620002af57607f821691505b60208210811415620002d157634e487b7160e01b600052602260045260246000fd5b50919050565b6132ee80620002e76000396000f3fe6080604052600436106102cd5760003560e01c8063857620e111610175578063b187bd26116100dc578063f2fde38b11610095578063fbfa77cf1161006f578063fbfa77cf146108f2578063fc0c546a14610912578063fc51820514610932578063fd11c2231461094857600080fd5b8063f2fde38b1461089c578063f8401fe6146108bc578063fb48d48a146108d257600080fd5b8063b187bd26146107c9578063b5695026146107e3578063d013cbe2146107f6578063d596f9b414610809578063dd62ed3e14610836578063e2ec6ec31461087c57600080fd5b80639cd441da1161012e5780639cd441da146107235780639d76ea58146107365780639e1a4d1914610754578063a32088d414610769578063a457c2d714610789578063a9059cbb146107a957600080fd5b8063857620e11461066057806389f2a871146106805780638da5cb5b146106a05780638f798a5d146106be57806395d89b41146106de5780639b19251a146106f357600080fd5b806338e70059116102345780635746402b116101ed57806370a08231116101c757806370a08231146105c3578063715018a6146105f9578063769d7235146106105780637b9417c81461064057600080fd5b80635746402b1461056d57806361d027b31461058d5780637044f7a7146105ad57600080fd5b806338e700591461047457806339509351146104945780633da2ec9b146104b457806341fbb050146104e95780634eaa1b8714610521578063537a39bb1461055757600080fd5b80631db7976f116102865780631db7976f146103c557806323b872dd146103d857806324953eaa146103f8578063286dd3f5146104185780632f38c6e614610438578063313ce5671461045857600080fd5b806306fdde03146102e7578063095ea7b3146103125780630e2508421461034257806318160ddd146103705780631a12be0d146103855780631a42b767146103a557600080fd5b366102e2576102df3460013333610968565b50005b600080fd5b3480156102f357600080fd5b506102fc610c4d565b6040516103099190612ea2565b60405180910390f35b34801561031e57600080fd5b5061033261032d366004612f0e565b610cdf565b6040519015158152602001610309565b34801561034e57600080fd5b5061036261035d366004612f38565b610cf9565b604051908152602001610309565b34801561037c57600080fd5b50600254610362565b34801561039157600080fd5b506103626103a0366004612f51565b610d88565b3480156103b157600080fd5b506103626103c0366004612f38565b610d96565b6103626103d3366004612f38565b610e68565b3480156103e457600080fd5b506103326103f3366004612f73565b610e76565b34801561040457600080fd5b50610332610413366004612fc5565b610e9a565b34801561042457600080fd5b5061033261043336600461307e565b610f18565b34801561044457600080fd5b50610362610453366004612f38565b610fc3565b34801561046457600080fd5b5060405160128152602001610309565b34801561048057600080fd5b5061036261048f366004612f38565b61104b565b3480156104a057600080fd5b506103326104af366004612f0e565b6110dd565b3480156104c057600080fd5b506104d46104cf366004612f38565b61111c565b60408051928352602083019190915201610309565b3480156104f557600080fd5b50600a54610509906001600160a01b031681565b6040516001600160a01b039091168152602001610309565b34801561052d57600080fd5b5061036261053c36600461307e565b6001600160a01b031660009081526011602052604090205490565b34801561056357600080fd5b50610362600b5481565b34801561057957600080fd5b50610362610588366004612f38565b6111e6565b34801561059957600080fd5b50600854610509906001600160a01b031681565b3480156105b957600080fd5b50610362600c5481565b3480156105cf57600080fd5b506103626105de36600461307e565b6001600160a01b031660009081526020819052604090205490565b34801561060557600080fd5b5061060e6112a4565b005b34801561061c57600080fd5b5061033261062b36600461307e565b60106020526000908152604090205460ff1681565b34801561064c57600080fd5b5061033261065b36600461307e565b6112da565b34801561066c57600080fd5b506104d461067b366004613099565b61137b565b34801561068c57600080fd5b5061036261069b366004613099565b6115b9565b3480156106ac57600080fd5b506005546001600160a01b0316610509565b3480156106ca57600080fd5b50600754610509906001600160a01b031681565b3480156106ea57600080fd5b506102fc611636565b3480156106ff57600080fd5b5061033261070e36600461307e565b600f6020526000908152604090205460ff1681565b610362610731366004612f51565b611645565b34801561074257600080fd5b506006546001600160a01b0316610509565b34801561076057600080fd5b50610362611a62565b34801561077557600080fd5b5061060e61078436600461307e565b611ad4565b34801561079557600080fd5b506103326107a4366004612f0e565b611b20565b3480156107b557600080fd5b506103326107c4366004612f0e565b611bb2565b3480156107d557600080fd5b506012546103329060ff1681565b6103626107f1366004612f38565b611bc0565b34801561080257600080fd5b5047610362565b34801561081557600080fd5b5061036261082436600461307e565b60116020526000908152604090205481565b34801561084257600080fd5b506103626108513660046130c5565b6001600160a01b03918216600090815260016020908152604080832093909416825291909152205490565b34801561088857600080fd5b50610332610897366004612fc5565b611bce565b3480156108a857600080fd5b5061060e6108b736600461307e565b611c45565b3480156108c857600080fd5b50610362600e5481565b3480156108de57600080fd5b506103626108ed366004612f51565b611ce0565b3480156108fe57600080fd5b50600954610509906001600160a01b031681565b34801561091e57600080fd5b50600654610509906001600160a01b031681565b34801561093e57600080fd5b50610362600d5481565b34801561095457600080fd5b50610362610963366004613099565b611cee565b600080851180156109795750600084115b6109bb5760405162461bcd60e51b815260206004820152600e60248201526d0736f6c6420616e64206d696e20360941b60448201526064015b60405180910390fd5b6006546040516370a0823160e01b8152306004820152600091829182916001600160a01b0316906370a0823190602401602060405180830381865afa158015610a08573d6000803e3d6000fd5b505050506040513d601f19601f82011682018060405250810190610a2c91906130f8565b6001600160a01b0387166000908152600f6020526040902054909150479060ff168015610a7157506001600160a01b0386166000908152600f602052604090205460ff165b15610a7e57889350610aa4565b6064610a8b856003613127565b610a959190613146565b9250610aa1838a613168565b93505b6000610aba85610ab48185613168565b856115b9565b905088811015610b0c5760405162461bcd60e51b815260206004820152601b60248201527f746f6b656e735f626f75676874203e3d206d696e5f746f6b656e73000000000060448201526064016109b2565b60065460405163a9059cbb60e01b81526001600160a01b038981166004830152602482018490529091169063a9059cbb906044016020604051808303816000875af1158015610b5f573d6000803e3d6000fd5b505050506040513d601f19601f82011682018060405250810190610b83919061317f565b610bbe5760405162461bcd60e51b815260206004820152600c60248201526b3a3930b739b332b91032b93960a11b60448201526064016109b2565b8315610bcd57610bcd84611d39565b808a896001600160a01b03167f7f743fb741e07b0c4daeb2af54fb3ebfa2bdb31d9913a0e555661c870411aae560405160405180910390a47f75f52e89b275bdaed7ceb1586a0c5ac0503a27a09ea92f74dd81db37fa8402824760405190815260200160405180910390a1610c40611ddd565b9998505050505050505050565b606060038054610c5c906131a1565b80601f0160208091040260200160405190810160405280929190818152602001828054610c88906131a1565b8015610cd55780601f10610caa57610100808354040283529160200191610cd5565b820191906000526020600020905b815481529060010190602001808311610cb857829003601f168201915b5050505050905090565b600033610ced818585611efa565b60019150505b92915050565b6000808211610d0757600080fd5b6006546040516370a0823160e01b81523060048201526000916001600160a01b0316906370a0823190602401602060405180830381865afa158015610d50573d6000803e3d6000fd5b505050506040513d601f19601f82011682018060405250810190610d7491906130f8565b9050610d818347836115b9565b9392505050565b6000610d818383333361201f565b6000808211610da457600080fd5b600080610db060025490565b6006546040516370a0823160e01b815230600482015291925047916000916001600160a01b0316906370a0823190602401602060405180830381865afa158015610dfe573d6000803e3d6000fd5b505050506040513d601f19601f82011682018060405250810190610e2291906130f8565b905081610e2f8288613127565b610e399190613146565b610e449060016131d6565b9350600082610e538589613127565b610e5d9190613146565b979650505050505050565b6000610cf382343333612267565b600033610e848582856124eb565b610e8f85858561257d565b506001949350505050565b6005546000906001600160a01b03163314610ec75760405162461bcd60e51b81526004016109b2906131ee565b60005b8251811015610f1157610ef5838281518110610ee857610ee8613223565b6020026020010151610f18565b15610eff57600191505b80610f0981613239565b915050610eca565b505b919050565b6005546000906001600160a01b03163314610f455760405162461bcd60e51b81526004016109b2906131ee565b6001600160a01b0382166000908152600f602052604090205460ff1615610f13576001600160a01b0382166000818152600f6020908152604091829020805460ff1916905590519182527ff1abf01a1043b7c244d128e8595cf0c1d10743b022b03a02dffd8ca3bf729f5a91015b60405180910390a1506001919050565b6000808211610fd157600080fd5b6006546040516370a0823160e01b81523060048201526000916001600160a01b0316906370a0823190602401602060405180830381865afa15801561101a573d6000803e3d6000fd5b505050506040513d601f19601f8201168201806040525081019061103e91906130f8565b9050610d81838247611cee565b600080821161105957600080fd5b6006546040516370a0823160e01b81523060048201526000916001600160a01b0316906370a0823190602401602060405180830381865afa1580156110a2573d6000803e3d6000fd5b505050506040513d601f19601f820116820180604052508101906110c691906130f8565b905060006110d5844784611cee565b949350505050565b3360008181526001602090815260408083206001600160a01b0387168452909152812054909190610ced90829086906111179087906131d6565b611efa565b600080600061112a60025490565b90506000811161113957600080fd5b6006546040516370a0823160e01b81523060048201526000916001600160a01b0316906370a0823190602401602060405180830381865afa158015611182573d6000803e3d6000fd5b505050506040513d601f19601f820116820180604052508101906111a691906130f8565b90506000826111b54788613127565b6111bf9190613146565b90506000836111ce8489613127565b6111d89190613146565b919791965090945050505050565b60008082116112285760405162461bcd60e51b815260206004820152600e60248201526d0746f6b656e20736f6c64203c20360941b60448201526064016109b2565b6006546040516370a0823160e01b81523060048201526000916001600160a01b0316906370a0823190602401602060405180830381865afa158015611271573d6000803e3d6000fd5b505050506040513d601f19601f8201168201806040525081019061129591906130f8565b905060006110d58483476115b9565b6005546001600160a01b031633146112ce5760405162461bcd60e51b81526004016109b2906131ee565b6112d86000612739565b565b6005546000906001600160a01b031633146113075760405162461bcd60e51b81526004016109b2906131ee565b6001600160a01b0382166000908152600f602052604090205460ff16610f13576001600160a01b0382166000818152600f6020908152604091829020805460ff1916600117905590519182527fd1bba68c128cc3f427e5831b3c6f99f480b6efa6b9e80c757768f6124158cc3f9101610fb3565b60008060008511801561138e5750600084115b801561139a5750600083115b6113a357600080fd5b60006113ae60025490565b9050600081116113bd57600080fd5b6006546040516370a0823160e01b81523060048201526000916001600160a01b0316906370a0823190602401602060405180830381865afa158015611406573d6000803e3d6000fd5b505050506040513d601f19601f8201168201806040525081019061142a91906130f8565b9050600082611439478a613127565b6114439190613146565b9050600083611452848b613127565b61145c9190613146565b905087821015801561146e5750868110155b61147757600080fd5b611481338a61278b565b604051339083156108fc029084906000818181858888f193505050501580156114ae573d6000803e3d6000fd5b5060065460405163a9059cbb60e01b8152336004820152602481018390526001600160a01b039091169063a9059cbb906044016020604051808303816000875af1158015611500573d6000803e3d6000fd5b505050506040513d601f19601f82011682018060405250810190611524919061317f565b61152d57600080fd5b6040518190839033907f9985886fa2f848be5f83e79df7592adebce0c554283252f12b1c6ca0c1e3509390600090a433600090815260208190526040902054604051339060008051602061327983398151915290600090a360405189815260009033906000805160206132998339815191529060200160405180910390a3909890975095505050505050565b600080831180156115ca5750600082115b6116065760405162461bcd60e51b815260206004820152600d60248201526c494e56414c49445f56414c554560981b60448201526064016109b2565b60006116128386613127565b9050600061162086866131d6565b905061162c8183613146565b9695505050505050565b606060048054610c5c906131a1565b600080821180156116565750600034115b6116ae5760405162461bcd60e51b815260206004820152602360248201527f53776170236164644c69717569646974793a20494e56414c49445f415247554d60448201526211539560ea1b60648201526084016109b2565b60006116b960025490565b336000908152601060205260408120549192509060ff1661170a57336000908152601060205260408120805460ff19166001908117909155600e8054919290916117049084906131d6565b90915550505b8115611905576000851161171d57600080fd5b60006117293447613168565b6006546040516370a0823160e01b81523060048201529192506000916001600160a01b03909116906370a0823190602401602060405180830381865afa158015611777573d6000803e3d6000fd5b505050506040513d601f19601f8201168201806040525081019061179b91906130f8565b9050816117a88234613127565b6117b29190613146565b6117bd9060016131d6565b92506000826117cc8634613127565b6117d69190613146565b90508387101580156117e85750878110155b6117f157600080fd5b6117fb33826128bf565b6006546040516323b872dd60e01b81526001600160a01b03909116906323b872dd9061182f90339030908990600401613254565b6020604051808303816000875af115801561184e573d6000803e3d6000fd5b505050506040513d601f19601f82011682018060405250810190611872919061317f565b61187b57600080fd5b6040518490349033907f6059fee843ff0198392eef05d3fd97a79c42b66d197dbfc62ebdf25cf169844490600090a433600090815260208190526040902054604051339060008051602061327983398151915290600090a360405181815233906000906000805160206132998339815191529060200160405180910390a39450610cf39350505050565b670de0b6b3a764000034101561194d5760405162461bcd60e51b815260206004820152600d60248201526c494e56414c49445f56414c554560981b60448201526064016109b2565b50824761195a33826128bf565b6006546040516323b872dd60e01b81526001600160a01b03909116906323b872dd9061198e90339030908790600401613254565b6020604051808303816000875af11580156119ad573d6000803e3d6000fd5b505050506040513d601f19601f820116820180604052508101906119d1919061317f565b6119da57600080fd5b6040518290349033907f6059fee843ff0198392eef05d3fd97a79c42b66d197dbfc62ebdf25cf169844490600090a433600090815260208190526040902054604051339060008051602061327983398151915290600090a360405181815233906000906000805160206132998339815191529060200160405180910390a39250610cf3915050565b6006546040516370a0823160e01b81523060048201526000916001600160a01b0316906370a0823190602401602060405180830381865afa158015611aab573d6000803e3d6000fd5b505050506040513d601f19601f82011682018060405250810190611acf91906130f8565b905090565b6005546001600160a01b03163314611afe5760405162461bcd60e51b81526004016109b2906131ee565b600780546001600160a01b0319166001600160a01b0392909216919091179055565b3360008181526001602090815260408083206001600160a01b038716845290915281205490919083811015611ba55760405162461bcd60e51b815260206004820152602560248201527f45524332303a2064656372656173656420616c6c6f77616e63652062656c6f77604482015264207a65726f60d81b60648201526084016109b2565b610e8f8286868403611efa565b600033610ced81858561257d565b6000610cf334833333610968565b6005546000906001600160a01b03163314611bfb5760405162461bcd60e51b81526004016109b2906131ee565b60005b8251811015610f1157611c29838281518110611c1c57611c1c613223565b60200260200101516112da565b15611c3357600191505b80611c3d81613239565b915050611bfe565b6005546001600160a01b03163314611c6f5760405162461bcd60e51b81526004016109b2906131ee565b6001600160a01b038116611cd45760405162461bcd60e51b815260206004820152602660248201527f4f776e61626c653a206e6577206f776e657220697320746865207a65726f206160448201526564647265737360d01b60648201526084016109b2565b611cdd81612739565b50565b6000610d818383333361298c565b60008083118015611cff5750600082115b611d0857600080fd5b6000611d148585613127565b90506000611d228685613168565b9050611d2e8183613146565b61162c9060016131d6565b60008111611d4657600080fd5b6008546040516000916001600160a01b03169083908381818185875af1925050503d8060008114611d93576040519150601f19603f3d011682016040523d82523d6000602084013e611d98565b606091505b5050905080611da657600080fd5b6040518281527fc328594cab3a117e8ddf861647e12c326eb6fa98ab8f707982ad7a13e8264c7c9060200160405180910390a15050565b6000611df0670de0b6b3a764000061104b565b600d54600c549192504791611e059042613168565b1115611e53577faffebbdd31c6253ae2ea132d4a132d79b3ad07ed2720b51749aa97330a7bdb13611e37826002613127565b60408051918252602082018590520160405180910390a142600c555b6040518181527f75f52e89b275bdaed7ceb1586a0c5ac0503a27a09ea92f74dd81db37fa8402829060200160405180910390a16040518281527f26632edb369f47eb451a281fad73ca0a52cfa3109e457a64524535839486ac6d9060200160405180910390a16001600b6000828254611ecc91906131d6565b9091555050336000908152601160205260408120805460019290611ef19084906131d6565b90915550505050565b6001600160a01b038316611f5c5760405162461bcd60e51b8152602060048201526024808201527f45524332303a20617070726f76652066726f6d20746865207a65726f206164646044820152637265737360e01b60648201526084016109b2565b6001600160a01b038216611fbd5760405162461bcd60e51b815260206004820152602260248201527f45524332303a20617070726f766520746f20746865207a65726f206164647265604482015261737360f01b60648201526084016109b2565b6001600160a01b0383811660008181526001602090815260408083209487168084529482529182902085905590518481527f8c5be1e5ebec7d5bd14f71427d1e84f3dd0314c0f7b2291e5b200ac8c7c3b92591015b60405180910390a3505050565b600080851161202d57600080fd5b6006546040516370a0823160e01b81523060048201526000916001600160a01b0316906370a0823190602401602060405180830381865afa158015612076573d6000803e3d6000fd5b505050506040513d601f19601f8201168201806040525081019061209a91906130f8565b90504760006120aa888484611cee565b90506000818810156120f45760405162461bcd60e51b81526020600482015260136024820152721b585e081d1bdad95b9cc8195e18d959591959606a1b60448201526064016109b2565b6001600160a01b0387166000908152600f602052604090205460ff16801561213457506001600160a01b0386166000908152600f602052604090205460ff165b15612140575080612164565b605261214d836064613127565b6121579190613146565b9050612164898285612ba7565b6040516001600160a01b038716908a156108fc02908b906000818181858888f1935050505015801561219a573d6000803e3d6000fd5b506006546040516323b872dd60e01b81526001600160a01b03909116906323b872dd906121cf908a9030908690600401613254565b6020604051808303816000875af11580156121ee573d6000803e3d6000fd5b505050506040513d601f19601f82011682018060405250810190612212919061317f565b61221b57600080fd5b8881886001600160a01b03167f3cc32b807e0e6ade29defe751a1339a43c1e45d7d18eca93a916ca060ebe89ea60405160405180910390a461225b611ddd565b98975050505050505050565b600080851180156122785750600084115b61228157600080fd5b6006546040516370a0823160e01b8152306004820152600091829182916001600160a01b0316906370a0823190602401602060405180830381865afa1580156122ce573d6000803e3d6000fd5b505050506040513d601f19601f820116820180604052508101906122f291906130f8565b905047600061230b8a6123058b85613168565b85611cee565b6001600160a01b0389166000908152600f602052604090205490915060ff16801561234e57506001600160a01b0387166000908152600f602052604090205460ff165b1561235b5780945061238e565b6061612368826064613127565b6123729190613146565b94506064612381866003613127565b61238b9190613146565b93505b600061239a868b613168565b905080156123da576040516001600160a01b038a169082156108fc029083906000818181858888f193505050501580156123d8573d6000803e3d6000fd5b505b60065460405163a9059cbb60e01b81526001600160a01b038a81166004830152602482018e90529091169063a9059cbb906044016020604051808303816000875af115801561242d573d6000803e3d6000fd5b505050506040513d601f19601f82011682018060405250810190612451919061317f565b61245a57600080fd5b84156124695761246985611d39565b8a868a6001600160a01b03167f7f743fb741e07b0c4daeb2af54fb3ebfa2bdb31d9913a0e555661c870411aae560405160405180910390a46040518581527fc328594cab3a117e8ddf861647e12c326eb6fa98ab8f707982ad7a13e8264c7c9060200160405180910390a16124dc611ddd565b50939998505050505050505050565b6001600160a01b038381166000908152600160209081526040808320938616835292905220546000198114612577578181101561256a5760405162461bcd60e51b815260206004820152601d60248201527f45524332303a20696e73756666696369656e7420616c6c6f77616e636500000060448201526064016109b2565b6125778484848403611efa565b50505050565b6001600160a01b0383166125e15760405162461bcd60e51b815260206004820152602560248201527f45524332303a207472616e736665722066726f6d20746865207a65726f206164604482015264647265737360d81b60648201526084016109b2565b6001600160a01b0382166126435760405162461bcd60e51b815260206004820152602360248201527f45524332303a207472616e7366657220746f20746865207a65726f206164647260448201526265737360e81b60648201526084016109b2565b6001600160a01b038316600090815260208190526040902054818110156126bb5760405162461bcd60e51b815260206004820152602660248201527f45524332303a207472616e7366657220616d6f756e7420657863656564732062604482015265616c616e636560d01b60648201526084016109b2565b6001600160a01b038085166000908152602081905260408082208585039055918516815290812080548492906126f29084906131d6565b92505081905550826001600160a01b0316846001600160a01b03166000805160206132998339815191528460405161272c91815260200190565b60405180910390a3612577565b600580546001600160a01b038381166001600160a01b0319831681179093556040519116919082907f8be0079c531659141344cd1fd0a4f28419497f9722a3daafe3b4186f6b6457e090600090a35050565b6001600160a01b0382166127eb5760405162461bcd60e51b815260206004820152602160248201527f45524332303a206275726e2066726f6d20746865207a65726f206164647265736044820152607360f81b60648201526084016109b2565b6001600160a01b0382166000908152602081905260409020548181101561285f5760405162461bcd60e51b815260206004820152602260248201527f45524332303a206275726e20616d6f756e7420657863656564732062616c616e604482015261636560f01b60648201526084016109b2565b6001600160a01b038316600090815260208190526040812083830390556002805484929061288e908490613168565b90915550506040518281526000906001600160a01b0385169060008051602061329983398151915290602001612012565b6001600160a01b0382166129155760405162461bcd60e51b815260206004820152601f60248201527f45524332303a206d696e7420746f20746865207a65726f20616464726573730060448201526064016109b2565b806002600082825461292791906131d6565b90915550506001600160a01b038216600090815260208190526040812080548392906129549084906131d6565b90915550506040518181526001600160a01b038316906000906000805160206132998339815191529060200160405180910390a35050565b6000808511801561299d5750600084115b6129a657600080fd5b6006546040516370a0823160e01b81523060048201526000916001600160a01b0316906370a0823190602401602060405180830381865afa1580156129ef573d6000803e3d6000fd5b505050506040513d601f19601f82011682018060405250810190612a1391906130f8565b905047600080612a248985856115b9565b905087811015612a3357600080fd5b6001600160a01b0387166000908152600f602052604090205460ff168015612a7357506001600160a01b0386166000908152600f602052604090205460ff165b15612a8057809150612aa4565b6064612a8d826052613127565b612a979190613146565b9150612aa4818a85612ba7565b6040516001600160a01b0387169083156108fc029084906000818181858888f19350505050158015612ada573d6000803e3d6000fd5b506006546040516323b872dd60e01b81526001600160a01b03909116906323b872dd90612b0f908a9030908e90600401613254565b6020604051808303816000875af1158015612b2e573d6000803e3d6000fd5b505050506040513d601f19601f82011682018060405250810190612b52919061317f565b612b5b57600080fd5b8189886001600160a01b03167f3cc32b807e0e6ade29defe751a1339a43c1e45d7d18eca93a916ca060ebe89ea60405160405180910390a4612b9b611ddd565b50979650505050505050565b60006064612bb6856008613127565b612bc09190613146565b9050612bcb81611d39565b60006064612bda856005613127565b612be49190613146565b60065460095460405163a9059cbb60e01b81526001600160a01b03918216600482015260248101849052929350169063a9059cbb906044016020604051808303816000875af1158015612c3b573d6000803e3d6000fd5b505050506040513d601f19601f82011682018060405250810190612c5f919061317f565b5060006103e8612c70876019613127565b612c7a9190613146565b90506000612c8760025490565b9050600085612c968385613127565b612ca09190613146565b905060006064612cb183600a613127565b612cbb9190613146565b90506000612cc98284613168565b600a54909150612ce2906001600160a01b0316836128bf565b600754612cf8906001600160a01b0316826128bf565b600760009054906101000a90046001600160a01b03166001600160a01b031663677a78726040518163ffffffff1660e01b8152600401600060405180830381600087803b158015612d4857600080fd5b505af1158015612d5c573d6000803e3d6000fd5b505050507fc328594cab3a117e8ddf861647e12c326eb6fa98ab8f707982ad7a13e8264c7c87604051612d9191815260200190565b60405180910390a16040518681527f044b0fc80e673b7ce4245d6302c96dc22199a569a1b815fe4295e3b6ea54f95b9060200160405180910390a1600a546001600160a01b031660008181526020819052604080822054905190929160008051602061327983398151915291a3600a546040518381526001600160a01b03909116906000906000805160206132998339815191529060200160405180910390a36007546001600160a01b031660008181526020819052604080822054905190929160008051602061327983398151915291a36007546040518281526001600160a01b03909116906000906000805160206132998339815191529060200160405180910390a350505050505050505050565b600060208083528351808285015260005b81811015612ecf57858101830151858201604001528201612eb3565b81811115612ee1576000604083870101525b50601f01601f1916929092016040019392505050565b80356001600160a01b0381168114610f1357600080fd5b60008060408385031215612f2157600080fd5b612f2a83612ef7565b946020939093013593505050565b600060208284031215612f4a57600080fd5b5035919050565b60008060408385031215612f6457600080fd5b50508035926020909101359150565b600080600060608486031215612f8857600080fd5b612f9184612ef7565b9250612f9f60208501612ef7565b9150604084013590509250925092565b634e487b7160e01b600052604160045260246000fd5b60006020808385031215612fd857600080fd5b823567ffffffffffffffff80821115612ff057600080fd5b818501915085601f83011261300457600080fd5b81358181111561301657613016612faf565b8060051b604051601f19603f8301168101818110858211171561303b5761303b612faf565b60405291825284820192508381018501918883111561305957600080fd5b938501935b8285101561225b5761306f85612ef7565b8452938501939285019261305e565b60006020828403121561309057600080fd5b610d8182612ef7565b6000806000606084860312156130ae57600080fd5b505081359360208301359350604090920135919050565b600080604083850312156130d857600080fd5b6130e183612ef7565b91506130ef60208401612ef7565b90509250929050565b60006020828403121561310a57600080fd5b5051919050565b634e487b7160e01b600052601160045260246000fd5b600081600019048311821515161561314157613141613111565b500290565b60008261316357634e487b7160e01b600052601260045260246000fd5b500490565b60008282101561317a5761317a613111565b500390565b60006020828403121561319157600080fd5b81518015158114610d8157600080fd5b600181811c908216806131b557607f821691505b60208210811415610f1157634e487b7160e01b600052602260045260246000fd5b600082198211156131e9576131e9613111565b500190565b6020808252818101527f4f776e61626c653a2063616c6c6572206973206e6f7420746865206f776e6572604082015260600190565b634e487b7160e01b600052603260045260246000fd5b600060001982141561324d5761324d613111565b5060010190565b6001600160a01b03938416815291909216602082015260408101919091526060019056fe709a5b29491696d085fa151016fb243ea3cf977d385d7220302ec663ceb15d28ddf252ad1be2c89b69c2b068fc378daa952ba7f163c4a11628f55a4df523b3efa2646970667358221220ffdabee5af2b80d03a66231a40d5878929f00aae6bf3a32c141ec34d5b77e59664736f6c634300080c0033",
  "bytecodeSha1": "6d1841070e8e1caee249fbb121849ea98f99636c",
  "compiler": {
    "evm_version": "istanbul",
    "optimizer": {
      "enabled": true,
      "runs": 200
    },
    "version": "0.8.12+commit.f00d7308"
  },
  "contractName": "StakeFountain",
  "language": "Solidity",
  "natspec": {
    "kind": "dev",
    "methods": {
      "addAddressToWhitelist(address)": {
        "details": "add an address to the whitelist",
        "params": {
          "addr": "address"
        }
      },
      "addAddressesToWhitelist(address[])": {
        "details": "add addresses to the whitelist",
        "params": {
          "addrs": "addresses"
        }
      },
      "addLiquidity(uint256,uint256)": {
        "details": "min_liquidity does nothing when total SWAP supply is 0.",
        "notice": "Deposit BNB && Tokens (STAKE) at current ratio to mint STOKE tokens.",
        "params": {
          "max_tokens": "Maximum number of tokens deposited. Deposits max amount if total STOKE supply is 0.",
          "min_liquidity": "Minimum number of STOKE sender will mint if total STAKE supply is greater than 0."
        },
        "returns": {
          "_0": "The amount of SWAP minted."
        }
      },
      "allowance(address,address)": {
        "details": "See {IERC20-allowance}."
      },
      "approve(address,uint256)": {
        "details": "See {IERC20-approve}. NOTE: If `amount` is the maximum `uint256`, the allowance is not updated on `transferFrom`. This is semantically equivalent to an infinite approval. Requirements: - `spender` cannot be the zero address."
      },
      "balanceOf(address)": {
        "details": "See {IERC20-balanceOf}."
      },
      "bnbToTokenSwapInput(uint256)": {
        "details": "User specifies exact input (msg.value) && minimum output.",
        "notice": "Convert BNB to Tokens.",
        "params": {
          "min_tokens": "Minimum Tokens bought. Considers slippage."
        },
        "returns": {
          "_0": "Amount of Tokens bought."
        }
      },
      "bnbToTokenSwapOutput(uint256)": {
        "details": "User specifies maximum input (msg.value) && exact output.",
        "notice": "Convert BNB to Tokens.",
        "params": {
          "tokens_bought": "Amount of tokens bought."
        },
        "returns": {
          "_0": "Amount of BNB sold."
        }
      },
      "decimals()": {
        "details": "Returns the number of decimals used to get its user representation. For example, if `decimals` equals `2`, a balance of `505` tokens should be displayed to a user as `5.05` (`505 / 10 ** 2`). Tokens usually opt for a value of 18, imitating the relationship between Ether and Wei. This is the value {ERC20} uses, unless this function is overridden; NOTE: This information is only used for _display_ purposes: it in no way affects any of the arithmetic of the contract, including {IERC20-balanceOf} and {IERC20-transfer}."
      },
      "decreaseAllowance(address,uint256)": {
        "details": "Atomically decreases the allowance granted to `spender` by the caller. This is an alternative to {approve} that can be used as a mitigation for problems described in {IERC20-approve}. Emits an {Approval} event indicating the updated allowance. Requirements: - `spender` cannot be the zero address. - `spender` must have allowance for the caller of at least `subtractedValue`."
      },
      "getBnbToTokenInputPrice(uint256)": {
        "notice": "Public price function for BNB to Token trades with an exact input.",
        "params": {
          "bnb_sold": "Amount of BNB sold."
        },
        "returns": {
          "_0": "Amount of Tokens that can be bought with input BNB."
        }
      },
      "getBnbToTokenOutputPrice(uint256)": {
        "notice": "Public price function for BNB to Token trades with an exact output.",
        "params": {
          "tokens_bought": "Amount of Tokens bought."
        },
        "returns": {
          "_0": "Amount of BNB needed to buy output Tokens."
        }
      },
      "getInputPrice(uint256,uint256,uint256)": {
        "details": "Pricing function for converting between BNB && Tokens without fee.",
        "params": {
          "input_amount": "Amount of BNB or Tokens being sold.",
          "input_reserve": "Amount of BNB or Tokens (input type) in exchange reserves.",
          "output_reserve": "Amount of BNB or Tokens (output type) in exchange reserves."
        },
        "returns": {
          "_0": "Amount of BNB or Tokens bought."
        }
      },
      "getOutputPrice(uint256,uint256,uint256)": {
        "details": "Pricing function for converting between BNB && Tokens without fee.",
        "params": {
          "input_reserve": "Amount of BNB or Tokens (input type) in exchange reserves.",
          "output_amount": "Amount of BNB or Tokens being bought.",
          "output_reserve": "Amount of BNB or Tokens (output type) in exchange reserves."
        },
        "returns": {
          "_0": "Amount of BNB or Tokens sold."
        }
      },
      "getTokenToBnbInputPrice(uint256)": {
        "notice": "Public price function for Token to BNB trades with an exact input.",
        "params": {
          "tokens_sold": "Amount of Tokens sold."
        },
        "returns": {
          "_0": "Amount of BNB that can be bought with input Tokens."
        }
      },
      "getTokenToBnbOutputPrice(uint256)": {
        "notice": "Public price function for Token to BNB trades with an exact output.",
        "params": {
          "bnb_bought": "Amount of output BNB."
        },
        "returns": {
          "_0": "Amount of Tokens needed to buy output BNB."
        }
      },
      "increaseAllowance(address,uint256)": {
        "details": "Atomically increases the allowance granted to `spender` by the caller. This is an alternative to {approve} that can be used as a mitigation for problems described in {IERC20-approve}. Emits an {Approval} event indicating the updated allowance. Requirements: - `spender` cannot be the zero address."
      },
      "name()": {
        "details": "Returns the name of the token."
      },
      "owner()": {
        "details": "Returns the address of the current owner."
      },
      "removeAddressFromWhitelist(address)": {
        "details": "remove an address from the whitelist",
        "params": {
          "addr": "address"
        }
      },
      "removeAddressesFromWhitelist(address[])": {
        "details": "remove addresses from the whitelist",
        "params": {
          "addrs": "addresses"
        }
      },
      "removeLiquidity(uint256,uint256,uint256)": {
        "details": "Burn SWAP tokens to withdraw BNB && Tokens at current ratio.",
        "params": {
          "amount": "Amount of SWAP burned.",
          "min_bnb": "Minimum BNB withdrawn.",
          "min_tokens": "Minimum Tokens withdrawn."
        },
        "returns": {
          "_0": "The amount of BNB && Tokens withdrawn."
        }
      },
      "renounceOwnership()": {
        "details": "Leaves the contract without owner. It will not be possible to call `onlyOwner` functions anymore. Can only be called by the current owner. NOTE: Renouncing ownership will leave the contract without an owner, thereby removing any functionality that is only available to the owner."
      },
      "setLock(address)": {
        "details": "Sets lock address. Make sure to set a lock address after deploying.",
        "params": {
          "_lock": "token lock address"
        }
      },
      "symbol()": {
        "details": "Returns the symbol of the token, usually a shorter version of the name."
      },
      "tokenAddress()": {
        "returns": {
          "_0": "Address of Token that is sold on this exchange."
        }
      },
      "tokenToBnbSwapInput(uint256,uint256)": {
        "details": "User specifies exact input && minimum output.",
        "notice": "Convert Tokens to BNB.",
        "params": {
          "min_bnb": "Minimum BNB purchased.",
          "tokens_sold": "Amount of Tokens sold."
        },
        "returns": {
          "_0": "Amount of BNB bought."
        }
      },
      "tokenToBnbSwapOutput(uint256,uint256)": {
        "details": "User specifies maximum input && exact output.",
        "notice": "Convert Tokens to BNB.",
        "params": {
          "bnb_bought": "Amount of BNB purchased.",
          "max_tokens": "Maximum Tokens sold."
        },
        "returns": {
          "_0": "Amount of Tokens sold."
        }
      },
      "totalSupply()": {
        "details": "See {IERC20-totalSupply}."
      },
      "transfer(address,uint256)": {
        "details": "See {IERC20-transfer}. Requirements: - `to` cannot be the zero address. - the caller must have a balance of at least `amount`."
      },
      "transferFrom(address,address,uint256)": {
        "details": "See {IERC20-transferFrom}. Emits an {Approval} event indicating the updated allowance. This is not required by the EIP. See the note at the beginning of {ERC20}. NOTE: Does not update the allowance if the current allowance is the maximum `uint256`. Requirements: - `from` and `to` cannot be the zero address. - `from` must have a balance of at least `amount`. - the caller must have allowance for ``from``'s tokens of at least `amount`."
      },
      "transferOwnership(address)": {
        "details": "Transfers ownership of the contract to a new account (`newOwner`). Can only be called by the current owner."
      }
    },
    "notice": "When user swaps from STAKE to BNB, 18% of the STAKE is taxed. 8% of the total value to swap is converted to BNB and sent to treasury. 5% of the STAKE to swap is sent to vault in STAKE. 5% of the STAKE to swap is converted to LP token by converting half of it to BNB and then sent to foundation.",
    "version": 1
  },
  "opcodes": "PUSH1 0x80 PUSH1 0x40 MSTORE PUSH1 0x4 CALLDATASIZE LT PUSH2 0x2CD JUMPI PUSH1 0x0 CALLDATALOAD PUSH1 0xE0 SHR DUP1 PUSH4 0x857620E1 GT PUSH2 0x175 JUMPI DUP1 PUSH4 0xB187BD26 GT PUSH2 0xDC JUMPI DUP1 PUSH4 0xF2FDE38B GT PUSH2 0x95 JUMPI DUP1 PUSH4 0xFBFA77CF GT PUSH2 0x6F JUMPI DUP1 PUSH4 0xFBFA77CF EQ PUSH2 0x8F2 JUMPI DUP1 PUSH4 0xFC0C546A EQ PUSH2 0x912 JUMPI DUP1 PUSH4 0xFC518205 EQ PUSH2 0x932 JUMPI DUP1 PUSH4 0xFD11C223 EQ PUSH2 0x948 JUMPI PUSH1 0x0 DUP1 REVERT JUMPDEST DUP1 PUSH4 0xF2FDE38B EQ PUSH2 0x89C JUMPI DUP1 PUSH4 0xF8401FE6 EQ PUSH2 0x8BC JUMPI DUP1 PUSH4 0xFB48D48A EQ PUSH2 0x8D2 JUMPI PUSH1 0x0 DUP1 REVERT JUMPDEST DUP1 PUSH4 0xB187BD26 EQ PUSH2 0x7C9 JUMPI DUP1 PUSH4 0xB5695026 EQ PUSH2 0x7E3 JUMPI DUP1 PUSH4 0xD013CBE2 EQ PUSH2 0x7F6 JUMPI DUP1 PUSH4 0xD596F9B4 EQ PUSH2 0x809 JUMPI DUP1 PUSH4 0xDD62ED3E EQ PUSH2 0x836 JUMPI DUP1 PUSH4 0xE2EC6EC3 EQ PUSH2 0x87C JUMPI PUSH1 0x0 DUP1 REVERT JUMPDEST DUP1 PUSH4 0x9CD441DA GT PUSH2 0x12E JUMPI DUP1 PUSH4 0x9CD441DA EQ PUSH2 0x723 JUMPI DUP1 PUSH4 0x9D76EA58 EQ PUSH2 0x736 JUMPI DUP1 PUSH4 0x9E1A4D19 EQ PUSH2 0x754 JUMPI DUP1 PUSH4 0xA32088D4 EQ PUSH2 0x769 JUMPI DUP1 PUSH4 0xA457C2D7 EQ PUSH2 0x789 JUMPI DUP1 PUSH4 0xA9059CBB EQ PUSH2 0x7A9 JUMPI PUSH1 0x0 DUP1 REVERT JUMPDEST DUP1 PUSH4 0x857620E1 EQ PUSH2 0x660 JUMPI DUP1 PUSH4 0x89F2A871 EQ PUSH2 0x680 JUMPI DUP1 PUSH4 0x8DA5CB5B EQ PUSH2 0x6A0 JUMPI DUP1 PUSH4 0x8F798A5D EQ PUSH2 0x6BE JUMPI DUP1 PUSH4 0x95D89B41 EQ PUSH2 0x6DE JUMPI DUP1 PUSH4 0x9B19251A EQ PUSH2 0x6F3 JUMPI PUSH1 0x0 DUP1 REVERT JUMPDEST DUP1 PUSH4 0x38E70059 GT PUSH2 0x234 JUMPI DUP1 PUSH4 0x5746402B GT PUSH2 0x1ED JUMPI DUP1 PUSH4 0x70A08231 GT PUSH2 0x1C7 JUMPI DUP1 PUSH4 0x70A08231 EQ PUSH2 0x5C3 JUMPI DUP1 PUSH4 0x715018A6 EQ PUSH2 0x5F9 JUMPI DUP1 PUSH4 0x769D7235 EQ PUSH2 0x610 JUMPI DUP1 PUSH4 0x7B9417C8 EQ PUSH2 0x640 JUMPI PUSH1 0x0 DUP1 REVERT JUMPDEST DUP1 PUSH4 0x5746402B EQ PUSH2 0x56D JUMPI DUP1 PUSH4 0x61D027B3 EQ PUSH2 0x58D JUMPI DUP1 PUSH4 0x7044F7A7 EQ PUSH2 0x5AD JUMPI PUSH1 0x0 DUP1 REVERT JUMPDEST DUP1 PUSH4 0x38E70059 EQ PUSH2 0x474 JUMPI DUP1 PUSH4 0x39509351 EQ PUSH2 0x494 JUMPI DUP1 PUSH4 0x3DA2EC9B EQ PUSH2 0x4B4 JUMPI DUP1 PUSH4 0x41FBB050 EQ PUSH2 0x4E9 JUMPI DUP1 PUSH4 0x4EAA1B87 EQ PUSH2 0x521 JUMPI DUP1 PUSH4 0x537A39BB EQ PUSH2 0x557 JUMPI PUSH1 0x0 DUP1 REVERT JUMPDEST DUP1 PUSH4 0x1DB7976F GT PUSH2 0x286 JUMPI DUP1 PUSH4 0x1DB7976F EQ PUSH2 0x3C5 JUMPI DUP1 PUSH4 0x23B872DD EQ PUSH2 0x3D8 JUMPI DUP1 PUSH4 0x24953EAA EQ PUSH2 0x3F8 JUMPI DUP1 PUSH4 0x286DD3F5 EQ PUSH2 0x418 JUMPI DUP1 PUSH4 0x2F38C6E6 EQ PUSH2 0x438 JUMPI DUP1 PUSH4 0x313CE567 EQ PUSH2 0x458 JUMPI PUSH1 0x0 DUP1 REVERT JUMPDEST DUP1 PUSH4 0x6FDDE03 EQ PUSH2 0x2E7 JUMPI DUP1 PUSH4 0x95EA7B3 EQ PUSH2 0x312 JUMPI DUP1 PUSH4 0xE250842 EQ PUSH2 0x342 JUMPI DUP1 PUSH4 0x18160DDD EQ PUSH2 0x370 JUMPI DUP1 PUSH4 0x1A12BE0D EQ PUSH2 0x385 JUMPI DUP1 PUSH4 0x1A42B767 EQ PUSH2 0x3A5 JUMPI PUSH1 0x0 DUP1 REVERT JUMPDEST CALLDATASIZE PUSH2 0x2E2 JUMPI PUSH2 0x2DF CALLVALUE PUSH1 0x1 CALLER CALLER PUSH2 0x968 JUMP JUMPDEST POP STOP JUMPDEST PUSH1 0x0 DUP1 REVERT JUMPDEST CALLVALUE DUP1 ISZERO PUSH2 0x2F3 JUMPI PUSH1 0x0 DUP1 REVERT JUMPDEST POP PUSH2 0x2FC PUSH2 0xC4D JUMP JUMPDEST PUSH1 0x40 MLOAD PUSH2 0x309 SWAP2 SWAP1 PUSH2 0x2EA2 JUMP JUMPDEST PUSH1 0x40 MLOAD DUP1 SWAP2 SUB SWAP1 RETURN JUMPDEST CALLVALUE DUP1 ISZERO PUSH2 0x31E JUMPI PUSH1 0x0 DUP1 REVERT JUMPDEST POP PUSH2 0x332 PUSH2 0x32D CALLDATASIZE PUSH1 0x4 PUSH2 0x2F0E JUMP JUMPDEST PUSH2 0xCDF JUMP JUMPDEST PUSH1 0x40 MLOAD SWAP1 ISZERO ISZERO DUP2 MSTORE PUSH1 0x20 ADD PUSH2 0x309 JUMP JUMPDEST CALLVALUE DUP1 ISZERO PUSH2 0x34E JUMPI PUSH1 0x0 DUP1 REVERT JUMPDEST POP PUSH2 0x362 PUSH2 0x35D CALLDATASIZE PUSH1 0x4 PUSH2 0x2F38 JUMP JUMPDEST PUSH2 0xCF9 JUMP JUMPDEST PUSH1 0x40 MLOAD SWAP1 DUP2 MSTORE PUSH1 0x20 ADD PUSH2 0x309 JUMP JUMPDEST CALLVALUE DUP1 ISZERO PUSH2 0x37C JUMPI PUSH1 0x0 DUP1 REVERT JUMPDEST POP PUSH1 0x2 SLOAD PUSH2 0x362 JUMP JUMPDEST CALLVALUE DUP1 ISZERO PUSH2 0x391 JUMPI PUSH1 0x0 DUP1 REVERT JUMPDEST POP PUSH2 0x362 PUSH2 0x3A0 CALLDATASIZE PUSH1 0x4 PUSH2 0x2F51 JUMP JUMPDEST PUSH2 0xD88 JUMP JUMPDEST CALLVALUE DUP1 ISZERO PUSH2 0x3B1 JUMPI PUSH1 0x0 DUP1 REVERT JUMPDEST POP PUSH2 0x362 PUSH2 0x3C0 CALLDATASIZE PUSH1 0x4 PUSH2 0x2F38 JUMP JUMPDEST PUSH2 0xD96 JUMP JUMPDEST PUSH2 0x362 PUSH2 0x3D3 CALLDATASIZE PUSH1 0x4 PUSH2 0x2F38 JUMP JUMPDEST PUSH2 0xE68 JUMP JUMPDEST CALLVALUE DUP1 ISZERO PUSH2 0x3E4 JUMPI PUSH1 0x0 DUP1 REVERT JUMPDEST POP PUSH2 0x332 PUSH2 0x3F3 CALLDATASIZE PUSH1 0x4 PUSH2 0x2F73 JUMP JUMPDEST PUSH2 0xE76 JUMP JUMPDEST CALLVALUE DUP1 ISZERO PUSH2 0x404 JUMPI PUSH1 0x0 DUP1 REVERT JUMPDEST POP PUSH2 0x332 PUSH2 0x413 CALLDATASIZE PUSH1 0x4 PUSH2 0x2FC5 JUMP JUMPDEST PUSH2 0xE9A JUMP JUMPDEST CALLVALUE DUP1 ISZERO PUSH2 0x424 JUMPI PUSH1 0x0 DUP1 REVERT JUMPDEST POP PUSH2 0x332 PUSH2 0x433 CALLDATASIZE PUSH1 0x4 PUSH2 0x307E JUMP JUMPDEST PUSH2 0xF18 JUMP JUMPDEST CALLVALUE DUP1 ISZERO PUSH2 0x444 JUMPI PUSH1 0x0 DUP1 REVERT JUMPDEST POP PUSH2 0x362 PUSH2 0x453 CALLDATASIZE PUSH1 0x4 PUSH2 0x2F38 JUMP JUMPDEST PUSH2 0xFC3 JUMP JUMPDEST CALLVALUE DUP1 ISZERO PUSH2 0x464 JUMPI PUSH1 0x0 DUP1 REVERT JUMPDEST POP PUSH1 0x40 MLOAD PUSH1 0x12 DUP2 MSTORE PUSH1 0x20 ADD PUSH2 0x309 JUMP JUMPDEST CALLVALUE DUP1 ISZERO PUSH2 0x480 JUMPI PUSH1 0x0 DUP1 REVERT JUMPDEST POP PUSH2 0x362 PUSH2 0x48F CALLDATASIZE PUSH1 0x4 PUSH2 0x2F38 JUMP JUMPDEST PUSH2 0x104B JUMP JUMPDEST CALLVALUE DUP1 ISZERO PUSH2 0x4A0 JUMPI PUSH1 0x0 DUP1 REVERT JUMPDEST POP PUSH2 0x332 PUSH2 0x4AF CALLDATASIZE PUSH1 0x4 PUSH2 0x2F0E JUMP JUMPDEST PUSH2 0x10DD JUMP JUMPDEST CALLVALUE DUP1 ISZERO PUSH2 0x4C0 JUMPI PUSH1 0x0 DUP1 REVERT JUMPDEST POP PUSH2 0x4D4 PUSH2 0x4CF CALLDATASIZE PUSH1 0x4 PUSH2 0x2F38 JUMP JUMPDEST PUSH2 0x111C JUMP JUMPDEST PUSH1 0x40 DUP1 MLOAD SWAP3 DUP4 MSTORE PUSH1 0x20 DUP4 ADD SWAP2 SWAP1 SWAP2 MSTORE ADD PUSH2 0x309 JUMP JUMPDEST CALLVALUE DUP1 ISZERO PUSH2 0x4F5 JUMPI PUSH1 0x0 DUP1 REVERT JUMPDEST POP PUSH1 0xA SLOAD PUSH2 0x509 SWAP1 PUSH1 0x1 PUSH1 0x1 PUSH1 0xA0 SHL SUB AND DUP2 JUMP JUMPDEST PUSH1 0x40 MLOAD PUSH1 0x1 PUSH1 0x1 PUSH1 0xA0 SHL SUB SWAP1 SWAP2 AND DUP2 MSTORE PUSH1 0x20 ADD PUSH2 0x309 JUMP JUMPDEST CALLVALUE DUP1 ISZERO PUSH2 0x52D JUMPI PUSH1 0x0 DUP1 REVERT JUMPDEST POP PUSH2 0x362 PUSH2 0x53C CALLDATASIZE PUSH1 0x4 PUSH2 0x307E JUMP JUMPDEST PUSH1 0x1 PUSH1 0x1 PUSH1 0xA0 SHL SUB AND PUSH1 0x0 SWAP1 DUP2 MSTORE PUSH1 0x11 PUSH1 0x20 MSTORE PUSH1 0x40 SWAP1 KECCAK256 SLOAD SWAP1 JUMP JUMPDEST CALLVALUE DUP1 ISZERO PUSH2 0x563 JUMPI PUSH1 0x0 DUP1 REVERT JUMPDEST POP PUSH2 0x362 PUSH1 0xB SLOAD DUP2 JUMP JUMPDEST CALLVALUE DUP1 ISZERO PUSH2 0x579 JUMPI PUSH1 0x0 DUP1 REVERT JUMPDEST POP PUSH2 0x362 PUSH2 0x588 CALLDATASIZE PUSH1 0x4 PUSH2 0x2F38 JUMP JUMPDEST PUSH2 0x11E6 JUMP JUMPDEST CALLVALUE DUP1 ISZERO PUSH2 0x599 JUMPI PUSH1 0x0 DUP1 REVERT JUMPDEST POP PUSH1 0x8 SLOAD PUSH2 0x509 SWAP1 PUSH1 0x1 PUSH1 0x1 PUSH1 0xA0 SHL SUB AND DUP2 JUMP JUMPDEST CALLVALUE DUP1 ISZERO PUSH2 0x5B9 JUMPI PUSH1 0x0 DUP1 REVERT JUMPDEST POP PUSH2 0x362 PUSH1 0xC SLOAD DUP2 JUMP JUMPDEST CALLVALUE DUP1 ISZERO PUSH2 0x5CF JUMPI PUSH1 0x0 DUP1 REVERT JUMPDEST POP PUSH2 0x362 PUSH2 0x5DE CALLDATASIZE PUSH1 0x4 PUSH2 0x307E JUMP JUMPDEST PUSH1 0x1 PUSH1 0x1 PUSH1 0xA0 SHL SUB AND PUSH1 0x0 SWAP1 DUP2 MSTORE PUSH1 0x20 DUP2 SWAP1 MSTORE PUSH1 0x40 SWAP1 KECCAK256 SLOAD SWAP1 JUMP JUMPDEST CALLVALUE DUP1 ISZERO PUSH2 0x605 JUMPI PUSH1 0x0 DUP1 REVERT JUMPDEST POP PUSH2 0x60E PUSH2 0x12A4 JUMP JUMPDEST STOP JUMPDEST CALLVALUE DUP1 ISZERO PUSH2 0x61C JUMPI PUSH1 0x0 DUP1 REVERT JUMPDEST POP PUSH2 0x332 PUSH2 0x62B CALLDATASIZE PUSH1 0x4 PUSH2 0x307E JUMP JUMPDEST PUSH1 0x10 PUSH1 0x20 MSTORE PUSH1 0x0 SWAP1 DUP2 MSTORE PUSH1 0x40 SWAP1 KECCAK256 SLOAD PUSH1 0xFF AND DUP2 JUMP JUMPDEST CALLVALUE DUP1 ISZERO PUSH2 0x64C JUMPI PUSH1 0x0 DUP1 REVERT JUMPDEST POP PUSH2 0x332 PUSH2 0x65B CALLDATASIZE PUSH1 0x4 PUSH2 0x307E JUMP JUMPDEST PUSH2 0x12DA JUMP JUMPDEST CALLVALUE DUP1 ISZERO PUSH2 0x66C JUMPI PUSH1 0x0 DUP1 REVERT JUMPDEST POP PUSH2 0x4D4 PUSH2 0x67B CALLDATASIZE PUSH1 0x4 PUSH2 0x3099 JUMP JUMPDEST PUSH2 0x137B JUMP JUMPDEST CALLVALUE DUP1 ISZERO PUSH2 0x68C JUMPI PUSH1 0x0 DUP1 REVERT JUMPDEST POP PUSH2 0x362 PUSH2 0x69B CALLDATASIZE PUSH1 0x4 PUSH2 0x3099 JUMP JUMPDEST PUSH2 0x15B9 JUMP JUMPDEST CALLVALUE DUP1 ISZERO PUSH2 0x6AC JUMPI PUSH1 0x0 DUP1 REVERT JUMPDEST POP PUSH1 0x5 SLOAD PUSH1 0x1 PUSH1 0x1 PUSH1 0xA0 SHL SUB AND PUSH2 0x509 JUMP JUMPDEST CALLVALUE DUP1 ISZERO PUSH2 0x6CA JUMPI PUSH1 0x0 DUP1 REVERT JUMPDEST POP PUSH1 0x7 SLOAD PUSH2 0x509 SWAP1 PUSH1 0x1 PUSH1 0x1 PUSH1 0xA0 SHL SUB AND DUP2 JUMP JUMPDEST CALLVALUE DUP1 ISZERO PUSH2 0x6EA JUMPI PUSH1 0x0 DUP1 REVERT JUMPDEST POP PUSH2 0x2FC PUSH2 0x1636 JUMP JUMPDEST CALLVALUE DUP1 ISZERO PUSH2 0x6FF JUMPI PUSH1 0x0 DUP1 REVERT JUMPDEST POP PUSH2 0x332 PUSH2 0x70E CALLDATASIZE PUSH1 0x4 PUSH2 0x307E JUMP JUMPDEST PUSH1 0xF PUSH1 0x20 MSTORE PUSH1 0x0 SWAP1 DUP2 MSTORE PUSH1 0x40 SWAP1 KECCAK256 SLOAD PUSH1 0xFF AND DUP2 JUMP JUMPDEST PUSH2 0x362 PUSH2 0x731 CALLDATASIZE PUSH1 0x4 PUSH2 0x2F51 JUMP JUMPDEST PUSH2 0x1645 JUMP JUMPDEST CALLVALUE DUP1 ISZERO PUSH2 0x742 JUMPI PUSH1 0x0 DUP1 REVERT JUMPDEST POP PUSH1 0x6 SLOAD PUSH1 0x1 PUSH1 0x1 PUSH1 0xA0 SHL SUB AND PUSH2 0x509 JUMP JUMPDEST CALLVALUE DUP1 ISZERO PUSH2 0x760 JUMPI PUSH1 0x0 DUP1 REVERT JUMPDEST POP PUSH2 0x362 PUSH2 0x1A62 JUMP JUMPDEST CALLVALUE DUP1 ISZERO PUSH2 0x775 JUMPI PUSH1 0x0 DUP1 REVERT JUMPDEST POP PUSH2 0x60E PUSH2 0x784 CALLDATASIZE PUSH1 0x4 PUSH2 0x307E JUMP JUMPDEST PUSH2 0x1AD4 JUMP JUMPDEST CALLVALUE DUP1 ISZERO PUSH2 0x795 JUMPI PUSH1 0x0 DUP1 REVERT JUMPDEST POP PUSH2 0x332 PUSH2 0x7A4 CALLDATASIZE PUSH1 0x4 PUSH2 0x2F0E JUMP JUMPDEST PUSH2 0x1B20 JUMP JUMPDEST CALLVALUE DUP1 ISZERO PUSH2 0x7B5 JUMPI PUSH1 0x0 DUP1 REVERT JUMPDEST POP PUSH2 0x332 PUSH2 0x7C4 CALLDATASIZE PUSH1 0x4 PUSH2 0x2F0E JUMP JUMPDEST PUSH2 0x1BB2 JUMP JUMPDEST CALLVALUE DUP1 ISZERO PUSH2 0x7D5 JUMPI PUSH1 0x0 DUP1 REVERT JUMPDEST POP PUSH1 0x12 SLOAD PUSH2 0x332 SWAP1 PUSH1 0xFF AND DUP2 JUMP JUMPDEST PUSH2 0x362 PUSH2 0x7F1 CALLDATASIZE PUSH1 0x4 PUSH2 0x2F38 JUMP JUMPDEST PUSH2 0x1BC0 JUMP JUMPDEST CALLVALUE DUP1 ISZERO PUSH2 0x802 JUMPI PUSH1 0x0 DUP1 REVERT JUMPDEST POP SELFBALANCE PUSH2 0x362 JUMP JUMPDEST CALLVALUE DUP1 ISZERO PUSH2 0x815 JUMPI PUSH1 0x0 DUP1 REVERT JUMPDEST POP PUSH2 0x362 PUSH2 0x824 CALLDATASIZE PUSH1 0x4 PUSH2 0x307E JUMP JUMPDEST PUSH1 0x11 PUSH1 0x20 MSTORE PUSH1 0x0 SWAP1 DUP2 MSTORE PUSH1 0x40 SWAP1 KECCAK256 SLOAD DUP2 JUMP JUMPDEST CALLVALUE DUP1 ISZERO PUSH2 0x842 JUMPI PUSH1 0x0 DUP1 REVERT JUMPDEST POP PUSH2 0x362 PUSH2 0x851 CALLDATASIZE PUSH1 0x4 PUSH2 0x30C5 JUMP JUMPDEST PUSH1 0x1 PUSH1 0x1 PUSH1 0xA0 SHL SUB SWAP2 DUP3 AND PUSH1 0x0 SWAP1 DUP2 MSTORE PUSH1 0x1 PUSH1 0x20 SWAP1 DUP2 MSTORE PUSH1 0x40 DUP1 DUP4 KECCAK256 SWAP4 SWAP1 SWAP5 AND DUP3 MSTORE SWAP2 SWAP1 SWAP2 MSTORE KECCAK256 SLOAD SWAP1 JUMP JUMPDEST CALLVALUE DUP1 ISZERO PUSH2 0x888 JUMPI PUSH1 0x0 DUP1 REVERT JUMPDEST POP PUSH2 0x332 PUSH2 0x897 CALLDATASIZE PUSH1 0x4 PUSH2 0x2FC5 JUMP JUMPDEST PUSH2 0x1BCE JUMP JUMPDEST CALLVALUE DUP1 ISZERO PUSH2 0x8A8 JUMPI PUSH1 0x0 DUP1 REVERT JUMPDEST POP PUSH2 0x60E PUSH2 0x8B7 CALLDATASIZE PUSH1 0x4 PUSH2 0x307E JUMP JUMPDEST PUSH2 0x1C45 JUMP JUMPDEST CALLVALUE DUP1 ISZERO PUSH2 0x8C8 JUMPI PUSH1 0x0 DUP1 REVERT JUMPDEST POP PUSH2 0x362 PUSH1 0xE SLOAD DUP2 JUMP JUMPDEST CALLVALUE DUP1 ISZERO PUSH2 0x8DE JUMPI PUSH1 0x0 DUP1 REVERT JUMPDEST POP PUSH2 0x362 PUSH2 0x8ED CALLDATASIZE PUSH1 0x4 PUSH2 0x2F51 JUMP JUMPDEST PUSH2 0x1CE0 JUMP JUMPDEST CALLVALUE DUP1 ISZERO PUSH2 0x8FE JUMPI PUSH1 0x0 DUP1 REVERT JUMPDEST POP PUSH1 0x9 SLOAD PUSH2 0x509 SWAP1 PUSH1 0x1 PUSH1 0x1 PUSH1 0xA0 SHL SUB AND DUP2 JUMP JUMPDEST CALLVALUE DUP1 ISZERO PUSH2 0x91E JUMPI PUSH1 0x0 DUP1 REVERT JUMPDEST POP PUSH1 0x6 SLOAD PUSH2 0x509 SWAP1 PUSH1 0x1 PUSH1 0x1 PUSH1 0xA0 SHL SUB AND DUP2 JUMP JUMPDEST CALLVALUE DUP1 ISZERO PUSH2 0x93E JUMPI PUSH1 0x0 DUP1 REVERT JUMPDEST POP PUSH2 0x362 PUSH1 0xD SLOAD DUP2 JUMP JUMPDEST CALLVALUE DUP1 ISZERO PUSH2 0x954 JUMPI PUSH1 0x0 DUP1 REVERT JUMPDEST POP PUSH2 0x362 PUSH2 0x963 CALLDATASIZE PUSH1 0x4 PUSH2 0x3099 JUMP JUMPDEST PUSH2 0x1CEE JUMP JUMPDEST PUSH1 0x0 DUP1 DUP6 GT DUP1 ISZERO PUSH2 0x979 JUMPI POP PUSH1 0x0 DUP5 GT JUMPDEST PUSH2 0x9BB JUMPI PUSH1 0x40 MLOAD PUSH3 0x461BCD PUSH1 0xE5 SHL DUP2 MSTORE PUSH1 0x20 PUSH1 0x4 DUP3 ADD MSTORE PUSH1 0xE PUSH1 0x24 DUP3 ADD MSTORE PUSH14 0x736F6C6420616E64206D696E203 PUSH1 0x94 SHL PUSH1 0x44 DUP3 ADD MSTORE PUSH1 0x64 ADD JUMPDEST PUSH1 0x40 MLOAD DUP1 SWAP2 SUB SWAP1 REVERT JUMPDEST PUSH1 0x6 SLOAD PUSH1 0x40 MLOAD PUSH4 0x70A08231 PUSH1 0xE0 SHL DUP2 MSTORE ADDRESS PUSH1 0x4 DUP3 ADD MSTORE PUSH1 0x0 SWAP2 DUP3 SWAP2 DUP3 SWAP2 PUSH1 0x1 PUSH1 0x1 PUSH1 0xA0 SHL SUB AND SWAP1 PUSH4 0x70A08231 SWAP1 PUSH1 0x24 ADD PUSH1 0x20 PUSH1 0x40 MLOAD DUP1 DUP4 SUB DUP2 DUP7 GAS STATICCALL ISZERO DUP1 ISZERO PUSH2 0xA08 JUMPI RETURNDATASIZE PUSH1 0x0 DUP1 RETURNDATACOPY RETURNDATASIZE PUSH1 0x0 REVERT JUMPDEST POP POP POP POP PUSH1 0x40 MLOAD RETURNDATASIZE PUSH1 0x1F NOT PUSH1 0x1F DUP3 ADD AND DUP3 ADD DUP1 PUSH1 0x40 MSTORE POP DUP2 ADD SWAP1 PUSH2 0xA2C SWAP2 SWAP1 PUSH2 0x30F8 JUMP JUMPDEST PUSH1 0x1 PUSH1 0x1 PUSH1 0xA0 SHL SUB DUP8 AND PUSH1 0x0 SWAP1 DUP2 MSTORE PUSH1 0xF PUSH1 0x20 MSTORE PUSH1 0x40 SWAP1 KECCAK256 SLOAD SWAP1 SWAP2 POP SELFBALANCE SWAP1 PUSH1 0xFF AND DUP1 ISZERO PUSH2 0xA71 JUMPI POP PUSH1 0x1 PUSH1 0x1 PUSH1 0xA0 SHL SUB DUP7 AND PUSH1 0x0 SWAP1 DUP2 MSTORE PUSH1 0xF PUSH1 0x20 MSTORE PUSH1 0x40 SWAP1 KECCAK256 SLOAD PUSH1 0xFF AND JUMPDEST ISZERO PUSH2 0xA7E JUMPI DUP9 SWAP4 POP PUSH2 0xAA4 JUMP JUMPDEST PUSH1 0x64 PUSH2 0xA8B DUP6 PUSH1 0x3 PUSH2 0x3127 JUMP JUMPDEST PUSH2 0xA95 SWAP2 SWAP1 PUSH2 0x3146 JUMP JUMPDEST SWAP3 POP PUSH2 0xAA1 DUP4 DUP11 PUSH2 0x3168 JUMP JUMPDEST SWAP4 POP JUMPDEST PUSH1 0x0 PUSH2 0xABA DUP6 PUSH2 0xAB4 DUP2 DUP6 PUSH2 0x3168 JUMP JUMPDEST DUP6 PUSH2 0x15B9 JUMP JUMPDEST SWAP1 POP DUP9 DUP2 LT ISZERO PUSH2 0xB0C JUMPI PUSH1 0x40 MLOAD PUSH3 0x461BCD PUSH1 0xE5 SHL DUP2 MSTORE PUSH1 0x20 PUSH1 0x4 DUP3 ADD MSTORE PUSH1 0x1B PUSH1 0x24 DUP3 ADD MSTORE PUSH32 0x746F6B656E735F626F75676874203E3D206D696E5F746F6B656E730000000000 PUSH1 0x44 DUP3 ADD MSTORE PUSH1 0x64 ADD PUSH2 0x9B2 JUMP JUMPDEST PUSH1 0x6 SLOAD PUSH1 0x40 MLOAD PUSH4 0xA9059CBB PUSH1 0xE0 SHL DUP2 MSTORE PUSH1 0x1 PUSH1 0x1 PUSH1 0xA0 SHL SUB DUP10 DUP2 AND PUSH1 0x4 DUP4 ADD MSTORE PUSH1 0x24 DUP3 ADD DUP5 SWAP1 MSTORE SWAP1 SWAP2 AND SWAP1 PUSH4 0xA9059CBB SWAP1 PUSH1 0x44 ADD PUSH1 0x20 PUSH1 0x40 MLOAD DUP1 DUP4 SUB DUP2 PUSH1 0x0 DUP8 GAS CALL ISZERO DUP1 ISZERO PUSH2 0xB5F JUMPI RETURNDATASIZE PUSH1 0x0 DUP1 RETURNDATACOPY RETURNDATASIZE PUSH1 0x0 REVERT JUMPDEST POP POP POP POP PUSH1 0x40 MLOAD RETURNDATASIZE PUSH1 0x1F NOT PUSH1 0x1F DUP3 ADD AND DUP3 ADD DUP1 PUSH1 0x40 MSTORE POP DUP2 ADD SWAP1 PUSH2 0xB83 SWAP2 SWAP1 PUSH2 0x317F JUMP JUMPDEST PUSH2 0xBBE JUMPI PUSH1 0x40 MLOAD PUSH3 0x461BCD PUSH1 0xE5 SHL DUP2 MSTORE PUSH1 0x20 PUSH1 0x4 DUP3 ADD MSTORE PUSH1 0xC PUSH1 0x24 DUP3 ADD MSTORE PUSH12 0x3A3930B739B332B91032B939 PUSH1 0xA1 SHL PUSH1 0x44 DUP3 ADD MSTORE PUSH1 0x64 ADD PUSH2 0x9B2 JUMP JUMPDEST DUP4 ISZERO PUSH2 0xBCD JUMPI PUSH2 0xBCD DUP5 PUSH2 0x1D39 JUMP JUMPDEST DUP1 DUP11 DUP10 PUSH1 0x1 PUSH1 0x1 PUSH1 0xA0 SHL SUB AND PUSH32 0x7F743FB741E07B0C4DAEB2AF54FB3EBFA2BDB31D9913A0E555661C870411AAE5 PUSH1 0x40 MLOAD PUSH1 0x40 MLOAD DUP1 SWAP2 SUB SWAP1 LOG4 PUSH32 0x75F52E89B275BDAED7CEB1586A0C5AC0503A27A09EA92F74DD81DB37FA840282 SELFBALANCE PUSH1 0x40 MLOAD SWAP1 DUP2 MSTORE PUSH1 0x20 ADD PUSH1 0x40 MLOAD DUP1 SWAP2 SUB SWAP1 LOG1 PUSH2 0xC40 PUSH2 0x1DDD JUMP JUMPDEST SWAP10 SWAP9 POP POP POP POP POP POP POP POP POP JUMP JUMPDEST PUSH1 0x60 PUSH1 0x3 DUP1 SLOAD PUSH2 0xC5C SWAP1 PUSH2 0x31A1 JUMP JUMPDEST DUP1 PUSH1 0x1F ADD PUSH1 0x20 DUP1 SWAP2 DIV MUL PUSH1 0x20 ADD PUSH1 0x40 MLOAD SWAP1 DUP2 ADD PUSH1 0x40 MSTORE DUP1 SWAP3 SWAP2 SWAP1 DUP2 DUP2 MSTORE PUSH1 0x20 ADD DUP3 DUP1 SLOAD PUSH2 0xC88 SWAP1 PUSH2 0x31A1 JUMP JUMPDEST DUP1 ISZERO PUSH2 0xCD5 JUMPI DUP1 PUSH1 0x1F LT PUSH2 0xCAA JUMPI PUSH2 0x100 DUP1 DUP4 SLOAD DIV MUL DUP4 MSTORE SWAP2 PUSH1 0x20 ADD SWAP2 PUSH2 0xCD5 JUMP JUMPDEST DUP3 ADD SWAP2 SWAP1 PUSH1 0x0 MSTORE PUSH1 0x20 PUSH1 0x0 KECCAK256 SWAP1 JUMPDEST DUP2 SLOAD DUP2 MSTORE SWAP1 PUSH1 0x1 ADD SWAP1 PUSH1 0x20 ADD DUP1 DUP4 GT PUSH2 0xCB8 JUMPI DUP3 SWAP1 SUB PUSH1 0x1F AND DUP3 ADD SWAP2 JUMPDEST POP POP POP POP POP SWAP1 POP SWAP1 JUMP JUMPDEST PUSH1 0x0 CALLER PUSH2 0xCED DUP2 DUP6 DUP6 PUSH2 0x1EFA JUMP JUMPDEST PUSH1 0x1 SWAP2 POP POP JUMPDEST SWAP3 SWAP2 POP POP JUMP JUMPDEST PUSH1 0x0 DUP1 DUP3 GT PUSH2 0xD07 JUMPI PUSH1 0x0 DUP1 REVERT JUMPDEST PUSH1 0x6 SLOAD PUSH1 0x40 MLOAD PUSH4 0x70A08231 PUSH1 0xE0 SHL DUP2 MSTORE ADDRESS PUSH1 0x4 DUP3 ADD MSTORE PUSH1 0x0 SWAP2 PUSH1 0x1 PUSH1 0x1 PUSH1 0xA0 SHL SUB AND SWAP1 PUSH4 0x70A08231 SWAP1 PUSH1 0x24 ADD PUSH1 0x20 PUSH1 0x40 MLOAD DUP1 DUP4 SUB DUP2 DUP7 GAS STATICCALL ISZERO DUP1 ISZERO PUSH2 0xD50 JUMPI RETURNDATASIZE PUSH1 0x0 DUP1 RETURNDATACOPY RETURNDATASIZE PUSH1 0x0 REVERT JUMPDEST POP POP POP POP PUSH1 0x40 MLOAD RETURNDATASIZE PUSH1 0x1F NOT PUSH1 0x1F DUP3 ADD AND DUP3 ADD DUP1 PUSH1 0x40 MSTORE POP DUP2 ADD SWAP1 PUSH2 0xD74 SWAP2 SWAP1 PUSH2 0x30F8 JUMP JUMPDEST SWAP1 POP PUSH2 0xD81 DUP4 SELFBALANCE DUP4 PUSH2 0x15B9 JUMP JUMPDEST SWAP4 SWAP3 POP POP POP JUMP JUMPDEST PUSH1 0x0 PUSH2 0xD81 DUP4 DUP4 CALLER CALLER PUSH2 0x201F JUMP JUMPDEST PUSH1 0x0 DUP1 DUP3 GT PUSH2 0xDA4 JUMPI PUSH1 0x0 DUP1 REVERT JUMPDEST PUSH1 0x0 DUP1 PUSH2 0xDB0 PUSH1 0x2 SLOAD SWAP1 JUMP JUMPDEST PUSH1 0x6 SLOAD PUSH1 0x40 MLOAD PUSH4 0x70A08231 PUSH1 0xE0 SHL DUP2 MSTORE ADDRESS PUSH1 0x4 DUP3 ADD MSTORE SWAP2 SWAP3 POP SELFBALANCE SWAP2 PUSH1 0x0 SWAP2 PUSH1 0x1 PUSH1 0x1 PUSH1 0xA0 SHL SUB AND SWAP1 PUSH4 0x70A08231 SWAP1 PUSH1 0x24 ADD PUSH1 0x20 PUSH1 0x40 MLOAD DUP1 DUP4 SUB DUP2 DUP7 GAS STATICCALL ISZERO DUP1 ISZERO PUSH2 0xDFE JUMPI RETURNDATASIZE PUSH1 0x0 DUP1 RETURNDATACOPY RETURNDATASIZE PUSH1 0x0 REVERT JUMPDEST POP POP POP POP PUSH1 0x40 MLOAD RETURNDATASIZE PUSH1 0x1F NOT PUSH1 0x1F DUP3 ADD AND DUP3 ADD DUP1 PUSH1 0x40 MSTORE POP DUP2 ADD SWAP1 PUSH2 0xE22 SWAP2 SWAP1 PUSH2 0x30F8 JUMP JUMPDEST SWAP1 POP DUP2 PUSH2 0xE2F DUP3 DUP9 PUSH2 0x3127 JUMP JUMPDEST PUSH2 0xE39 SWAP2 SWAP1 PUSH2 0x3146 JUMP JUMPDEST PUSH2 0xE44 SWAP1 PUSH1 0x1 PUSH2 0x31D6 JUMP JUMPDEST SWAP4 POP PUSH1 0x0 DUP3 PUSH2 0xE53 DUP6 DUP10 PUSH2 0x3127 JUMP JUMPDEST PUSH2 0xE5D SWAP2 SWAP1 PUSH2 0x3146 JUMP JUMPDEST SWAP8 SWAP7 POP POP POP POP POP POP POP JUMP JUMPDEST PUSH1 0x0 PUSH2 0xCF3 DUP3 CALLVALUE CALLER CALLER PUSH2 0x2267 JUMP JUMPDEST PUSH1 0x0 CALLER PUSH2 0xE84 DUP6 DUP3 DUP6 PUSH2 0x24EB JUMP JUMPDEST PUSH2 0xE8F DUP6 DUP6 DUP6 PUSH2 0x257D JUMP JUMPDEST POP PUSH1 0x1 SWAP5 SWAP4 POP POP POP POP JUMP JUMPDEST PUSH1 0x5 SLOAD PUSH1 0x0 SWAP1 PUSH1 0x1 PUSH1 0x1 PUSH1 0xA0 SHL SUB AND CALLER EQ PUSH2 0xEC7 JUMPI PUSH1 0x40 MLOAD PUSH3 0x461BCD PUSH1 0xE5 SHL DUP2 MSTORE PUSH1 0x4 ADD PUSH2 0x9B2 SWAP1 PUSH2 0x31EE JUMP JUMPDEST PUSH1 0x0 JUMPDEST DUP3 MLOAD DUP2 LT ISZERO PUSH2 0xF11 JUMPI PUSH2 0xEF5 DUP4 DUP3 DUP2 MLOAD DUP2 LT PUSH2 0xEE8 JUMPI PUSH2 0xEE8 PUSH2 0x3223 JUMP JUMPDEST PUSH1 0x20 MUL PUSH1 0x20 ADD ADD MLOAD PUSH2 0xF18 JUMP JUMPDEST ISZERO PUSH2 0xEFF JUMPI PUSH1 0x1 SWAP2 POP JUMPDEST DUP1 PUSH2 0xF09 DUP2 PUSH2 0x3239 JUMP JUMPDEST SWAP2 POP POP PUSH2 0xECA JUMP JUMPDEST POP JUMPDEST SWAP2 SWAP1 POP JUMP JUMPDEST PUSH1 0x5 SLOAD PUSH1 0x0 SWAP1 PUSH1 0x1 PUSH1 0x1 PUSH1 0xA0 SHL SUB AND CALLER EQ PUSH2 0xF45 JUMPI PUSH1 0x40 MLOAD PUSH3 0x461BCD PUSH1 0xE5 SHL DUP2 MSTORE PUSH1 0x4 ADD PUSH2 0x9B2 SWAP1 PUSH2 0x31EE JUMP JUMPDEST PUSH1 0x1 PUSH1 0x1 PUSH1 0xA0 SHL SUB DUP3 AND PUSH1 0x0 SWAP1 DUP2 MSTORE PUSH1 0xF PUSH1 0x20 MSTORE PUSH1 0x40 SWAP1 KECCAK256 SLOAD PUSH1 0xFF AND ISZERO PUSH2 0xF13 JUMPI PUSH1 0x1 PUSH1 0x1 PUSH1 0xA0 SHL SUB DUP3 AND PUSH1 0x0 DUP2 DUP2 MSTORE PUSH1 0xF PUSH1 0x20 SWAP1 DUP2 MSTORE PUSH1 0x40 SWAP2 DUP3 SWAP1 KECCAK256 DUP1 SLOAD PUSH1 0xFF NOT AND SWAP1 SSTORE SWAP1 MLOAD SWAP2 DUP3 MSTORE PUSH32 0xF1ABF01A1043B7C244D128E8595CF0C1D10743B022B03A02DFFD8CA3BF729F5A SWAP2 ADD JUMPDEST PUSH1 0x40 MLOAD DUP1 SWAP2 SUB SWAP1 LOG1 POP PUSH1 0x1 SWAP2 SWAP1 POP JUMP JUMPDEST PUSH1 0x0 DUP1 DUP3 GT PUSH2 0xFD1 JUMPI PUSH1 0x0 DUP1 REVERT JUMPDEST PUSH1 0x6 SLOAD PUSH1 0x40 MLOAD PUSH4 0x70A08231 PUSH1 0xE0 SHL DUP2 MSTORE ADDRESS PUSH1 0x4 DUP3 ADD MSTORE PUSH1 0x0 SWAP2 PUSH1 0x1 PUSH1 0x1 PUSH1 0xA0 SHL SUB AND SWAP1 PUSH4 0x70A08231 SWAP1 PUSH1 0x24 ADD PUSH1 0x20 PUSH1 0x40 MLOAD DUP1 DUP4 SUB DUP2 DUP7 GAS STATICCALL ISZERO DUP1 ISZERO PUSH2 0x101A JUMPI RETURNDATASIZE PUSH1 0x0 DUP1 RETURNDATACOPY RETURNDATASIZE PUSH1 0x0 REVERT JUMPDEST POP POP POP POP PUSH1 0x40 MLOAD RETURNDATASIZE PUSH1 0x1F NOT PUSH1 0x1F DUP3 ADD AND DUP3 ADD DUP1 PUSH1 0x40 MSTORE POP DUP2 ADD SWAP1 PUSH2 0x103E SWAP2 SWAP1 PUSH2 0x30F8 JUMP JUMPDEST SWAP1 POP PUSH2 0xD81 DUP4 DUP3 SELFBALANCE PUSH2 0x1CEE JUMP JUMPDEST PUSH1 0x0 DUP1 DUP3 GT PUSH2 0x1059 JUMPI PUSH1 0x0 DUP1 REVERT JUMPDEST PUSH1 0x6 SLOAD PUSH1 0x40 MLOAD PUSH4 0x70A08231 PUSH1 0xE0 SHL DUP2 MSTORE ADDRESS PUSH1 0x4 DUP3 ADD MSTORE PUSH1 0x0 SWAP2 PUSH1 0x1 PUSH1 0x1 PUSH1 0xA0 SHL SUB AND SWAP1 PUSH4 0x70A08231 SWAP1 PUSH1 0x24 ADD PUSH1 0x20 PUSH1 0x40 MLOAD DUP1 DUP4 SUB DUP2 DUP7 GAS STATICCALL ISZERO DUP1 ISZERO PUSH2 0x10A2 JUMPI RETURNDATASIZE PUSH1 0x0 DUP1 RETURNDATACOPY RETURNDATASIZE PUSH1 0x0 REVERT JUMPDEST POP POP POP POP PUSH1 0x40 MLOAD RETURNDATASIZE PUSH1 0x1F NOT PUSH1 0x1F DUP3 ADD AND DUP3 ADD DUP1 PUSH1 0x40 MSTORE POP DUP2 ADD SWAP1 PUSH2 0x10C6 SWAP2 SWAP1 PUSH2 0x30F8 JUMP JUMPDEST SWAP1 POP PUSH1 0x0 PUSH2 0x10D5 DUP5 SELFBALANCE DUP5 PUSH2 0x1CEE JUMP JUMPDEST SWAP5 SWAP4 POP POP POP POP JUMP JUMPDEST CALLER PUSH1 0x0 DUP2 DUP2 MSTORE PUSH1 0x1 PUSH1 0x20 SWAP1 DUP2 MSTORE PUSH1 0x40 DUP1 DUP4 KECCAK256 PUSH1 0x1 PUSH1 0x1 PUSH1 0xA0 SHL SUB DUP8 AND DUP5 MSTORE SWAP1 SWAP2 MSTORE DUP2 KECCAK256 SLOAD SWAP1 SWAP2 SWAP1 PUSH2 0xCED SWAP1 DUP3 SWAP1 DUP7 SWAP1 PUSH2 0x1117 SWAP1 DUP8 SWAP1 PUSH2 0x31D6 JUMP JUMPDEST PUSH2 0x1EFA JUMP JUMPDEST PUSH1 0x0 DUP1 PUSH1 0x0 PUSH2 0x112A PUSH1 0x2 SLOAD SWAP1 JUMP JUMPDEST SWAP1 POP PUSH1 0x0 DUP2 GT PUSH2 0x1139 JUMPI PUSH1 0x0 DUP1 REVERT JUMPDEST PUSH1 0x6 SLOAD PUSH1 0x40 MLOAD PUSH4 0x70A08231 PUSH1 0xE0 SHL DUP2 MSTORE ADDRESS PUSH1 0x4 DUP3 ADD MSTORE PUSH1 0x0 SWAP2 PUSH1 0x1 PUSH1 0x1 PUSH1 0xA0 SHL SUB AND SWAP1 PUSH4 0x70A08231 SWAP1 PUSH1 0x24 ADD PUSH1 0x20 PUSH1 0x40 MLOAD DUP1 DUP4 SUB DUP2 DUP7 GAS STATICCALL ISZERO DUP1 ISZERO PUSH2 0x1182 JUMPI RETURNDATASIZE PUSH1 0x0 DUP1 RETURNDATACOPY RETURNDATASIZE PUSH1 0x0 REVERT JUMPDEST POP POP POP POP PUSH1 0x40 MLOAD RETURNDATASIZE PUSH1 0x1F NOT PUSH1 0x1F DUP3 ADD AND DUP3 ADD DUP1 PUSH1 0x40 MSTORE POP DUP2 ADD SWAP1 PUSH2 0x11A6 SWAP2 SWAP1 PUSH2 0x30F8 JUMP JUMPDEST SWAP1 POP PUSH1 0x0 DUP3 PUSH2 0x11B5 SELFBALANCE DUP9 PUSH2 0x3127 JUMP JUMPDEST PUSH2 0x11BF SWAP2 SWAP1 PUSH2 0x3146 JUMP JUMPDEST SWAP1 POP PUSH1 0x0 DUP4 PUSH2 0x11CE DUP5 DUP10 PUSH2 0x3127 JUMP JUMPDEST PUSH2 0x11D8 SWAP2 SWAP1 PUSH2 0x3146 JUMP JUMPDEST SWAP2 SWAP8 SWAP2 SWAP7 POP SWAP1 SWAP5 POP POP POP POP POP JUMP JUMPDEST PUSH1 0x0 DUP1 DUP3 GT PUSH2 0x1228 JUMPI PUSH1 0x40 MLOAD PUSH3 0x461BCD PUSH1 0xE5 SHL DUP2 MSTORE PUSH1 0x20 PUSH1 0x4 DUP3 ADD MSTORE PUSH1 0xE PUSH1 0x24 DUP3 ADD MSTORE PUSH14 0x746F6B656E20736F6C64203C203 PUSH1 0x94 SHL PUSH1 0x44 DUP3 ADD MSTORE PUSH1 0x64 ADD PUSH2 0x9B2 JUMP JUMPDEST PUSH1 0x6 SLOAD PUSH1 0x40 MLOAD PUSH4 0x70A08231 PUSH1 0xE0 SHL DUP2 MSTORE ADDRESS PUSH1 0x4 DUP3 ADD MSTORE PUSH1 0x0 SWAP2 PUSH1 0x1 PUSH1 0x1 PUSH1 0xA0 SHL SUB AND SWAP1 PUSH4 0x70A08231 SWAP1 PUSH1 0x24 ADD PUSH1 0x20 PUSH1 0x40 MLOAD DUP1 DUP4 SUB DUP2 DUP7 GAS STATICCALL ISZERO DUP1 ISZERO PUSH2 0x1271 JUMPI RETURNDATASIZE PUSH1 0x0 DUP1 RETURNDATACOPY RETURNDATASIZE PUSH1 0x0 REVERT JUMPDEST POP POP POP POP PUSH1 0x40 MLOAD RETURNDATASIZE PUSH1 0x1F NOT PUSH1 0x1F DUP3 ADD AND DUP3 ADD DUP1 PUSH1 0x40 MSTORE POP DUP2 ADD SWAP1 PUSH2 0x1295 SWAP2 SWAP1 PUSH2 0x30F8 JUMP JUMPDEST SWAP1 POP PUSH1 0x0 PUSH2 0x10D5 DUP5 DUP4 SELFBALANCE PUSH2 0x15B9 JUMP JUMPDEST PUSH1 0x5 SLOAD PUSH1 0x1 PUSH1 0x1 PUSH1 0xA0 SHL SUB AND CALLER EQ PUSH2 0x12CE JUMPI PUSH1 0x40 MLOAD PUSH3 0x461BCD PUSH1 0xE5 SHL DUP2 MSTORE PUSH1 0x4 ADD PUSH2 0x9B2 SWAP1 PUSH2 0x31EE JUMP JUMPDEST PUSH2 0x12D8 PUSH1 0x0 PUSH2 0x2739 JUMP JUMPDEST JUMP JUMPDEST PUSH1 0x5 SLOAD PUSH1 0x0 SWAP1 PUSH1 0x1 PUSH1 0x1 PUSH1 0xA0 SHL SUB AND CALLER EQ PUSH2 0x1307 JUMPI PUSH1 0x40 MLOAD PUSH3 0x461BCD PUSH1 0xE5 SHL DUP2 MSTORE PUSH1 0x4 ADD PUSH2 0x9B2 SWAP1 PUSH2 0x31EE JUMP JUMPDEST PUSH1 0x1 PUSH1 0x1 PUSH1 0xA0 SHL SUB DUP3 AND PUSH1 0x0 SWAP1 DUP2 MSTORE PUSH1 0xF PUSH1 0x20 MSTORE PUSH1 0x40 SWAP1 KECCAK256 SLOAD PUSH1 0xFF AND PUSH2 0xF13 JUMPI PUSH1 0x1 PUSH1 0x1 PUSH1 0xA0 SHL SUB DUP3 AND PUSH1 0x0 DUP2 DUP2 MSTORE PUSH1 0xF PUSH1 0x20 SWAP1 DUP2 MSTORE PUSH1 0x40 SWAP2 DUP3 SWAP1 KECCAK256 DUP1 SLOAD PUSH1 0xFF NOT AND PUSH1 0x1 OR SWAP1 SSTORE SWAP1 MLOAD SWAP2 DUP3 MSTORE PUSH32 0xD1BBA68C128CC3F427E5831B3C6F99F480B6EFA6B9E80C757768F6124158CC3F SWAP2 ADD PUSH2 0xFB3 JUMP JUMPDEST PUSH1 0x0 DUP1 PUSH1 0x0 DUP6 GT DUP1 ISZERO PUSH2 0x138E JUMPI POP PUSH1 0x0 DUP5 GT JUMPDEST DUP1 ISZERO PUSH2 0x139A JUMPI POP PUSH1 0x0 DUP4 GT JUMPDEST PUSH2 0x13A3 JUMPI PUSH1 0x0 DUP1 REVERT JUMPDEST PUSH1 0x0 PUSH2 0x13AE PUSH1 0x2 SLOAD SWAP1 JUMP JUMPDEST SWAP1 POP PUSH1 0x0 DUP2 GT PUSH2 0x13BD JUMPI PUSH1 0x0 DUP1 REVERT JUMPDEST PUSH1 0x6 SLOAD PUSH1 0x40 MLOAD PUSH4 0x70A08231 PUSH1 0xE0 SHL DUP2 MSTORE ADDRESS PUSH1 0x4 DUP3 ADD MSTORE PUSH1 0x0 SWAP2 PUSH1 0x1 PUSH1 0x1 PUSH1 0xA0 SHL SUB AND SWAP1 PUSH4 0x70A08231 SWAP1 PUSH1 0x24 ADD PUSH1 0x20 PUSH1 0x40 MLOAD DUP1 DUP4 SUB DUP2 DUP7 GAS STATICCALL ISZERO DUP1 ISZERO PUSH2 0x1406 JUMPI RETURNDATASIZE PUSH1 0x0 DUP1 RETURNDATACOPY RETURNDATASIZE PUSH1 0x0 REVERT JUMPDEST POP POP POP POP PUSH1 0x40 MLOAD RETURNDATASIZE PUSH1 0x1F NOT PUSH1 0x1F DUP3 ADD AND DUP3 ADD DUP1 PUSH1 0x40 MSTORE POP DUP2 ADD SWAP1 PUSH2 0x142A SWAP2 SWAP1 PUSH2 0x30F8 JUMP JUMPDEST SWAP1 POP PUSH1 0x0 DUP3 PUSH2 0x1439 SELFBALANCE DUP11 PUSH2 0x3127 JUMP JUMPDEST PUSH2 0x1443 SWAP2 SWAP1 PUSH2 0x3146 JUMP JUMPDEST SWAP1 POP PUSH1 0x0 DUP4 PUSH2 0x1452 DUP5 DUP12 PUSH2 0x3127 JUMP JUMPDEST PUSH2 0x145C SWAP2 SWAP1 PUSH2 0x3146 JUMP JUMPDEST SWAP1 POP DUP8 DUP3 LT ISZERO DUP1 ISZERO PUSH2 0x146E JUMPI POP DUP7 DUP2 LT ISZERO JUMPDEST PUSH2 0x1477 JUMPI PUSH1 0x0 DUP1 REVERT JUMPDEST PUSH2 0x1481 CALLER DUP11 PUSH2 0x278B JUMP JUMPDEST PUSH1 0x40 MLOAD CALLER SWAP1 DUP4 ISZERO PUSH2 0x8FC MUL SWAP1 DUP5 SWAP1 PUSH1 0x0 DUP2 DUP2 DUP2 DUP6 DUP9 DUP9 CALL SWAP4 POP POP POP POP ISZERO DUP1 ISZERO PUSH2 0x14AE JUMPI RETURNDATASIZE PUSH1 0x0 DUP1 RETURNDATACOPY RETURNDATASIZE PUSH1 0x0 REVERT JUMPDEST POP PUSH1 0x6 SLOAD PUSH1 0x40 MLOAD PUSH4 0xA9059CBB PUSH1 0xE0 SHL DUP2 MSTORE CALLER PUSH1 0x4 DUP3 ADD MSTORE PUSH1 0x24 DUP2 ADD DUP4 SWAP1 MSTORE PUSH1 0x1 PUSH1 0x1 PUSH1 0xA0 SHL SUB SWAP1 SWAP2 AND SWAP1 PUSH4 0xA9059CBB SWAP1 PUSH1 0x44 ADD PUSH1 0x20 PUSH1 0x40 MLOAD DUP1 DUP4 SUB DUP2 PUSH1 0x0 DUP8 GAS CALL ISZERO DUP1 ISZERO PUSH2 0x1500 JUMPI RETURNDATASIZE PUSH1 0x0 DUP1 RETURNDATACOPY RETURNDATASIZE PUSH1 0x0 REVERT JUMPDEST POP POP POP POP PUSH1 0x40 MLOAD RETURNDATASIZE PUSH1 0x1F NOT PUSH1 0x1F DUP3 ADD AND DUP3 ADD DUP1 PUSH1 0x40 MSTORE POP DUP2 ADD SWAP1 PUSH2 0x1524 SWAP2 SWAP1 PUSH2 0x317F JUMP JUMPDEST PUSH2 0x152D JUMPI PUSH1 0x0 DUP1 REVERT JUMPDEST PUSH1 0x40 MLOAD DUP2 SWAP1 DUP4 SWAP1 CALLER SWAP1 PUSH32 0x9985886FA2F848BE5F83E79DF7592ADEBCE0C554283252F12B1C6CA0C1E35093 SWAP1 PUSH1 0x0 SWAP1 LOG4 CALLER PUSH1 0x0 SWAP1 DUP2 MSTORE PUSH1 0x20 DUP2 SWAP1 MSTORE PUSH1 0x40 SWAP1 KECCAK256 SLOAD PUSH1 0x40 MLOAD CALLER SWAP1 PUSH1 0x0 DUP1 MLOAD PUSH1 0x20 PUSH2 0x3279 DUP4 CODECOPY DUP2 MLOAD SWAP2 MSTORE SWAP1 PUSH1 0x0 SWAP1 LOG3 PUSH1 0x40 MLOAD DUP10 DUP2 MSTORE PUSH1 0x0 SWAP1 CALLER SWAP1 PUSH1 0x0 DUP1 MLOAD PUSH1 0x20 PUSH2 0x3299 DUP4 CODECOPY DUP2 MLOAD SWAP2 MSTORE SWAP1 PUSH1 0x20 ADD PUSH1 0x40 MLOAD DUP1 SWAP2 SUB SWAP1 LOG3 SWAP1 SWAP9 SWAP1 SWAP8 POP SWAP6 POP POP POP POP POP POP JUMP JUMPDEST PUSH1 0x0 DUP1 DUP4 GT DUP1 ISZERO PUSH2 0x15CA JUMPI POP PUSH1 0x0 DUP3 GT JUMPDEST PUSH2 0x1606 JUMPI PUSH1 0x40 MLOAD PUSH3 0x461BCD PUSH1 0xE5 SHL DUP2 MSTORE PUSH1 0x20 PUSH1 0x4 DUP3 ADD MSTORE PUSH1 0xD PUSH1 0x24 DUP3 ADD MSTORE PUSH13 0x494E56414C49445F56414C5545 PUSH1 0x98 SHL PUSH1 0x44 DUP3 ADD MSTORE PUSH1 0x64 ADD PUSH2 0x9B2 JUMP JUMPDEST PUSH1 0x0 PUSH2 0x1612 DUP4 DUP7 PUSH2 0x3127 JUMP JUMPDEST SWAP1 POP PUSH1 0x0 PUSH2 0x1620 DUP7 DUP7 PUSH2 0x31D6 JUMP JUMPDEST SWAP1 POP PUSH2 0x162C DUP2 DUP4 PUSH2 0x3146 JUMP JUMPDEST SWAP7 SWAP6 POP POP POP POP POP POP JUMP JUMPDEST PUSH1 0x60 PUSH1 0x4 DUP1 SLOAD PUSH2 0xC5C SWAP1 PUSH2 0x31A1 JUMP JUMPDEST PUSH1 0x0 DUP1 DUP3 GT DUP1 ISZERO PUSH2 0x1656 JUMPI POP PUSH1 0x0 CALLVALUE GT JUMPDEST PUSH2 0x16AE JUMPI PUSH1 0x40 MLOAD PUSH3 0x461BCD PUSH1 0xE5 SHL DUP2 MSTORE PUSH1 0x20 PUSH1 0x4 DUP3 ADD MSTORE PUSH1 0x23 PUSH1 0x24 DUP3 ADD MSTORE PUSH32 0x53776170236164644C69717569646974793A20494E56414C49445F415247554D PUSH1 0x44 DUP3 ADD MSTORE PUSH3 0x115395 PUSH1 0xEA SHL PUSH1 0x64 DUP3 ADD MSTORE PUSH1 0x84 ADD PUSH2 0x9B2 JUMP JUMPDEST PUSH1 0x0 PUSH2 0x16B9 PUSH1 0x2 SLOAD SWAP1 JUMP JUMPDEST CALLER PUSH1 0x0 SWAP1 DUP2 MSTORE PUSH1 0x10 PUSH1 0x20 MSTORE PUSH1 0x40 DUP2 KECCAK256 SLOAD SWAP2 SWAP3 POP SWAP1 PUSH1 0xFF AND PUSH2 0x170A JUMPI CALLER PUSH1 0x0 SWAP1 DUP2 MSTORE PUSH1 0x10 PUSH1 0x20 MSTORE PUSH1 0x40 DUP2 KECCAK256 DUP1 SLOAD PUSH1 0xFF NOT AND PUSH1 0x1 SWAP1 DUP2 OR SWAP1 SWAP2 SSTORE PUSH1 0xE DUP1 SLOAD SWAP2 SWAP3 SWAP1 SWAP2 PUSH2 0x1704 SWAP1 DUP5 SWAP1 PUSH2 0x31D6 JUMP JUMPDEST SWAP1 SWAP2 SSTORE POP POP JUMPDEST DUP2 ISZERO PUSH2 0x1905 JUMPI PUSH1 0x0 DUP6 GT PUSH2 0x171D JUMPI PUSH1 0x0 DUP1 REVERT JUMPDEST PUSH1 0x0 PUSH2 0x1729 CALLVALUE SELFBALANCE PUSH2 0x3168 JUMP JUMPDEST PUSH1 0x6 SLOAD PUSH1 0x40 MLOAD PUSH4 0x70A08231 PUSH1 0xE0 SHL DUP2 MSTORE ADDRESS PUSH1 0x4 DUP3 ADD MSTORE SWAP2 SWAP3 POP PUSH1 0x0 SWAP2 PUSH1 0x1 PUSH1 0x1 PUSH1 0xA0 SHL SUB SWAP1 SWAP2 AND SWAP1 PUSH4 0x70A08231 SWAP1 PUSH1 0x24 ADD PUSH1 0x20 PUSH1 0x40 MLOAD DUP1 DUP4 SUB DUP2 DUP7 GAS STATICCALL ISZERO DUP1 ISZERO PUSH2 0x1777 JUMPI RETURNDATASIZE PUSH1 0x0 DUP1 RETURNDATACOPY RETURNDATASIZE PUSH1 0x0 REVERT JUMPDEST POP POP POP POP PUSH1 0x40 MLOAD RETURNDATASIZE PUSH1 0x1F NOT PUSH1 0x1F DUP3 ADD AND DUP3 ADD DUP1 PUSH1 0x40 MSTORE POP DUP2 ADD SWAP1 PUSH2 0x179B SWAP2 SWAP1 PUSH2 0x30F8 JUMP JUMPDEST SWAP1 POP DUP2 PUSH2 0x17A8 DUP3 CALLVALUE PUSH2 0x3127 JUMP JUMPDEST PUSH2 0x17B2 SWAP2 SWAP1 PUSH2 0x3146 JUMP JUMPDEST PUSH2 0x17BD SWAP1 PUSH1 0x1 PUSH2 0x31D6 JUMP JUMPDEST SWAP3 POP PUSH1 0x0 DUP3 PUSH2 0x17CC DUP7 CALLVALUE PUSH2 0x3127 JUMP JUMPDEST PUSH2 0x17D6 SWAP2 SWAP1 PUSH2 0x3146 JUMP JUMPDEST SWAP1 POP DUP4 DUP8 LT ISZERO DUP1 ISZERO PUSH2 0x17E8 JUMPI POP DUP8 DUP2 LT ISZERO JUMPDEST PUSH2 0x17F1 JUMPI PUSH1 0x0 DUP1 REVERT JUMPDEST PUSH2 0x17FB CALLER DUP3 PUSH2 0x28BF JUMP JUMPDEST PUSH1 0x6 SLOAD PUSH1 0x40 MLOAD PUSH4 0x23B872DD PUSH1 0xE0 SHL DUP2 MSTORE PUSH1 0x1 PUSH1 0x1 PUSH1 0xA0 SHL SUB SWAP1 SWAP2 AND SWAP1 PUSH4 0x23B872DD SWAP1 PUSH2 0x182F SWAP1 CALLER SWAP1 ADDRESS SWAP1 DUP10 SWAP1 PUSH1 0x4 ADD PUSH2 0x3254 JUMP JUMPDEST PUSH1 0x20 PUSH1 0x40 MLOAD DUP1 DUP4 SUB DUP2 PUSH1 0x0 DUP8 GAS CALL ISZERO DUP1 ISZERO PUSH2 0x184E JUMPI RETURNDATASIZE PUSH1 0x0 DUP1 RETURNDATACOPY RETURNDATASIZE PUSH1 0x0 REVERT JUMPDEST POP POP POP POP PUSH1 0x40 MLOAD RETURNDATASIZE PUSH1 0x1F NOT PUSH1 0x1F DUP3 ADD AND DUP3 ADD DUP1 PUSH1 0x40 MSTORE POP DUP2 ADD SWAP1 PUSH2 0x1872 SWAP2 SWAP1 PUSH2 0x317F JUMP JUMPDEST PUSH2 0x187B JUMPI PUSH1 0x0 DUP1 REVERT JUMPDEST PUSH1 0x40 MLOAD DUP5 SWAP1 CALLVALUE SWAP1 CALLER SWAP1 PUSH32 0x6059FEE843FF0198392EEF05D3FD97A79C42B66D197DBFC62EBDF25CF1698444 SWAP1 PUSH1 0x0 SWAP1 LOG4 CALLER PUSH1 0x0 SWAP1 DUP2 MSTORE PUSH1 0x20 DUP2 SWAP1 MSTORE PUSH1 0x40 SWAP1 KECCAK256 SLOAD PUSH1 0x40 MLOAD CALLER SWAP1 PUSH1 0x0 DUP1 MLOAD PUSH1 0x20 PUSH2 0x3279 DUP4 CODECOPY DUP2 MLOAD SWAP2 MSTORE SWAP1 PUSH1 0x0 SWAP1 LOG3 PUSH1 0x40 MLOAD DUP2 DUP2 MSTORE CALLER SWAP1 PUSH1 0x0 SWAP1 PUSH1 0x0 DUP1 MLOAD PUSH1 0x20 PUSH2 0x3299 DUP4 CODECOPY DUP2 MLOAD SWAP2 MSTORE SWAP1 PUSH1 0x20 ADD PUSH1 0x40 MLOAD DUP1 SWAP2 SUB SWAP1 LOG3 SWAP5 POP PUSH2 0xCF3 SWAP4 POP POP POP POP JUMP JUMPDEST PUSH8 0xDE0B6B3A7640000 CALLVALUE LT ISZERO PUSH2 0x194D JUMPI PUSH1 0x40 MLOAD PUSH3 0x461BCD PUSH1 0xE5 SHL DUP2 MSTORE PUSH1 0x20 PUSH1 0x4 DUP3 ADD MSTORE PUSH1 0xD PUSH1 0x24 DUP3 ADD MSTORE PUSH13 0x494E56414C49445F56414C5545 PUSH1 0x98 SHL PUSH1 0x44 DUP3 ADD MSTORE PUSH1 0x64 ADD PUSH2 0x9B2 JUMP JUMPDEST POP DUP3 SELFBALANCE PUSH2 0x195A CALLER DUP3 PUSH2 0x28BF JUMP JUMPDEST PUSH1 0x6 SLOAD PUSH1 0x40 MLOAD PUSH4 0x23B872DD PUSH1 0xE0 SHL DUP2 MSTORE PUSH1 0x1 PUSH1 0x1 PUSH1 0xA0 SHL SUB SWAP1 SWAP2 AND SWAP1 PUSH4 0x23B872DD SWAP1 PUSH2 0x198E SWAP1 CALLER SWAP1 ADDRESS SWAP1 DUP8 SWAP1 PUSH1 0x4 ADD PUSH2 0x3254 JUMP JUMPDEST PUSH1 0x20 PUSH1 0x40 MLOAD DUP1 DUP4 SUB DUP2 PUSH1 0x0 DUP8 GAS CALL ISZERO DUP1 ISZERO PUSH2 0x19AD JUMPI RETURNDATASIZE PUSH1 0x0 DUP1 RETURNDATACOPY RETURNDATASIZE PUSH1 0x0 REVERT JUMPDEST POP POP POP POP PUSH1 0x40 MLOAD RETURNDATASIZE PUSH1 0x1F NOT PUSH1 0x1F DUP3 ADD AND DUP3 ADD DUP1 PUSH1 0x40 MSTORE POP DUP2 ADD SWAP1 PUSH2 0x19D1 SWAP2 SWAP1 PUSH2 0x317F JUMP JUMPDEST PUSH2 0x19DA JUMPI PUSH1 0x0 DUP1 REVERT JUMPDEST PUSH1 0x40 MLOAD DUP3 SWAP1 CALLVALUE SWAP1 CALLER SWAP1 PUSH32 0x6059FEE843FF0198392EEF05D3FD97A79C42B66D197DBFC62EBDF25CF1698444 SWAP1 PUSH1 0x0 SWAP1 LOG4 CALLER PUSH1 0x0 SWAP1 DUP2 MSTORE PUSH1 0x20 DUP2 SWAP1 MSTORE PUSH1 0x40 SWAP1 KECCAK256 SLOAD PUSH1 0x40 MLOAD CALLER SWAP1 PUSH1 0x0 DUP1 MLOAD PUSH1 0x20 PUSH2 0x3279 DUP4 CODECOPY DUP2 MLOAD SWAP2 MSTORE SWAP1 PUSH1 0x0 SWAP1 LOG3 PUSH1 0x40 MLOAD DUP2 DUP2 MSTORE CALLER SWAP1 PUSH1 0x0 SWAP1 PUSH1 0x0 DUP1 MLOAD PUSH1 0x20 PUSH2 0x3299 DUP4 CODECOPY DUP2 MLOAD SWAP2 MSTORE SWAP1 PUSH1 0x20 ADD PUSH1 0x40 MLOAD DUP1 SWAP2 SUB SWAP1 LOG3 SWAP3 POP PUSH2 0xCF3 SWAP2 POP POP JUMP JUMPDEST PUSH1 0x6 SLOAD PUSH1 0x40 MLOAD PUSH4 0x70A08231 PUSH1 0xE0 SHL DUP2 MSTORE ADDRESS PUSH1 0x4 DUP3 ADD MSTORE PUSH1 0x0 SWAP2 PUSH1 0x1 PUSH1 0x1 PUSH1 0xA0 SHL SUB AND SWAP1 PUSH4 0x70A08231 SWAP1 PUSH1 0x24 ADD PUSH1 0x20 PUSH1 0x40 MLOAD DUP1 DUP4 SUB DUP2 DUP7 GAS STATICCALL ISZERO DUP1 ISZERO PUSH2 0x1AAB JUMPI RETURNDATASIZE PUSH1 0x0 DUP1 RETURNDATACOPY RETURNDATASIZE PUSH1 0x0 REVERT JUMPDEST POP POP POP POP PUSH1 0x40 MLOAD RETURNDATASIZE PUSH1 0x1F NOT PUSH1 0x1F DUP3 ADD AND DUP3 ADD DUP1 PUSH1 0x40 MSTORE POP DUP2 ADD SWAP1 PUSH2 0x1ACF SWAP2 SWAP1 PUSH2 0x30F8 JUMP JUMPDEST SWAP1 POP SWAP1 JUMP JUMPDEST PUSH1 0x5 SLOAD PUSH1 0x1 PUSH1 0x1 PUSH1 0xA0 SHL SUB AND CALLER EQ PUSH2 0x1AFE JUMPI PUSH1 0x40 MLOAD PUSH3 0x461BCD PUSH1 0xE5 SHL DUP2 MSTORE PUSH1 0x4 ADD PUSH2 0x9B2 SWAP1 PUSH2 0x31EE JUMP JUMPDEST PUSH1 0x7 DUP1 SLOAD PUSH1 0x1 PUSH1 0x1 PUSH1 0xA0 SHL SUB NOT AND PUSH1 0x1 PUSH1 0x1 PUSH1 0xA0 SHL SUB SWAP3 SWAP1 SWAP3 AND SWAP2 SWAP1 SWAP2 OR SWAP1 SSTORE JUMP JUMPDEST CALLER PUSH1 0x0 DUP2 DUP2 MSTORE PUSH1 0x1 PUSH1 0x20 SWAP1 DUP2 MSTORE PUSH1 0x40 DUP1 DUP4 KECCAK256 PUSH1 0x1 PUSH1 0x1 PUSH1 0xA0 SHL SUB DUP8 AND DUP5 MSTORE SWAP1 SWAP2 MSTORE DUP2 KECCAK256 SLOAD SWAP1 SWAP2 SWAP1 DUP4 DUP2 LT ISZERO PUSH2 0x1BA5 JUMPI PUSH1 0x40 MLOAD PUSH3 0x461BCD PUSH1 0xE5 SHL DUP2 MSTORE PUSH1 0x20 PUSH1 0x4 DUP3 ADD MSTORE PUSH1 0x25 PUSH1 0x24 DUP3 ADD MSTORE PUSH32 0x45524332303A2064656372656173656420616C6C6F77616E63652062656C6F77 PUSH1 0x44 DUP3 ADD MSTORE PUSH5 0x207A65726F PUSH1 0xD8 SHL PUSH1 0x64 DUP3 ADD MSTORE PUSH1 0x84 ADD PUSH2 0x9B2 JUMP JUMPDEST PUSH2 0xE8F DUP3 DUP7 DUP7 DUP5 SUB PUSH2 0x1EFA JUMP JUMPDEST PUSH1 0x0 CALLER PUSH2 0xCED DUP2 DUP6 DUP6 PUSH2 0x257D JUMP JUMPDEST PUSH1 0x0 PUSH2 0xCF3 CALLVALUE DUP4 CALLER CALLER PUSH2 0x968 JUMP JUMPDEST PUSH1 0x5 SLOAD PUSH1 0x0 SWAP1 PUSH1 0x1 PUSH1 0x1 PUSH1 0xA0 SHL SUB AND CALLER EQ PUSH2 0x1BFB JUMPI PUSH1 0x40 MLOAD PUSH3 0x461BCD PUSH1 0xE5 SHL DUP2 MSTORE PUSH1 0x4 ADD PUSH2 0x9B2 SWAP1 PUSH2 0x31EE JUMP JUMPDEST PUSH1 0x0 JUMPDEST DUP3 MLOAD DUP2 LT ISZERO PUSH2 0xF11 JUMPI PUSH2 0x1C29 DUP4 DUP3 DUP2 MLOAD DUP2 LT PUSH2 0x1C1C JUMPI PUSH2 0x1C1C PUSH2 0x3223 JUMP JUMPDEST PUSH1 0x20 MUL PUSH1 0x20 ADD ADD MLOAD PUSH2 0x12DA JUMP JUMPDEST ISZERO PUSH2 0x1C33 JUMPI PUSH1 0x1 SWAP2 POP JUMPDEST DUP1 PUSH2 0x1C3D DUP2 PUSH2 0x3239 JUMP JUMPDEST SWAP2 POP POP PUSH2 0x1BFE JUMP JUMPDEST PUSH1 0x5 SLOAD PUSH1 0x1 PUSH1 0x1 PUSH1 0xA0 SHL SUB AND CALLER EQ PUSH2 0x1C6F JUMPI PUSH1 0x40 MLOAD PUSH3 0x461BCD PUSH1 0xE5 SHL DUP2 MSTORE PUSH1 0x4 ADD PUSH2 0x9B2 SWAP1 PUSH2 0x31EE JUMP JUMPDEST PUSH1 0x1 PUSH1 0x1 PUSH1 0xA0 SHL SUB DUP2 AND PUSH2 0x1CD4 JUMPI PUSH1 0x40 MLOAD PUSH3 0x461BCD PUSH1 0xE5 SHL DUP2 MSTORE PUSH1 0x20 PUSH1 0x4 DUP3 ADD MSTORE PUSH1 0x26 PUSH1 0x24 DUP3 ADD MSTORE PUSH32 0x4F776E61626C653A206E6577206F776E657220697320746865207A65726F2061 PUSH1 0x44 DUP3 ADD MSTORE PUSH6 0x646472657373 PUSH1 0xD0 SHL PUSH1 0x64 DUP3 ADD MSTORE PUSH1 0x84 ADD PUSH2 0x9B2 JUMP JUMPDEST PUSH2 0x1CDD DUP2 PUSH2 0x2739 JUMP JUMPDEST POP JUMP JUMPDEST PUSH1 0x0 PUSH2 0xD81 DUP4 DUP4 CALLER CALLER PUSH2 0x298C JUMP JUMPDEST PUSH1 0x0 DUP1 DUP4 GT DUP1 ISZERO PUSH2 0x1CFF JUMPI POP PUSH1 0x0 DUP3 GT JUMPDEST PUSH2 0x1D08 JUMPI PUSH1 0x0 DUP1 REVERT JUMPDEST PUSH1 0x0 PUSH2 0x1D14 DUP6 DUP6 PUSH2 0x3127 JUMP JUMPDEST SWAP1 POP PUSH1 0x0 PUSH2 0x1D22 DUP7 DUP6 PUSH2 0x3168 JUMP JUMPDEST SWAP1 POP PUSH2 0x1D2E DUP2 DUP4 PUSH2 0x3146 JUMP JUMPDEST PUSH2 0x162C SWAP1 PUSH1 0x1 PUSH2 0x31D6 JUMP JUMPDEST PUSH1 0x0 DUP2 GT PUSH2 0x1D46 JUMPI PUSH1 0x0 DUP1 REVERT JUMPDEST PUSH1 0x8 SLOAD PUSH1 0x40 MLOAD PUSH1 0x0 SWAP2 PUSH1 0x1 PUSH1 0x1 PUSH1 0xA0 SHL SUB AND SWAP1 DUP4 SWAP1 DUP4 DUP2 DUP2 DUP2 DUP6 DUP8 GAS CALL SWAP3 POP POP POP RETURNDATASIZE DUP1 PUSH1 0x0 DUP2 EQ PUSH2 0x1D93 JUMPI PUSH1 0x40 MLOAD SWAP2 POP PUSH1 0x1F NOT PUSH1 0x3F RETURNDATASIZE ADD AND DUP3 ADD PUSH1 0x40 MSTORE RETURNDATASIZE DUP3 MSTORE RETURNDATASIZE PUSH1 0x0 PUSH1 0x20 DUP5 ADD RETURNDATACOPY PUSH2 0x1D98 JUMP JUMPDEST PUSH1 0x60 SWAP2 POP JUMPDEST POP POP SWAP1 POP DUP1 PUSH2 0x1DA6 JUMPI PUSH1 0x0 DUP1 REVERT JUMPDEST PUSH1 0x40 MLOAD DUP3 DUP2 MSTORE PUSH32 0xC328594CAB3A117E8DDF861647E12C326EB6FA98AB8F707982AD7A13E8264C7C SWAP1 PUSH1 0x20 ADD PUSH1 0x40 MLOAD DUP1 SWAP2 SUB SWAP1 LOG1 POP POP JUMP JUMPDEST PUSH1 0x0 PUSH2 0x1DF0 PUSH8 0xDE0B6B3A7640000 PUSH2 0x104B JUMP JUMPDEST PUSH1 0xD SLOAD PUSH1 0xC SLOAD SWAP2 SWAP3 POP SELFBALANCE SWAP2 PUSH2 0x1E05 SWAP1 TIMESTAMP PUSH2 0x3168 JUMP JUMPDEST GT ISZERO PUSH2 0x1E53 JUMPI PUSH32 0xAFFEBBDD31C6253AE2EA132D4A132D79B3AD07ED2720B51749AA97330A7BDB13 PUSH2 0x1E37 DUP3 PUSH1 0x2 PUSH2 0x3127 JUMP JUMPDEST PUSH1 0x40 DUP1 MLOAD SWAP2 DUP3 MSTORE PUSH1 0x20 DUP3 ADD DUP6 SWAP1 MSTORE ADD PUSH1 0x40 MLOAD DUP1 SWAP2 SUB SWAP1 LOG1 TIMESTAMP PUSH1 0xC SSTORE JUMPDEST PUSH1 0x40 MLOAD DUP2 DUP2 MSTORE PUSH32 0x75F52E89B275BDAED7CEB1586A0C5AC0503A27A09EA92F74DD81DB37FA840282 SWAP1 PUSH1 0x20 ADD PUSH1 0x40 MLOAD DUP1 SWAP2 SUB SWAP1 LOG1 PUSH1 0x40 MLOAD DUP3 DUP2 MSTORE PUSH32 0x26632EDB369F47EB451A281FAD73CA0A52CFA3109E457A64524535839486AC6D SWAP1 PUSH1 0x20 ADD PUSH1 0x40 MLOAD DUP1 SWAP2 SUB SWAP1 LOG1 PUSH1 0x1 PUSH1 0xB PUSH1 0x0 DUP3 DUP3 SLOAD PUSH2 0x1ECC SWAP2 SWAP1 PUSH2 0x31D6 JUMP JUMPDEST SWAP1 SWAP2 SSTORE POP POP CALLER PUSH1 0x0 SWAP1 DUP2 MSTORE PUSH1 0x11 PUSH1 0x20 MSTORE PUSH1 0x40 DUP2 KECCAK256 DUP1 SLOAD PUSH1 0x1 SWAP3 SWAP1 PUSH2 0x1EF1 SWAP1 DUP5 SWAP1 PUSH2 0x31D6 JUMP JUMPDEST SWAP1 SWAP2 SSTORE POP POP POP POP JUMP JUMPDEST PUSH1 0x1 PUSH1 0x1 PUSH1 0xA0 SHL SUB DUP4 AND PUSH2 0x1F5C JUMPI PUSH1 0x40 MLOAD PUSH3 0x461BCD PUSH1 0xE5 SHL DUP2 MSTORE PUSH1 0x20 PUSH1 0x4 DUP3 ADD MSTORE PUSH1 0x24 DUP1 DUP3 ADD MSTORE PUSH32 0x45524332303A20617070726F76652066726F6D20746865207A65726F20616464 PUSH1 0x44 DUP3 ADD MSTORE PUSH4 0x72657373 PUSH1 0xE0 SHL PUSH1 0x64 DUP3 ADD MSTORE PUSH1 0x84 ADD PUSH2 0x9B2 JUMP JUMPDEST PUSH1 0x1 PUSH1 0x1 PUSH1 0xA0 SHL SUB DUP3 AND PUSH2 0x1FBD JUMPI PUSH1 0x40 MLOAD PUSH3 0x461BCD PUSH1 0xE5 SHL DUP2 MSTORE PUSH1 0x20 PUSH1 0x4 DUP3 ADD MSTORE PUSH1 0x22 PUSH1 0x24 DUP3 ADD MSTORE PUSH32 0x45524332303A20617070726F766520746F20746865207A65726F206164647265 PUSH1 0x44 DUP3 ADD MSTORE PUSH2 0x7373 PUSH1 0xF0 SHL PUSH1 0x64 DUP3 ADD MSTORE PUSH1 0x84 ADD PUSH2 0x9B2 JUMP JUMPDEST PUSH1 0x1 PUSH1 0x1 PUSH1 0xA0 SHL SUB DUP4 DUP2 AND PUSH1 0x0 DUP2 DUP2 MSTORE PUSH1 0x1 PUSH1 0x20 SWAP1 DUP2 MSTORE PUSH1 0x40 DUP1 DUP4 KECCAK256 SWAP5 DUP8 AND DUP1 DUP5 MSTORE SWAP5 DUP3 MSTORE SWAP2 DUP3 SWAP1 KECCAK256 DUP6 SWAP1 SSTORE SWAP1 MLOAD DUP5 DUP2 MSTORE PUSH32 0x8C5BE1E5EBEC7D5BD14F71427D1E84F3DD0314C0F7B2291E5B200AC8C7C3B925 SWAP2 ADD JUMPDEST PUSH1 0x40 MLOAD DUP1 SWAP2 SUB SWAP1 LOG3 POP POP POP JUMP JUMPDEST PUSH1 0x0 DUP1 DUP6 GT PUSH2 0x202D JUMPI PUSH1 0x0 DUP1 REVERT JUMPDEST PUSH1 0x6 SLOAD PUSH1 0x40 MLOAD PUSH4 0x70A08231 PUSH1 0xE0 SHL DUP2 MSTORE ADDRESS PUSH1 0x4 DUP3 ADD MSTORE PUSH1 0x0 SWAP2 PUSH1 0x1 PUSH1 0x1 PUSH1 0xA0 SHL SUB AND SWAP1 PUSH4 0x70A08231 SWAP1 PUSH1 0x24 ADD PUSH1 0x20 PUSH1 0x40 MLOAD DUP1 DUP4 SUB DUP2 DUP7 GAS STATICCALL ISZERO DUP1 ISZERO PUSH2 0x2076 JUMPI RETURNDATASIZE PUSH1 0x0 DUP1 RETURNDATACOPY RETURNDATASIZE PUSH1 0x0 REVERT JUMPDEST POP POP POP POP PUSH1 0x40 MLOAD RETURNDATASIZE PUSH1 0x1F NOT PUSH1 0x1F DUP3 ADD AND DUP3 ADD DUP1 PUSH1 0x40 MSTORE POP DUP2 ADD SWAP1 PUSH2 0x209A SWAP2 SWAP1 PUSH2 0x30F8 JUMP JUMPDEST SWAP1 POP SELFBALANCE PUSH1 0x0 PUSH2 0x20AA DUP9 DUP5 DUP5 PUSH2 0x1CEE JUMP JUMPDEST SWAP1 POP PUSH1 0x0 DUP2 DUP9 LT ISZERO PUSH2 0x20F4 JUMPI PUSH1 0x40 MLOAD PUSH3 0x461BCD PUSH1 0xE5 SHL DUP2 MSTORE PUSH1 0x20 PUSH1 0x4 DUP3 ADD MSTORE PUSH1 0x13 PUSH1 0x24 DUP3 ADD MSTORE PUSH19 0x1B585E081D1BDAD95B9CC8195E18D959591959 PUSH1 0x6A SHL PUSH1 0x44 DUP3 ADD MSTORE PUSH1 0x64 ADD PUSH2 0x9B2 JUMP JUMPDEST PUSH1 0x1 PUSH1 0x1 PUSH1 0xA0 SHL SUB DUP8 AND PUSH1 0x0 SWAP1 DUP2 MSTORE PUSH1 0xF PUSH1 0x20 MSTORE PUSH1 0x40 SWAP1 KECCAK256 SLOAD PUSH1 0xFF AND DUP1 ISZERO PUSH2 0x2134 JUMPI POP PUSH1 0x1 PUSH1 0x1 PUSH1 0xA0 SHL SUB DUP7 AND PUSH1 0x0 SWAP1 DUP2 MSTORE PUSH1 0xF PUSH1 0x20 MSTORE PUSH1 0x40 SWAP1 KECCAK256 SLOAD PUSH1 0xFF AND JUMPDEST ISZERO PUSH2 0x2140 JUMPI POP DUP1 PUSH2 0x2164 JUMP JUMPDEST PUSH1 0x52 PUSH2 0x214D DUP4 PUSH1 0x64 PUSH2 0x3127 JUMP JUMPDEST PUSH2 0x2157 SWAP2 SWAP1 PUSH2 0x3146 JUMP JUMPDEST SWAP1 POP PUSH2 0x2164 DUP10 DUP3 DUP6 PUSH2 0x2BA7 JUMP JUMPDEST PUSH1 0x40 MLOAD PUSH1 0x1 PUSH1 0x1 PUSH1 0xA0 SHL SUB DUP8 AND SWAP1 DUP11 ISZERO PUSH2 0x8FC MUL SWAP1 DUP12 SWAP1 PUSH1 0x0 DUP2 DUP2 DUP2 DUP6 DUP9 DUP9 CALL SWAP4 POP POP POP POP ISZERO DUP1 ISZERO PUSH2 0x219A JUMPI RETURNDATASIZE PUSH1 0x0 DUP1 RETURNDATACOPY RETURNDATASIZE PUSH1 0x0 REVERT JUMPDEST POP PUSH1 0x6 SLOAD PUSH1 0x40 MLOAD PUSH4 0x23B872DD PUSH1 0xE0 SHL DUP2 MSTORE PUSH1 0x1 PUSH1 0x1 PUSH1 0xA0 SHL SUB SWAP1 SWAP2 AND SWAP1 PUSH4 0x23B872DD SWAP1 PUSH2 0x21CF SWAP1 DUP11 SWAP1 ADDRESS SWAP1 DUP7 SWAP1 PUSH1 0x4 ADD PUSH2 0x3254 JUMP JUMPDEST PUSH1 0x20 PUSH1 0x40 MLOAD DUP1 DUP4 SUB DUP2 PUSH1 0x0 DUP8 GAS CALL ISZERO DUP1 ISZERO PUSH2 0x21EE JUMPI RETURNDATASIZE PUSH1 0x0 DUP1 RETURNDATACOPY RETURNDATASIZE PUSH1 0x0 REVERT JUMPDEST POP POP POP POP PUSH1 0x40 MLOAD RETURNDATASIZE PUSH1 0x1F NOT PUSH1 0x1F DUP3 ADD AND DUP3 ADD DUP1 PUSH1 0x40 MSTORE POP DUP2 ADD SWAP1 PUSH2 0x2212 SWAP2 SWAP1 PUSH2 0x317F JUMP JUMPDEST PUSH2 0x221B JUMPI PUSH1 0x0 DUP1 REVERT JUMPDEST DUP9 DUP2 DUP9 PUSH1 0x1 PUSH1 0x1 PUSH1 0xA0 SHL SUB AND PUSH32 0x3CC32B807E0E6ADE29DEFE751A1339A43C1E45D7D18ECA93A916CA060EBE89EA PUSH1 0x40 MLOAD PUSH1 0x40 MLOAD DUP1 SWAP2 SUB SWAP1 LOG4 PUSH2 0x225B PUSH2 0x1DDD JUMP JUMPDEST SWAP9 SWAP8 POP POP POP POP POP POP POP POP JUMP JUMPDEST PUSH1 0x0 DUP1 DUP6 GT DUP1 ISZERO PUSH2 0x2278 JUMPI POP PUSH1 0x0 DUP5 GT JUMPDEST PUSH2 0x2281 JUMPI PUSH1 0x0 DUP1 REVERT JUMPDEST PUSH1 0x6 SLOAD PUSH1 0x40 MLOAD PUSH4 0x70A08231 PUSH1 0xE0 SHL DUP2 MSTORE ADDRESS PUSH1 0x4 DUP3 ADD MSTORE PUSH1 0x0 SWAP2 DUP3 SWAP2 DUP3 SWAP2 PUSH1 0x1 PUSH1 0x1 PUSH1 0xA0 SHL SUB AND SWAP1 PUSH4 0x70A08231 SWAP1 PUSH1 0x24 ADD PUSH1 0x20 PUSH1 0x40 MLOAD DUP1 DUP4 SUB DUP2 DUP7 GAS STATICCALL ISZERO DUP1 ISZERO PUSH2 0x22CE JUMPI RETURNDATASIZE PUSH1 0x0 DUP1 RETURNDATACOPY RETURNDATASIZE PUSH1 0x0 REVERT JUMPDEST POP POP POP POP PUSH1 0x40 MLOAD RETURNDATASIZE PUSH1 0x1F NOT PUSH1 0x1F DUP3 ADD AND DUP3 ADD DUP1 PUSH1 0x40 MSTORE POP DUP2 ADD SWAP1 PUSH2 0x22F2 SWAP2 SWAP1 PUSH2 0x30F8 JUMP JUMPDEST SWAP1 POP SELFBALANCE PUSH1 0x0 PUSH2 0x230B DUP11 PUSH2 0x2305 DUP12 DUP6 PUSH2 0x3168 JUMP JUMPDEST DUP6 PUSH2 0x1CEE JUMP JUMPDEST PUSH1 0x1 PUSH1 0x1 PUSH1 0xA0 SHL SUB DUP10 AND PUSH1 0x0 SWAP1 DUP2 MSTORE PUSH1 0xF PUSH1 0x20 MSTORE PUSH1 0x40 SWAP1 KECCAK256 SLOAD SWAP1 SWAP2 POP PUSH1 0xFF AND DUP1 ISZERO PUSH2 0x234E JUMPI POP PUSH1 0x1 PUSH1 0x1 PUSH1 0xA0 SHL SUB DUP8 AND PUSH1 0x0 SWAP1 DUP2 MSTORE PUSH1 0xF PUSH1 0x20 MSTORE PUSH1 0x40 SWAP1 KECCAK256 SLOAD PUSH1 0xFF AND JUMPDEST ISZERO PUSH2 0x235B JUMPI DUP1 SWAP5 POP PUSH2 0x238E JUMP JUMPDEST PUSH1 0x61 PUSH2 0x2368 DUP3 PUSH1 0x64 PUSH2 0x3127 JUMP JUMPDEST PUSH2 0x2372 SWAP2 SWAP1 PUSH2 0x3146 JUMP JUMPDEST SWAP5 POP PUSH1 0x64 PUSH2 0x2381 DUP7 PUSH1 0x3 PUSH2 0x3127 JUMP JUMPDEST PUSH2 0x238B SWAP2 SWAP1 PUSH2 0x3146 JUMP JUMPDEST SWAP4 POP JUMPDEST PUSH1 0x0 PUSH2 0x239A DUP7 DUP12 PUSH2 0x3168 JUMP JUMPDEST SWAP1 POP DUP1 ISZERO PUSH2 0x23DA JUMPI PUSH1 0x40 MLOAD PUSH1 0x1 PUSH1 0x1 PUSH1 0xA0 SHL SUB DUP11 AND SWAP1 DUP3 ISZERO PUSH2 0x8FC MUL SWAP1 DUP4 SWAP1 PUSH1 0x0 DUP2 DUP2 DUP2 DUP6 DUP9 DUP9 CALL SWAP4 POP POP POP POP ISZERO DUP1 ISZERO PUSH2 0x23D8 JUMPI RETURNDATASIZE PUSH1 0x0 DUP1 RETURNDATACOPY RETURNDATASIZE PUSH1 0x0 REVERT JUMPDEST POP JUMPDEST PUSH1 0x6 SLOAD PUSH1 0x40 MLOAD PUSH4 0xA9059CBB PUSH1 0xE0 SHL DUP2 MSTORE PUSH1 0x1 PUSH1 0x1 PUSH1 0xA0 SHL SUB DUP11 DUP2 AND PUSH1 0x4 DUP4 ADD MSTORE PUSH1 0x24 DUP3 ADD DUP15 SWAP1 MSTORE SWAP1 SWAP2 AND SWAP1 PUSH4 0xA9059CBB SWAP1 PUSH1 0x44 ADD PUSH1 0x20 PUSH1 0x40 MLOAD DUP1 DUP4 SUB DUP2 PUSH1 0x0 DUP8 GAS CALL ISZERO DUP1 ISZERO PUSH2 0x242D JUMPI RETURNDATASIZE PUSH1 0x0 DUP1 RETURNDATACOPY RETURNDATASIZE PUSH1 0x0 REVERT JUMPDEST POP POP POP POP PUSH1 0x40 MLOAD RETURNDATASIZE PUSH1 0x1F NOT PUSH1 0x1F DUP3 ADD AND DUP3 ADD DUP1 PUSH1 0x40 MSTORE POP DUP2 ADD SWAP1 PUSH2 0x2451 SWAP2 SWAP1 PUSH2 0x317F JUMP JUMPDEST PUSH2 0x245A JUMPI PUSH1 0x0 DUP1 REVERT JUMPDEST DUP5 ISZERO PUSH2 0x2469 JUMPI PUSH2 0x2469 DUP6 PUSH2 0x1D39 JUMP JUMPDEST DUP11 DUP7 DUP11 PUSH1 0x1 PUSH1 0x1 PUSH1 0xA0 SHL SUB AND PUSH32 0x7F743FB741E07B0C4DAEB2AF54FB3EBFA2BDB31D9913A0E555661C870411AAE5 PUSH1 0x40 MLOAD PUSH1 0x40 MLOAD DUP1 SWAP2 SUB SWAP1 LOG4 PUSH1 0x40 MLOAD DUP6 DUP2 MSTORE PUSH32 0xC328594CAB3A117E8DDF861647E12C326EB6FA98AB8F707982AD7A13E8264C7C SWAP1 PUSH1 0x20 ADD PUSH1 0x40 MLOAD DUP1 SWAP2 SUB SWAP1 LOG1 PUSH2 0x24DC PUSH2 0x1DDD JUMP JUMPDEST POP SWAP4 SWAP10 SWAP9 POP POP POP POP POP POP POP POP POP JUMP JUMPDEST PUSH1 0x1 PUSH1 0x1 PUSH1 0xA0 SHL SUB DUP4 DUP2 AND PUSH1 0x0 SWAP1 DUP2 MSTORE PUSH1 0x1 PUSH1 0x20 SWAP1 DUP2 MSTORE PUSH1 0x40 DUP1 DUP4 KECCAK256 SWAP4 DUP7 AND DUP4 MSTORE SWAP3 SWAP1 MSTORE KECCAK256 SLOAD PUSH1 0x0 NOT DUP2 EQ PUSH2 0x2577 JUMPI DUP2 DUP2 LT ISZERO PUSH2 0x256A JUMPI PUSH1 0x40 MLOAD PUSH3 0x461BCD PUSH1 0xE5 SHL DUP2 MSTORE PUSH1 0x20 PUSH1 0x4 DUP3 ADD MSTORE PUSH1 0x1D PUSH1 0x24 DUP3 ADD MSTORE PUSH32 0x45524332303A20696E73756666696369656E7420616C6C6F77616E6365000000 PUSH1 0x44 DUP3 ADD MSTORE PUSH1 0x64 ADD PUSH2 0x9B2 JUMP JUMPDEST PUSH2 0x2577 DUP5 DUP5 DUP5 DUP5 SUB PUSH2 0x1EFA JUMP JUMPDEST POP POP POP POP JUMP JUMPDEST PUSH1 0x1 PUSH1 0x1 PUSH1 0xA0 SHL SUB DUP4 AND PUSH2 0x25E1 JUMPI PUSH1 0x40 MLOAD PUSH3 0x461BCD PUSH1 0xE5 SHL DUP2 MSTORE PUSH1 0x20 PUSH1 0x4 DUP3 ADD MSTORE PUSH1 0x25 PUSH1 0x24 DUP3 ADD MSTORE PUSH32 0x45524332303A207472616E736665722066726F6D20746865207A65726F206164 PUSH1 0x44 DUP3 ADD MSTORE PUSH5 0x6472657373 PUSH1 0xD8 SHL PUSH1 0x64 DUP3 ADD MSTORE PUSH1 0x84 ADD PUSH2 0x9B2 JUMP JUMPDEST PUSH1 0x1 PUSH1 0x1 PUSH1 0xA0 SHL SUB DUP3 AND PUSH2 0x2643 JUMPI PUSH1 0x40 MLOAD PUSH3 0x461BCD PUSH1 0xE5 SHL DUP2 MSTORE PUSH1 0x20 PUSH1 0x4 DUP3 ADD MSTORE PUSH1 0x23 PUSH1 0x24 DUP3 ADD MSTORE PUSH32 0x45524332303A207472616E7366657220746F20746865207A65726F2061646472 PUSH1 0x44 DUP3 ADD MSTORE PUSH3 0x657373 PUSH1 0xE8 SHL PUSH1 0x64 DUP3 ADD MSTORE PUSH1 0x84 ADD PUSH2 0x9B2 JUMP JUMPDEST PUSH1 0x1 PUSH1 0x1 PUSH1 0xA0 SHL SUB DUP4 AND PUSH1 0x0 SWAP1 DUP2 MSTORE PUSH1 0x20 DUP2 SWAP1 MSTORE PUSH1 0x40 SWAP1 KECCAK256 SLOAD DUP2 DUP2 LT ISZERO PUSH2 0x26BB JUMPI PUSH1 0x40 MLOAD PUSH3 0x461BCD PUSH1 0xE5 SHL DUP2 MSTORE PUSH1 0x20 PUSH1 0x4 DUP3 ADD MSTORE PUSH1 0x26 PUSH1 0x24 DUP3 ADD MSTORE PUSH32 0x45524332303A207472616E7366657220616D6F756E7420657863656564732062 PUSH1 0x44 DUP3 ADD MSTORE PUSH6 0x616C616E6365 PUSH1 0xD0 SHL PUSH1 0x64 DUP3 ADD MSTORE PUSH1 0x84 ADD PUSH2 0x9B2 JUMP JUMPDEST PUSH1 0x1 PUSH1 0x1 PUSH1 0xA0 SHL SUB DUP1 DUP6 AND PUSH1 0x0 SWAP1 DUP2 MSTORE PUSH1 0x20 DUP2 SWAP1 MSTORE PUSH1 0x40 DUP1 DUP3 KECCAK256 DUP6 DUP6 SUB SWAP1 SSTORE SWAP2 DUP6 AND DUP2 MSTORE SWAP1 DUP2 KECCAK256 DUP1 SLOAD DUP5 SWAP3 SWAP1 PUSH2 0x26F2 SWAP1 DUP5 SWAP1 PUSH2 0x31D6 JUMP JUMPDEST SWAP3 POP POP DUP2 SWAP1 SSTORE POP DUP3 PUSH1 0x1 PUSH1 0x1 PUSH1 0xA0 SHL SUB AND DUP5 PUSH1 0x1 PUSH1 0x1 PUSH1 0xA0 SHL SUB AND PUSH1 0x0 DUP1 MLOAD PUSH1 0x20 PUSH2 0x3299 DUP4 CODECOPY DUP2 MLOAD SWAP2 MSTORE DUP5 PUSH1 0x40 MLOAD PUSH2 0x272C SWAP2 DUP2 MSTORE PUSH1 0x20 ADD SWAP1 JUMP JUMPDEST PUSH1 0x40 MLOAD DUP1 SWAP2 SUB SWAP1 LOG3 PUSH2 0x2577 JUMP JUMPDEST PUSH1 0x5 DUP1 SLOAD PUSH1 0x1 PUSH1 0x1 PUSH1 0xA0 SHL SUB DUP4 DUP2 AND PUSH1 0x1 PUSH1 0x1 PUSH1 0xA0 SHL SUB NOT DUP4 AND DUP2 OR SWAP1 SWAP4 SSTORE PUSH1 0x40 MLOAD SWAP2 AND SWAP2 SWAP1 DUP3 SWAP1 PUSH32 0x8BE0079C531659141344CD1FD0A4F28419497F9722A3DAAFE3B4186F6B6457E0 SWAP1 PUSH1 0x0 SWAP1 LOG3 POP POP JUMP JUMPDEST PUSH1 0x1 PUSH1 0x1 PUSH1 0xA0 SHL SUB DUP3 AND PUSH2 0x27EB JUMPI PUSH1 0x40 MLOAD PUSH3 0x461BCD PUSH1 0xE5 SHL DUP2 MSTORE PUSH1 0x20 PUSH1 0x4 DUP3 ADD MSTORE PUSH1 0x21 PUSH1 0x24 DUP3 ADD MSTORE PUSH32 0x45524332303A206275726E2066726F6D20746865207A65726F20616464726573 PUSH1 0x44 DUP3 ADD MSTORE PUSH1 0x73 PUSH1 0xF8 SHL PUSH1 0x64 DUP3 ADD MSTORE PUSH1 0x84 ADD PUSH2 0x9B2 JUMP JUMPDEST PUSH1 0x1 PUSH1 0x1 PUSH1 0xA0 SHL SUB DUP3 AND PUSH1 0x0 SWAP1 DUP2 MSTORE PUSH1 0x20 DUP2 SWAP1 MSTORE PUSH1 0x40 SWAP1 KECCAK256 SLOAD DUP2 DUP2 LT ISZERO PUSH2 0x285F JUMPI PUSH1 0x40 MLOAD PUSH3 0x461BCD PUSH1 0xE5 SHL DUP2 MSTORE PUSH1 0x20 PUSH1 0x4 DUP3 ADD MSTORE PUSH1 0x22 PUSH1 0x24 DUP3 ADD MSTORE PUSH32 0x45524332303A206275726E20616D6F756E7420657863656564732062616C616E PUSH1 0x44 DUP3 ADD MSTORE PUSH2 0x6365 PUSH1 0xF0 SHL PUSH1 0x64 DUP3 ADD MSTORE PUSH1 0x84 ADD PUSH2 0x9B2 JUMP JUMPDEST PUSH1 0x1 PUSH1 0x1 PUSH1 0xA0 SHL SUB DUP4 AND PUSH1 0x0 SWAP1 DUP2 MSTORE PUSH1 0x20 DUP2 SWAP1 MSTORE PUSH1 0x40 DUP2 KECCAK256 DUP4 DUP4 SUB SWAP1 SSTORE PUSH1 0x2 DUP1 SLOAD DUP5 SWAP3 SWAP1 PUSH2 0x288E SWAP1 DUP5 SWAP1 PUSH2 0x3168 JUMP JUMPDEST SWAP1 SWAP2 SSTORE POP POP PUSH1 0x40 MLOAD DUP3 DUP2 MSTORE PUSH1 0x0 SWAP1 PUSH1 0x1 PUSH1 0x1 PUSH1 0xA0 SHL SUB DUP6 AND SWAP1 PUSH1 0x0 DUP1 MLOAD PUSH1 0x20 PUSH2 0x3299 DUP4 CODECOPY DUP2 MLOAD SWAP2 MSTORE SWAP1 PUSH1 0x20 ADD PUSH2 0x2012 JUMP JUMPDEST PUSH1 0x1 PUSH1 0x1 PUSH1 0xA0 SHL SUB DUP3 AND PUSH2 0x2915 JUMPI PUSH1 0x40 MLOAD PUSH3 0x461BCD PUSH1 0xE5 SHL DUP2 MSTORE PUSH1 0x20 PUSH1 0x4 DUP3 ADD MSTORE PUSH1 0x1F PUSH1 0x24 DUP3 ADD MSTORE PUSH32 0x45524332303A206D696E7420746F20746865207A65726F206164647265737300 PUSH1 0x44 DUP3 ADD MSTORE PUSH1 0x64 ADD PUSH2 0x9B2 JUMP JUMPDEST DUP1 PUSH1 0x2 PUSH1 0x0 DUP3 DUP3 SLOAD PUSH2 0x2927 SWAP2 SWAP1 PUSH2 0x31D6 JUMP JUMPDEST SWAP1 SWAP2 SSTORE POP POP PUSH1 0x1 PUSH1 0x1 PUSH1 0xA0 SHL SUB DUP3 AND PUSH1 0x0 SWAP1 DUP2 MSTORE PUSH1 0x20 DUP2 SWAP1 MSTORE PUSH1 0x40 DUP2 KECCAK256 DUP1 SLOAD DUP4 SWAP3 SWAP1 PUSH2 0x2954 SWAP1 DUP5 SWAP1 PUSH2 0x31D6 JUMP JUMPDEST SWAP1 SWAP2 SSTORE POP POP PUSH1 0x40 MLOAD DUP2 DUP2 MSTORE PUSH1 0x1 PUSH1 0x1 PUSH1 0xA0 SHL SUB DUP4 AND SWAP1 PUSH1 0x0 SWAP1 PUSH1 0x0 DUP1 MLOAD PUSH1 0x20 PUSH2 0x3299 DUP4 CODECOPY DUP2 MLOAD SWAP2 MSTORE SWAP1 PUSH1 0x20 ADD PUSH1 0x40 MLOAD DUP1 SWAP2 SUB SWAP1 LOG3 POP POP JUMP JUMPDEST PUSH1 0x0 DUP1 DUP6 GT DUP1 ISZERO PUSH2 0x299D JUMPI POP PUSH1 0x0 DUP5 GT JUMPDEST PUSH2 0x29A6 JUMPI PUSH1 0x0 DUP1 REVERT JUMPDEST PUSH1 0x6 SLOAD PUSH1 0x40 MLOAD PUSH4 0x70A08231 PUSH1 0xE0 SHL DUP2 MSTORE ADDRESS PUSH1 0x4 DUP3 ADD MSTORE PUSH1 0x0 SWAP2 PUSH1 0x1 PUSH1 0x1 PUSH1 0xA0 SHL SUB AND SWAP1 PUSH4 0x70A08231 SWAP1 PUSH1 0x24 ADD PUSH1 0x20 PUSH1 0x40 MLOAD DUP1 DUP4 SUB DUP2 DUP7 GAS STATICCALL ISZERO DUP1 ISZERO PUSH2 0x29EF JUMPI RETURNDATASIZE PUSH1 0x0 DUP1 RETURNDATACOPY RETURNDATASIZE PUSH1 0x0 REVERT JUMPDEST POP POP POP POP PUSH1 0x40 MLOAD RETURNDATASIZE PUSH1 0x1F NOT PUSH1 0x1F DUP3 ADD AND DUP3 ADD DUP1 PUSH1 0x40 MSTORE POP DUP2 ADD SWAP1 PUSH2 0x2A13 SWAP2 SWAP1 PUSH2 0x30F8 JUMP JUMPDEST SWAP1 POP SELFBALANCE PUSH1 0x0 DUP1 PUSH2 0x2A24 DUP10 DUP6 DUP6 PUSH2 0x15B9 JUMP JUMPDEST SWAP1 POP DUP8 DUP2 LT ISZERO PUSH2 0x2A33 JUMPI PUSH1 0x0 DUP1 REVERT JUMPDEST PUSH1 0x1 PUSH1 0x1 PUSH1 0xA0 SHL SUB DUP8 AND PUSH1 0x0 SWAP1 DUP2 MSTORE PUSH1 0xF PUSH1 0x20 MSTORE PUSH1 0x40 SWAP1 KECCAK256 SLOAD PUSH1 0xFF AND DUP1 ISZERO PUSH2 0x2A73 JUMPI POP PUSH1 0x1 PUSH1 0x1 PUSH1 0xA0 SHL SUB DUP7 AND PUSH1 0x0 SWAP1 DUP2 MSTORE PUSH1 0xF PUSH1 0x20 MSTORE PUSH1 0x40 SWAP1 KECCAK256 SLOAD PUSH1 0xFF AND JUMPDEST ISZERO PUSH2 0x2A80 JUMPI DUP1 SWAP2 POP PUSH2 0x2AA4 JUMP JUMPDEST PUSH1 0x64 PUSH2 0x2A8D DUP3 PUSH1 0x52 PUSH2 0x3127 JUMP JUMPDEST PUSH2 0x2A97 SWAP2 SWAP1 PUSH2 0x3146 JUMP JUMPDEST SWAP2 POP PUSH2 0x2AA4 DUP2 DUP11 DUP6 PUSH2 0x2BA7 JUMP JUMPDEST PUSH1 0x40 MLOAD PUSH1 0x1 PUSH1 0x1 PUSH1 0xA0 SHL SUB DUP8 AND SWAP1 DUP4 ISZERO PUSH2 0x8FC MUL SWAP1 DUP5 SWAP1 PUSH1 0x0 DUP2 DUP2 DUP2 DUP6 DUP9 DUP9 CALL SWAP4 POP POP POP POP ISZERO DUP1 ISZERO PUSH2 0x2ADA JUMPI RETURNDATASIZE PUSH1 0x0 DUP1 RETURNDATACOPY RETURNDATASIZE PUSH1 0x0 REVERT JUMPDEST POP PUSH1 0x6 SLOAD PUSH1 0x40 MLOAD PUSH4 0x23B872DD PUSH1 0xE0 SHL DUP2 MSTORE PUSH1 0x1 PUSH1 0x1 PUSH1 0xA0 SHL SUB SWAP1 SWAP2 AND SWAP1 PUSH4 0x23B872DD SWAP1 PUSH2 0x2B0F SWAP1 DUP11 SWAP1 ADDRESS SWAP1 DUP15 SWAP1 PUSH1 0x4 ADD PUSH2 0x3254 JUMP JUMPDEST PUSH1 0x20 PUSH1 0x40 MLOAD DUP1 DUP4 SUB DUP2 PUSH1 0x0 DUP8 GAS CALL ISZERO DUP1 ISZERO PUSH2 0x2B2E JUMPI RETURNDATASIZE PUSH1 0x0 DUP1 RETURNDATACOPY RETURNDATASIZE PUSH1 0x0 REVERT JUMPDEST POP POP POP POP PUSH1 0x40 MLOAD RETURNDATASIZE PUSH1 0x1F NOT PUSH1 0x1F DUP3 ADD AND DUP3 ADD DUP1 PUSH1 0x40 MSTORE POP DUP2 ADD SWAP1 PUSH2 0x2B52 SWAP2 SWAP1 PUSH2 0x317F JUMP JUMPDEST PUSH2 0x2B5B JUMPI PUSH1 0x0 DUP1 REVERT JUMPDEST DUP2 DUP10 DUP9 PUSH1 0x1 PUSH1 0x1 PUSH1 0xA0 SHL SUB AND PUSH32 0x3CC32B807E0E6ADE29DEFE751A1339A43C1E45D7D18ECA93A916CA060EBE89EA PUSH1 0x40 MLOAD PUSH1 0x40 MLOAD DUP1 SWAP2 SUB SWAP1 LOG4 PUSH2 0x2B9B PUSH2 0x1DDD JUMP JUMPDEST POP SWAP8 SWAP7 POP POP POP POP POP POP POP JUMP JUMPDEST PUSH1 0x0 PUSH1 0x64 PUSH2 0x2BB6 DUP6 PUSH1 0x8 PUSH2 0x3127 JUMP JUMPDEST PUSH2 0x2BC0 SWAP2 SWAP1 PUSH2 0x3146 JUMP JUMPDEST SWAP1 POP PUSH2 0x2BCB DUP2 PUSH2 0x1D39 JUMP JUMPDEST PUSH1 0x0 PUSH1 0x64 PUSH2 0x2BDA DUP6 PUSH1 0x5 PUSH2 0x3127 JUMP JUMPDEST PUSH2 0x2BE4 SWAP2 SWAP1 PUSH2 0x3146 JUMP JUMPDEST PUSH1 0x6 SLOAD PUSH1 0x9 SLOAD PUSH1 0x40 MLOAD PUSH4 0xA9059CBB PUSH1 0xE0 SHL DUP2 MSTORE PUSH1 0x1 PUSH1 0x1 PUSH1 0xA0 SHL SUB SWAP2 DUP3 AND PUSH1 0x4 DUP3 ADD MSTORE PUSH1 0x24 DUP2 ADD DUP5 SWAP1 MSTORE SWAP3 SWAP4 POP AND SWAP1 PUSH4 0xA9059CBB SWAP1 PUSH1 0x44 ADD PUSH1 0x20 PUSH1 0x40 MLOAD DUP1 DUP4 SUB DUP2 PUSH1 0x0 DUP8 GAS CALL ISZERO DUP1 ISZERO PUSH2 0x2C3B JUMPI RETURNDATASIZE PUSH1 0x0 DUP1 RETURNDATACOPY RETURNDATASIZE PUSH1 0x0 REVERT JUMPDEST POP POP POP POP PUSH1 0x40 MLOAD RETURNDATASIZE PUSH1 0x1F NOT PUSH1 0x1F DUP3 ADD AND DUP3 ADD DUP1 PUSH1 0x40 MSTORE POP DUP2 ADD SWAP1 PUSH2 0x2C5F SWAP2 SWAP1 PUSH2 0x317F JUMP JUMPDEST POP PUSH1 0x0 PUSH2 0x3E8 PUSH2 0x2C70 DUP8 PUSH1 0x19 PUSH2 0x3127 JUMP JUMPDEST PUSH2 0x2C7A SWAP2 SWAP1 PUSH2 0x3146 JUMP JUMPDEST SWAP1 POP PUSH1 0x0 PUSH2 0x2C87 PUSH1 0x2 SLOAD SWAP1 JUMP JUMPDEST SWAP1 POP PUSH1 0x0 DUP6 PUSH2 0x2C96 DUP4 DUP6 PUSH2 0x3127 JUMP JUMPDEST PUSH2 0x2CA0 SWAP2 SWAP1 PUSH2 0x3146 JUMP JUMPDEST SWAP1 POP PUSH1 0x0 PUSH1 0x64 PUSH2 0x2CB1 DUP4 PUSH1 0xA PUSH2 0x3127 JUMP JUMPDEST PUSH2 0x2CBB SWAP2 SWAP1 PUSH2 0x3146 JUMP JUMPDEST SWAP1 POP PUSH1 0x0 PUSH2 0x2CC9 DUP3 DUP5 PUSH2 0x3168 JUMP JUMPDEST PUSH1 0xA SLOAD SWAP1 SWAP2 POP PUSH2 0x2CE2 SWAP1 PUSH1 0x1 PUSH1 0x1 PUSH1 0xA0 SHL SUB AND DUP4 PUSH2 0x28BF JUMP JUMPDEST PUSH1 0x7 SLOAD PUSH2 0x2CF8 SWAP1 PUSH1 0x1 PUSH1 0x1 PUSH1 0xA0 SHL SUB AND DUP3 PUSH2 0x28BF JUMP JUMPDEST PUSH1 0x7 PUSH1 0x0 SWAP1 SLOAD SWAP1 PUSH2 0x100 EXP SWAP1 DIV PUSH1 0x1 PUSH1 0x1 PUSH1 0xA0 SHL SUB AND PUSH1 0x1 PUSH1 0x1 PUSH1 0xA0 SHL SUB AND PUSH4 0x677A7872 PUSH1 0x40 MLOAD DUP2 PUSH4 0xFFFFFFFF AND PUSH1 0xE0 SHL DUP2 MSTORE PUSH1 0x4 ADD PUSH1 0x0 PUSH1 0x40 MLOAD DUP1 DUP4 SUB DUP2 PUSH1 0x0 DUP8 DUP1 EXTCODESIZE ISZERO DUP1 ISZERO PUSH2 0x2D48 JUMPI PUSH1 0x0 DUP1 REVERT JUMPDEST POP GAS CALL ISZERO DUP1 ISZERO PUSH2 0x2D5C JUMPI RETURNDATASIZE PUSH1 0x0 DUP1 RETURNDATACOPY RETURNDATASIZE PUSH1 0x0 REVERT JUMPDEST POP POP POP POP PUSH32 0xC328594CAB3A117E8DDF861647E12C326EB6FA98AB8F707982AD7A13E8264C7C DUP8 PUSH1 0x40 MLOAD PUSH2 0x2D91 SWAP2 DUP2 MSTORE PUSH1 0x20 ADD SWAP1 JUMP JUMPDEST PUSH1 0x40 MLOAD DUP1 SWAP2 SUB SWAP1 LOG1 PUSH1 0x40 MLOAD DUP7 DUP2 MSTORE PUSH32 0x44B0FC80E673B7CE4245D6302C96DC22199A569A1B815FE4295E3B6EA54F95B SWAP1 PUSH1 0x20 ADD PUSH1 0x40 MLOAD DUP1 SWAP2 SUB SWAP1 LOG1 PUSH1 0xA SLOAD PUSH1 0x1 PUSH1 0x1 PUSH1 0xA0 SHL SUB AND PUSH1 0x0 DUP2 DUP2 MSTORE PUSH1 0x20 DUP2 SWAP1 MSTORE PUSH1 0x40 DUP1 DUP3 KECCAK256 SLOAD SWAP1 MLOAD SWAP1 SWAP3 SWAP2 PUSH1 0x0 DUP1 MLOAD PUSH1 0x20 PUSH2 0x3279 DUP4 CODECOPY DUP2 MLOAD SWAP2 MSTORE SWAP2 LOG3 PUSH1 0xA SLOAD PUSH1 0x40 MLOAD DUP4 DUP2 MSTORE PUSH1 0x1 PUSH1 0x1 PUSH1 0xA0 SHL SUB SWAP1 SWAP2 AND SWAP1 PUSH1 0x0 SWAP1 PUSH1 0x0 DUP1 MLOAD PUSH1 0x20 PUSH2 0x3299 DUP4 CODECOPY DUP2 MLOAD SWAP2 MSTORE SWAP1 PUSH1 0x20 ADD PUSH1 0x40 MLOAD DUP1 SWAP2 SUB SWAP1 LOG3 PUSH1 0x7 SLOAD PUSH1 0x1 PUSH1 0x1 PUSH1 0xA0 SHL SUB AND PUSH1 0x0 DUP2 DUP2 MSTORE PUSH1 0x20 DUP2 SWAP1 MSTORE PUSH1 0x40 DUP1 DUP3 KECCAK256 SLOAD SWAP1 MLOAD SWAP1 SWAP3 SWAP2 PUSH1 0x0 DUP1 MLOAD PUSH1 0x20 PUSH2 0x3279 DUP4 CODECOPY DUP2 MLOAD SWAP2 MSTORE SWAP2 LOG3 PUSH1 0x7 SLOAD PUSH1 0x40 MLOAD DUP3 DUP2 MSTORE PUSH1 0x1 PUSH1 0x1 PUSH1 0xA0 SHL SUB SWAP1 SWAP2 AND SWAP1 PUSH1 0x0 SWAP1 PUSH1 0x0 DUP1 MLOAD PUSH1 0x20 PUSH2 0x3299 DUP4 CODECOPY DUP2 MLOAD SWAP2 MSTORE SWAP1 PUSH1 0x20 ADD PUSH1 0x40 MLOAD DUP1 SWAP2 SUB SWAP1 LOG3 POP POP POP POP POP POP POP POP POP POP JUMP JUMPDEST PUSH1 0x0 PUSH1 0x20 DUP1 DUP4 MSTORE DUP4 MLOAD DUP1 DUP3 DUP6 ADD MSTORE PUSH1 0x0 JUMPDEST DUP2 DUP2 LT ISZERO PUSH2 0x2ECF JUMPI DUP6 DUP2 ADD DUP4 ADD MLOAD DUP6 DUP3 ADD PUSH1 0x40 ADD MSTORE DUP3 ADD PUSH2 0x2EB3 JUMP JUMPDEST DUP2 DUP2 GT ISZERO PUSH2 0x2EE1 JUMPI PUSH1 0x0 PUSH1 0x40 DUP4 DUP8 ADD ADD MSTORE JUMPDEST POP PUSH1 0x1F ADD PUSH1 0x1F NOT AND SWAP3 SWAP1 SWAP3 ADD PUSH1 0x40 ADD SWAP4 SWAP3 POP POP POP JUMP JUMPDEST DUP1 CALLDATALOAD PUSH1 0x1 PUSH1 0x1 PUSH1 0xA0 SHL SUB DUP2 AND DUP2 EQ PUSH2 0xF13 JUMPI PUSH1 0x0 DUP1 REVERT JUMPDEST PUSH1 0x0 DUP1 PUSH1 0x40 DUP4 DUP6 SUB SLT ISZERO PUSH2 0x2F21 JUMPI PUSH1 0x0 DUP1 REVERT JUMPDEST PUSH2 0x2F2A DUP4 PUSH2 0x2EF7 JUMP JUMPDEST SWAP5 PUSH1 0x20 SWAP4 SWAP1 SWAP4 ADD CALLDATALOAD SWAP4 POP POP POP JUMP JUMPDEST PUSH1 0x0 PUSH1 0x20 DUP3 DUP5 SUB SLT ISZERO PUSH2 0x2F4A JUMPI PUSH1 0x0 DUP1 REVERT JUMPDEST POP CALLDATALOAD SWAP2 SWAP1 POP JUMP JUMPDEST PUSH1 0x0 DUP1 PUSH1 0x40 DUP4 DUP6 SUB SLT ISZERO PUSH2 0x2F64 JUMPI PUSH1 0x0 DUP1 REVERT JUMPDEST POP POP DUP1 CALLDATALOAD SWAP3 PUSH1 0x20 SWAP1 SWAP2 ADD CALLDATALOAD SWAP2 POP JUMP JUMPDEST PUSH1 0x0 DUP1 PUSH1 0x0 PUSH1 0x60 DUP5 DUP7 SUB SLT ISZERO PUSH2 0x2F88 JUMPI PUSH1 0x0 DUP1 REVERT JUMPDEST PUSH2 0x2F91 DUP5 PUSH2 0x2EF7 JUMP JUMPDEST SWAP3 POP PUSH2 0x2F9F PUSH1 0x20 DUP6 ADD PUSH2 0x2EF7 JUMP JUMPDEST SWAP2 POP PUSH1 0x40 DUP5 ADD CALLDATALOAD SWAP1 POP SWAP3 POP SWAP3 POP SWAP3 JUMP JUMPDEST PUSH4 0x4E487B71 PUSH1 0xE0 SHL PUSH1 0x0 MSTORE PUSH1 0x41 PUSH1 0x4 MSTORE PUSH1 0x24 PUSH1 0x0 REVERT JUMPDEST PUSH1 0x0 PUSH1 0x20 DUP1 DUP4 DUP6 SUB SLT ISZERO PUSH2 0x2FD8 JUMPI PUSH1 0x0 DUP1 REVERT JUMPDEST DUP3 CALLDATALOAD PUSH8 0xFFFFFFFFFFFFFFFF DUP1 DUP3 GT ISZERO PUSH2 0x2FF0 JUMPI PUSH1 0x0 DUP1 REVERT JUMPDEST DUP2 DUP6 ADD SWAP2 POP DUP6 PUSH1 0x1F DUP4 ADD SLT PUSH2 0x3004 JUMPI PUSH1 0x0 DUP1 REVERT JUMPDEST DUP2 CALLDATALOAD DUP2 DUP2 GT ISZERO PUSH2 0x3016 JUMPI PUSH2 0x3016 PUSH2 0x2FAF JUMP JUMPDEST DUP1 PUSH1 0x5 SHL PUSH1 0x40 MLOAD PUSH1 0x1F NOT PUSH1 0x3F DUP4 ADD AND DUP2 ADD DUP2 DUP2 LT DUP6 DUP3 GT OR ISZERO PUSH2 0x303B JUMPI PUSH2 0x303B PUSH2 0x2FAF JUMP JUMPDEST PUSH1 0x40 MSTORE SWAP2 DUP3 MSTORE DUP5 DUP3 ADD SWAP3 POP DUP4 DUP2 ADD DUP6 ADD SWAP2 DUP9 DUP4 GT ISZERO PUSH2 0x3059 JUMPI PUSH1 0x0 DUP1 REVERT JUMPDEST SWAP4 DUP6 ADD SWAP4 JUMPDEST DUP3 DUP6 LT ISZERO PUSH2 0x225B JUMPI PUSH2 0x306F DUP6 PUSH2 0x2EF7 JUMP JUMPDEST DUP5 MSTORE SWAP4 DUP6 ADD SWAP4 SWAP3 DUP6 ADD SWAP3 PUSH2 0x305E JUMP JUMPDEST PUSH1 0x0 PUSH1 0x20 DUP3 DUP5 SUB SLT ISZERO PUSH2 0x3090 JUMPI PUSH1 0x0 DUP1 REVERT JUMPDEST PUSH2 0xD81 DUP3 PUSH2 0x2EF7 JUMP JUMPDEST PUSH1 0x0 DUP1 PUSH1 0x0 PUSH1 0x60 DUP5 DUP7 SUB SLT ISZERO PUSH2 0x30AE JUMPI PUSH1 0x0 DUP1 REVERT JUMPDEST POP POP DUP2 CALLDATALOAD SWAP4 PUSH1 0x20 DUP4 ADD CALLDATALOAD SWAP4 POP PUSH1 0x40 SWAP1 SWAP3 ADD CALLDATALOAD SWAP2 SWAP1 POP JUMP JUMPDEST PUSH1 0x0 DUP1 PUSH1 0x40 DUP4 DUP6 SUB SLT ISZERO PUSH2 0x30D8 JUMPI PUSH1 0x0 DUP1 REVERT JUMPDEST PUSH2 0x30E1 DUP4 PUSH2 0x2EF7 JUMP JUMPDEST SWAP2 POP PUSH2 0x30EF PUSH1 0x20 DUP5 ADD PUSH2 0x2EF7 JUMP JUMPDEST SWAP1 POP SWAP3 POP SWAP3 SWAP1 POP JUMP JUMPDEST PUSH1 0x0 PUSH1 0x20 DUP3 DUP5 SUB SLT ISZERO PUSH2 0x310A JUMPI PUSH1 0x0 DUP1 REVERT JUMPDEST POP MLOAD SWAP2 SWAP1 POP JUMP JUMPDEST PUSH4 0x4E487B71 PUSH1 0xE0 SHL PUSH1 0x0 MSTORE PUSH1 0x11 PUSH1 0x4 MSTORE PUSH1 0x24 PUSH1 0x0 REVERT JUMPDEST PUSH1 0x0 DUP2 PUSH1 0x0 NOT DIV DUP4 GT DUP3 ISZERO ISZERO AND ISZERO PUSH2 0x3141 JUMPI PUSH2 0x3141 PUSH2 0x3111 JUMP JUMPDEST POP MUL SWAP1 JUMP JUMPDEST PUSH1 0x0 DUP3 PUSH2 0x3163 JUMPI PUSH4 0x4E487B71 PUSH1 0xE0 SHL PUSH1 0x0 MSTORE PUSH1 0x12 PUSH1 0x4 MSTORE PUSH1 0x24 PUSH1 0x0 REVERT JUMPDEST POP DIV SWAP1 JUMP JUMPDEST PUSH1 0x0 DUP3 DUP3 LT ISZERO PUSH2 0x317A JUMPI PUSH2 0x317A PUSH2 0x3111 JUMP JUMPDEST POP SUB SWAP1 JUMP JUMPDEST PUSH1 0x0 PUSH1 0x20 DUP3 DUP5 SUB SLT ISZERO PUSH2 0x3191 JUMPI PUSH1 0x0 DUP1 REVERT JUMPDEST DUP2 MLOAD DUP1 ISZERO ISZERO DUP2 EQ PUSH2 0xD81 JUMPI PUSH1 0x0 DUP1 REVERT JUMPDEST PUSH1 0x1 DUP2 DUP2 SHR SWAP1 DUP3 AND DUP1 PUSH2 0x31B5 JUMPI PUSH1 0x7F DUP3 AND SWAP2 POP JUMPDEST PUSH1 0x20 DUP3 LT DUP2 EQ ISZERO PUSH2 0xF11 JUMPI PUSH4 0x4E487B71 PUSH1 0xE0 SHL PUSH1 0x0 MSTORE PUSH1 0x22 PUSH1 0x4 MSTORE PUSH1 0x24 PUSH1 0x0 REVERT JUMPDEST PUSH1 0x0 DUP3 NOT DUP3 GT ISZERO PUSH2 0x31E9 JUMPI PUSH2 0x31E9 PUSH2 0x3111 JUMP JUMPDEST POP ADD SWAP1 JUMP JUMPDEST PUSH1 0x20 DUP1 DUP3 MSTORE DUP2 DUP2 ADD MSTORE PUSH32 0x4F776E61626C653A2063616C6C6572206973206E6F7420746865206F776E6572 PUSH1 0x40 DUP3 ADD MSTORE PUSH1 0x60 ADD SWAP1 JUMP JUMPDEST PUSH4 0x4E487B71 PUSH1 0xE0 SHL PUSH1 0x0 MSTORE PUSH1 0x32 PUSH1 0x4 MSTORE PUSH1 0x24 PUSH1 0x0 REVERT JUMPDEST PUSH1 0x0 PUSH1 0x0 NOT DUP3 EQ ISZERO PUSH2 0x324D JUMPI PUSH2 0x324D PUSH2 0x3111 JUMP JUMPDEST POP PUSH1 0x1 ADD SWAP1 JUMP JUMPDEST PUSH1 0x1 PUSH1 0x1 PUSH1 0xA0 SHL SUB SWAP4 DUP5 AND DUP2 MSTORE SWAP2 SWAP1 SWAP3 AND PUSH1 0x20 DUP3 ADD MSTORE PUSH1 0x40 DUP2 ADD SWAP2 SWAP1 SWAP2 MSTORE PUSH1 0x60 ADD SWAP1 JUMP INVALID PUSH17 0x9A5B29491696D085FA151016FB243EA3CF SWAP8 PUSH30 0x385D7220302EC663CEB15D28DDF252AD1BE2C89B69C2B068FC378DAA952B 0xA7 CALL PUSH4 0xC4A11628 CREATE2 GAS 0x4D CREATE2 0x23 0xB3 0xEF LOG2 PUSH5 0x6970667358 0x22 SLT KECCAK256 SELFDESTRUCT 0xDA 0xBE 0xE5 0xAF 0x2B DUP1 0xD0 GASPRICE PUSH7 0x231A40D5878929 CREATE EXP 0xAE PUSH12 0xF3A32C141EC34D5B77E59664 PUSH20 0x6F6C634300080C00330000000000000000000000 ",
  "sha1": "316efe51144a85cb3799588cbf897bcbb15c5376",
  "source": "// SPDX-License-Identifier: MIT\npragma solidity 0.8.12;\n\n// Openzeppelin\nimport \"@openzeppelin/contracts/access/Ownable.sol\";\nimport \"@openzeppelin/contracts/token/ERC20/ERC20.sol\";\nimport \"@openzeppelin/contracts/token/ERC20/utils/SafeERC20.sol\";\nimport \"@openzeppelin/contracts/utils/math/SafeMath.sol\";\n\n// Stake Protocol\nimport \"./StakeToken.sol\";\nimport \"./TokenLock.sol\";\n\n/// This contract will be in charge of swapping BNB for $STAKE, adding Liquidity as $STAKE/BNB and minting LP token to user for the given amount\n\n/// When the user swaps from BNB to STAKE, 3% of it is sent to treasury as BNB.\n/// Operators should not be taxed\n\n/// When user swaps from STAKE to BNB, 18% of the STAKE is taxed.\n/// 8% of the total value to swap is converted to BNB and sent to treasury.\n/// 5% of the STAKE to swap is sent to vault in STAKE.\n/// 5% of the STAKE to swap is converted to LP token by converting half of it to BNB and then sent to foundation.\n\ncontract StakeFountain is ERC20, Ownable {\n    using SafeMath for uint256;\n    using SafeERC20 for ERC20;\n\n    // Vars\n    StakeToken public token; // ERC20 token traded on this contract\n    TokenLocker public token_lock;\n    address public treasury;\n    address public vault;\n    address public foundation;\n\n    uint256 public totalTxs;\n    uint256 public lastBalance_;\n    uint256 public trackingInterval_ = 1 minutes;\n    uint256 public providers;\n\n    mapping(address => bool) public whitelist;\n    mapping(address => bool) public _providers;\n    mapping(address => uint256) public _txs;\n\n    bool public isPaused = true;\n\n    // Events\n    event onTokenPurchase(\n        address indexed buyer,\n        uint256 indexed bnb_amount,\n        uint256 indexed token_amount\n    );\n    event onBnbPurchase(\n        address indexed buyer,\n        uint256 indexed token_amount,\n        uint256 indexed bnb_amount\n    );\n    event onAddLiquidity(\n        address indexed provider,\n        uint256 indexed bnb_amount,\n        uint256 indexed token_amount\n    );\n    event onRemoveLiquidity(\n        address indexed provider,\n        uint256 indexed bnb_amount,\n        uint256 indexed token_amount\n    );\n    event onLiquidity(address indexed provider, uint256 indexed amount);\n    event onContractBalance(uint256 balance);\n    event onPrice(uint256 price);\n    event onSummary(uint256 liquidity, uint256 price);\n    event OperatorAddressAdded(address operator);\n    event OperatorAddressRemoved(address operator);\n    event TreasuryFee(uint256 amount);\n    event VaultFee(uint256 amount);\n    event FoundationFee(\n        uint256 bnb_amount,\n        uint256 stake_amount,\n        uint256 liquidity_minted\n    );\n    event WhitelistedAddressAdded(address addr);\n    event WhitelistedAddressRemoved(address addr);\n\n    // _token0 is the $STAKE address and _token1 is the BNB address\n    constructor(\n        address _token,\n        address _treasury,\n        address _vault,\n        address _foundation\n    ) ERC20(\"Stake LP token\", \"STOKE\") {\n        token = StakeToken(_token);\n        lastBalance_ = block.timestamp;\n        treasury = _treasury;\n        vault = _vault;\n        foundation = _foundation;\n    }\n\n    // Lock functions\n\n    /// @dev Sets lock address. Make sure to set a lock address after deploying.\n    /// @param _lock token lock address\n    function setLock(address _lock) public onlyOwner {\n        token_lock = TokenLocker(_lock);\n    }\n\n    /***********************************|\n    |        WHITELIST FUNCTIONS        |\n    |__________________________________*/\n    // Whitelisted addresses pay no tax when swapping\n\n    /**\n     * @dev add an address to the whitelist\n     * @param addr address\n     */\n    function addAddressToWhitelist(address addr)\n        public\n        onlyOwner\n        returns (bool success)\n    {\n        if (!whitelist[addr]) {\n            whitelist[addr] = true;\n            emit WhitelistedAddressAdded(addr);\n            success = true;\n        }\n    }\n\n    /**\n     * @dev add addresses to the whitelist\n     * @param addrs addresses\n     */\n    function addAddressesToWhitelist(address[] memory addrs)\n        public\n        onlyOwner\n        returns (bool success)\n    {\n        for (uint256 i = 0; i < addrs.length; i++) {\n            if (addAddressToWhitelist(addrs[i])) {\n                success = true;\n            }\n        }\n        return success;\n    }\n\n    /**\n     * @dev remove an address from the whitelist\n     * @param addr address\n     */\n    function removeAddressFromWhitelist(address addr)\n        public\n        onlyOwner\n        returns (bool success)\n    {\n        if (whitelist[addr]) {\n            whitelist[addr] = false;\n            emit WhitelistedAddressRemoved(addr);\n            success = true;\n        }\n        return success;\n    }\n\n    /**\n     * @dev remove addresses from the whitelist\n     * @param addrs addresses\n     */\n    function removeAddressesFromWhitelist(address[] memory addrs)\n        public\n        onlyOwner\n        returns (bool success)\n    {\n        for (uint256 i = 0; i < addrs.length; i++) {\n            if (removeAddressFromWhitelist(addrs[i])) {\n                success = true;\n            }\n        }\n        return success;\n    }\n\n    /***********************************|\n    |    $STAKE  EXCHANGE FUNCTIONS     |\n    |__________________________________*/\n\n    /**\n     * @notice Convert BNB to Tokens.\n     * @dev User specifies exact input (msg.value).\n     */\n    receive() external payable {\n        bnbToTokenInput(msg.value, 1, msg.sender, msg.sender);\n    }\n\n    /**\n     * @dev Pricing function for converting between BNB && Tokens without fee.\n     * @param input_amount Amount of BNB or Tokens being sold.\n     * @param input_reserve Amount of BNB or Tokens (input type) in exchange reserves.\n     * @param output_reserve Amount of BNB or Tokens (output type) in exchange reserves.\n     * @return Amount of BNB or Tokens bought.\n     */\n    function getInputPrice(\n        uint256 input_amount,\n        uint256 input_reserve,\n        uint256 output_reserve\n    ) public view returns (uint256) {\n        require(input_reserve > 0 && output_reserve > 0, \"INVALID_VALUE\");\n        uint256 numerator = input_amount * output_reserve;\n        uint256 denominator = input_reserve + input_amount;\n        return numerator / denominator;\n    }\n\n    /**\n     * @dev Pricing function for converting between BNB && Tokens without fee.\n     * @param output_amount Amount of BNB or Tokens being bought.\n     * @param input_reserve Amount of BNB or Tokens (input type) in exchange reserves.\n     * @param output_reserve Amount of BNB or Tokens (output type) in exchange reserves.\n     * @return Amount of BNB or Tokens sold.\n     */\n    function getOutputPrice(\n        uint256 output_amount,\n        uint256 input_reserve,\n        uint256 output_reserve\n    ) public view returns (uint256) {\n        require(input_reserve > 0 && output_reserve > 0);\n        uint256 numerator = input_reserve * output_amount;\n        uint256 denominator = (output_reserve - output_amount);\n        return (numerator / denominator) + 1;\n    }\n\n    /**\n     * @dev Function to convert BNB into STAKE. Set an amount of BNB to obtain an amount of tokens. Fees included.\n     * @param _bnb_sold Amount of BNB that user has paid to buy tokens.\n     * @param _min_tokens Amount of minimum tokens after slippage.\n     * @param _buyer address that paid for the tokens.\n     * @param _recipient address that will receive the tokens.\n     */\n    function bnbToTokenInput(\n        uint256 _bnb_sold,\n        uint256 _min_tokens,\n        address _buyer,\n        address _recipient\n    ) private returns (uint256) {\n        require(_bnb_sold > 0 && _min_tokens > 0, \"sold and min 0\");\n        uint256 bnb_sold;\n        uint256 treasury_fee;\n        uint256 token_reserve = token.balanceOf(address(this));\n        uint256 bnb_reserve = address(this).balance;\n\n        if (whitelist[_buyer] && whitelist[_recipient]) {\n            bnb_sold = _bnb_sold;\n        } else {\n            treasury_fee = (3 * bnb_sold) / 100;\n            bnb_sold = _bnb_sold - treasury_fee;\n        }\n        uint256 tokens_bought = getInputPrice(\n            bnb_sold,\n            bnb_reserve - bnb_sold,\n            token_reserve\n        );\n\n        require(tokens_bought >= _min_tokens, \"tokens_bought >= min_tokens\");\n        // Transferring tokens to msg.sender and transferring fee\n        require(token.transfer(_recipient, tokens_bought), \"transfer err\");\n        if (treasury_fee > 0) transferTreasuryFee(treasury_fee);\n\n        emit onTokenPurchase(_buyer, _bnb_sold, tokens_bought);\n        emit onContractBalance(bnbBalance());\n\n        trackGlobalStats();\n\n        return tokens_bought;\n    }\n\n    /**\n     * @notice Convert BNB to Tokens.\n     * @dev User specifies exact input (msg.value) && minimum output.\n     * @param min_tokens Minimum Tokens bought. Considers slippage.\n     * @return Amount of Tokens bought.\n     */\n    function bnbToTokenSwapInput(uint256 min_tokens)\n        public\n        payable\n        returns (uint256)\n    {\n        return bnbToTokenInput(msg.value, min_tokens, msg.sender, msg.sender);\n    }\n\n    /**\n     * @dev Function to convert BNB into STAKE. Set an amount of STAKE get it at a price in BNB .\n     * @param tokens_bought Set amount of tokens\n     * @param max_bnb Maximum amount of BNB that can be charged for the set amount of stake.\n     * @param buyer address that paid for the tokens.\n     * @param recipient address that will receive the tokens.\n     */\n    function bnbToTokenOutput(\n        uint256 tokens_bought,\n        uint256 max_bnb,\n        address buyer,\n        address recipient\n    ) private returns (uint256) {\n        require(tokens_bought > 0 && max_bnb > 0);\n        uint256 total_bnb_sold;\n        uint256 treasury_fee;\n        uint256 token_reserve = token.balanceOf(address(this));\n        uint256 bnb_reserve = address(this).balance;\n        uint256 bnb_sold = getOutputPrice(\n            tokens_bought,\n            bnb_reserve - max_bnb,\n            token_reserve\n        );\n        if (whitelist[buyer] && whitelist[recipient]) {\n            total_bnb_sold = bnb_sold;\n        } else {\n            total_bnb_sold = (100 * bnb_sold) / 97;\n            treasury_fee = (3 * total_bnb_sold) / 100;\n        }\n\n        // Throws if total_bnb_sold > max_bnb\n        uint256 bnb_refund = max_bnb - total_bnb_sold;\n        if (bnb_refund > 0) {\n            payable(buyer).transfer(bnb_refund);\n        }\n        require(token.transfer(recipient, tokens_bought));\n        if (treasury_fee > 0) transferTreasuryFee(treasury_fee);\n        emit onTokenPurchase(buyer, total_bnb_sold, tokens_bought);\n        emit TreasuryFee(treasury_fee);\n        trackGlobalStats();\n        return total_bnb_sold;\n    }\n\n    /**\n     * @notice Convert BNB to Tokens.\n     * @dev User specifies maximum input (msg.value) && exact output.\n     * @param tokens_bought Amount of tokens bought.\n     * @return Amount of BNB sold.\n     */\n    function bnbToTokenSwapOutput(uint256 tokens_bought)\n        public\n        payable\n        returns (uint256)\n    {\n        return\n            bnbToTokenOutput(tokens_bought, msg.value, msg.sender, msg.sender);\n    }\n\n    /**\n     * @dev Function to convert STAKE into BNB. Taxes before calculating and transferring the tokens.\n     *When user swaps from STAKE to BNB, 18% of the STAKE is taxed.\n     * 8% of the total value to swap is converted to BNB and sent to treasury.\n     * 5% of the STAKE to swap is sent to vault in STAKE.\n     * 5% of the STAKE to swap is converted to LP token by converting half of it to BNB and then sent to foundation.\n     * @param tokens_sold Amount of STAKE that user has paid to buy BNB.\n     * @param min_bnb Amount of minimum BNB after slippage.\n     * @param buyer address that transferred the tokens.\n     * @param recipient address that will receive the BNB.\n     */\n    function tokenToBnbInput(\n        uint256 tokens_sold,\n        uint256 min_bnb,\n        address buyer,\n        address recipient\n    ) private returns (uint256) {\n        require(tokens_sold > 0 && min_bnb > 0);\n        uint256 token_reserve = token.balanceOf(address(this));\n        uint256 bnb_reserve = address(this).balance;\n        uint256 total_bnb_bought;\n        uint256 bnb_bought = getInputPrice(\n            tokens_sold,\n            token_reserve,\n            bnb_reserve\n        );\n        require(bnb_bought >= min_bnb);\n        if (whitelist[buyer] && whitelist[recipient]) {\n            total_bnb_bought = bnb_bought;\n        } else {\n            total_bnb_bought = (82 * bnb_bought) / 100;\n            tokenToBnbFees(bnb_bought, tokens_sold, bnb_reserve);\n        }\n        payable(recipient).transfer(total_bnb_bought);\n        require(token.transferFrom(buyer, address(this), tokens_sold));\n        emit onBnbPurchase(buyer, tokens_sold, total_bnb_bought);\n        trackGlobalStats();\n        return total_bnb_bought;\n    }\n\n    /**\n     * @notice Convert Tokens to BNB.\n     * @dev User specifies exact input && minimum output.\n     * @param tokens_sold Amount of Tokens sold.\n     * @param min_bnb Minimum BNB purchased.\n     * @return Amount of BNB bought.\n     */\n    function tokenToBnbSwapInput(uint256 tokens_sold, uint256 min_bnb)\n        public\n        returns (uint256)\n    {\n        return tokenToBnbInput(tokens_sold, min_bnb, msg.sender, msg.sender);\n    }\n\n    function tokenToBnbOutput(\n        uint256 bnb_bought,\n        uint256 max_tokens,\n        address buyer,\n        address recipient\n    ) private returns (uint256) {\n        require(bnb_bought > 0);\n        uint256 token_reserve = token.balanceOf(address(this));\n        uint256 bnb_reserve = address(this).balance;\n        uint256 tokens_sold = getOutputPrice(\n            bnb_bought,\n            token_reserve,\n            bnb_reserve\n        );\n        uint256 total_tokens_sold;\n        //Added fees into price in tokens\n        require(max_tokens >= tokens_sold, \"max tokens exceeded\");\n        if (whitelist[buyer] && whitelist[recipient]) {\n            total_tokens_sold = tokens_sold;\n        } else {\n            total_tokens_sold = (100 * tokens_sold) / 82;\n            tokenToBnbFees(bnb_bought, total_tokens_sold, bnb_reserve);\n        }\n\n        // tokens sold is always > 0\n        payable(recipient).transfer(bnb_bought);\n        require(token.transferFrom(buyer, address(this), total_tokens_sold));\n        emit onBnbPurchase(buyer, total_tokens_sold, bnb_bought);\n        trackGlobalStats();\n\n        return total_tokens_sold;\n    }\n\n    /**\n     * @notice Convert Tokens to BNB.\n     * @dev User specifies maximum input && exact output.\n     * @param bnb_bought Amount of BNB purchased.\n     * @param max_tokens Maximum Tokens sold.\n     * @return Amount of Tokens sold.\n     */\n    function tokenToBnbSwapOutput(uint256 bnb_bought, uint256 max_tokens)\n        public\n        returns (uint256)\n    {\n        return tokenToBnbOutput(bnb_bought, max_tokens, msg.sender, msg.sender);\n    }\n\n    function trackGlobalStats() private {\n        uint256 price = getBnbToTokenOutputPrice(1e18);\n        uint256 balance = bnbBalance();\n\n        if (block.timestamp - lastBalance_ > trackingInterval_) {\n            emit onSummary(balance * 2, price);\n            lastBalance_ = block.timestamp;\n        }\n\n        emit onContractBalance(balance);\n        emit onPrice(price);\n\n        totalTxs += 1;\n        _txs[msg.sender] += 1;\n    }\n\n    // Fee functions\n\n    /// Function that charges the respective fee to treasury\n    /// @param _treasury_fee is the amount of BNB charged as fee\n    function transferTreasuryFee(uint256 _treasury_fee) internal {\n        // Calculating fee and BNB sold\n        require(_treasury_fee > 0);\n        (bool os, ) = payable(treasury).call{value: _treasury_fee}(\"\");\n        require(os);\n        emit TreasuryFee(_treasury_fee);\n    }\n\n    /// Function that calculates and transfers fees for treasury, vault, foundation and lock\n    /// @param _bnb_bought is the amount of BNB that user has bought\n    /// @param _tokens_sold is the amount of tokens user sells\n    /// @param _bnb_reserve is this contract's bnb balance\n    function tokenToBnbFees(\n        uint256 _bnb_bought,\n        uint256 _tokens_sold,\n        uint256 _bnb_reserve\n    ) internal {\n        // 8% of the total value to swap is converted to BNB and sent to treasury.\n        uint256 treasury_fee = (8 * _bnb_bought) / 100;\n        transferTreasuryFee(treasury_fee);\n\n        // 5% of the STAKE to swap is sent to vault in STAKE.\n        uint256 vault_fee = (5 * _tokens_sold) / 100;\n        token.transfer(vault, vault_fee);\n\n        // 5% of the STAKE to swap is converted to LP token by converting half of it to BNB. Then 90% of it is sent to token lock and 10% to foundation.\n        uint256 foundation_and_lock_fee_bnb = (25 * _bnb_bought) / 1000;\n        uint256 total_liquidity = totalSupply();\n        uint256 liquidity_minted = (foundation_and_lock_fee_bnb *\n            total_liquidity) / _bnb_reserve;\n\n        uint256 foundation_liquidity_minted = (10 * liquidity_minted) / 100;\n        uint256 token_lock_liquidity_minted = liquidity_minted -\n            foundation_liquidity_minted;\n        _mint(foundation, foundation_liquidity_minted);\n        _mint(address(token_lock), token_lock_liquidity_minted);\n        token_lock.updateLock();\n\n        // Fee events\n        emit TreasuryFee(treasury_fee);\n        emit VaultFee(vault_fee);\n\n        emit onLiquidity(foundation, balanceOf(foundation));\n        emit Transfer(address(0), foundation, foundation_liquidity_minted);\n\n        emit onLiquidity(address(token_lock), balanceOf(address(token_lock)));\n        emit Transfer(\n            address(0),\n            address(token_lock),\n            token_lock_liquidity_minted\n        );\n    }\n\n    /// Exchange Getter Functions\n\n    /**\n     * @notice Public price function for BNB to Token trades with an exact input.\n     * @param bnb_sold Amount of BNB sold.\n     * @return Amount of Tokens that can be bought with input BNB.\n     */\n    function getBnbToTokenInputPrice(uint256 bnb_sold)\n        public\n        view\n        returns (uint256)\n    {\n        require(bnb_sold > 0);\n        uint256 token_reserve = token.balanceOf(address(this));\n        return getInputPrice(bnb_sold, address(this).balance, token_reserve);\n    }\n\n    /**\n     * @notice Public price function for BNB to Token trades with an exact output.\n     * @param tokens_bought Amount of Tokens bought.\n     * @return Amount of BNB needed to buy output Tokens.\n     */\n    function getBnbToTokenOutputPrice(uint256 tokens_bought)\n        public\n        view\n        returns (uint256)\n    {\n        require(tokens_bought > 0);\n        uint256 token_reserve = token.balanceOf(address(this));\n        uint256 bnb_sold = getOutputPrice(\n            tokens_bought,\n            address(this).balance,\n            token_reserve\n        );\n        return bnb_sold;\n    }\n\n    /**\n     * @notice Public price function for Token to BNB trades with an exact input.\n     * @param tokens_sold Amount of Tokens sold.\n     * @return Amount of BNB that can be bought with input Tokens.\n     */\n    function getTokenToBnbInputPrice(uint256 tokens_sold)\n        public\n        view\n        returns (uint256)\n    {\n        require(tokens_sold > 0, \"token sold < 0\");\n        uint256 token_reserve = token.balanceOf(address(this));\n        uint256 bnb_bought = getInputPrice(\n            tokens_sold,\n            token_reserve,\n            address(this).balance\n        );\n        return bnb_bought;\n    }\n\n    /**\n     * @notice Public price function for Token to BNB trades with an exact output.\n     * @param bnb_bought Amount of output BNB.\n     * @return Amount of Tokens needed to buy output BNB.\n     */\n    function getTokenToBnbOutputPrice(uint256 bnb_bought)\n        public\n        view\n        returns (uint256)\n    {\n        require(bnb_bought > 0);\n        uint256 token_reserve = token.balanceOf(address(this));\n        return getOutputPrice(bnb_bought, token_reserve, address(this).balance);\n    }\n\n    /**\n     * @return Address of Token that is sold on this exchange.\n     */\n    function tokenAddress() public view returns (address) {\n        return address(token);\n    }\n\n    function bnbBalance() public view returns (uint256) {\n        return address(this).balance;\n    }\n\n    function tokenBalance() public view returns (uint256) {\n        return token.balanceOf(address(this));\n    }\n\n    function getBnbToLiquidityInputPrice(uint256 bnb_sold)\n        public\n        view\n        returns (uint256)\n    {\n        require(bnb_sold > 0);\n        uint256 token_amount = 0;\n        uint256 total_liquidity = totalSupply();\n        uint256 bnb_reserve = address(this).balance;\n        uint256 token_reserve = token.balanceOf(address(this));\n        token_amount = ((bnb_sold * token_reserve) / bnb_reserve) + 1;\n        uint256 liquidity_minted = (bnb_sold * total_liquidity) / bnb_reserve;\n\n        return liquidity_minted;\n    }\n\n    function getLiquidityToReserveInputPrice(uint256 amount)\n        public\n        view\n        returns (uint256, uint256)\n    {\n        uint256 total_liquidity = totalSupply();\n        require(total_liquidity > 0);\n        uint256 token_reserve = token.balanceOf(address(this));\n        uint256 bnb_amount = (amount * address(this).balance) / total_liquidity;\n        uint256 token_amount = (amount * token_reserve) / total_liquidity;\n        return (bnb_amount, token_amount);\n    }\n\n    function txs(address owner) public view returns (uint256) {\n        return _txs[owner];\n    }\n\n    /// Exchange Liquidity Functions\n\n    /**\n     * @notice Deposit BNB && Tokens (STAKE) at current ratio to mint STOKE tokens.\n     * @dev min_liquidity does nothing when total SWAP supply is 0.\n     * @param min_liquidity Minimum number of STOKE sender will mint if total STAKE supply is greater than 0.\n     * @param max_tokens Maximum number of tokens deposited. Deposits max amount if total STOKE supply is 0.\n     * @return The amount of SWAP minted.\n     */\n    function addLiquidity(uint256 min_liquidity, uint256 max_tokens)\n        public\n        payable\n        returns (uint256)\n    {\n        require(\n            max_tokens > 0 && msg.value > 0,\n            \"Swap#addLiquidity: INVALID_ARGUMENT\"\n        );\n        uint256 total_liquidity = totalSupply();\n\n        uint256 token_amount = 0;\n\n        if (_providers[msg.sender] == false) {\n            _providers[msg.sender] = true;\n            providers += 1;\n        }\n\n        if (total_liquidity > 0) {\n            require(min_liquidity > 0);\n            uint256 bnb_reserve = address(this).balance - msg.value;\n            uint256 token_reserve = token.balanceOf(address(this));\n            token_amount = ((msg.value * token_reserve) / bnb_reserve) + 1;\n            uint256 liquidity_minted = (msg.value * total_liquidity) /\n                bnb_reserve;\n\n            require(\n                max_tokens >= token_amount && liquidity_minted >= min_liquidity\n            );\n            _mint(msg.sender, liquidity_minted);\n            require(\n                token.transferFrom(msg.sender, address(this), token_amount)\n            );\n\n            emit onAddLiquidity(msg.sender, msg.value, token_amount);\n            emit onLiquidity(msg.sender, balanceOf(msg.sender));\n            emit Transfer(address(0), msg.sender, liquidity_minted);\n            return liquidity_minted;\n        } else {\n            require(msg.value >= 1 ether, \"INVALID_VALUE\");\n            token_amount = max_tokens;\n            uint256 initial_liquidity = address(this).balance;\n            super._mint(msg.sender, initial_liquidity);\n            require(\n                token.transferFrom(msg.sender, address(this), token_amount)\n            );\n\n            emit onAddLiquidity(msg.sender, msg.value, token_amount);\n            emit onLiquidity(msg.sender, balanceOf(msg.sender));\n            emit Transfer(address(0), msg.sender, initial_liquidity);\n            return initial_liquidity;\n        }\n    }\n\n    /**\n     * @dev Burn SWAP tokens to withdraw BNB && Tokens at current ratio.\n     * @param amount Amount of SWAP burned.\n     * @param min_bnb Minimum BNB withdrawn.\n     * @param min_tokens Minimum Tokens withdrawn.\n     * @return The amount of BNB && Tokens withdrawn.\n     */\n    function removeLiquidity(\n        uint256 amount,\n        uint256 min_bnb,\n        uint256 min_tokens\n    ) public returns (uint256, uint256) {\n        require(amount > 0 && min_bnb > 0 && min_tokens > 0);\n        uint256 total_liquidity = totalSupply();\n        require(total_liquidity > 0);\n        uint256 token_reserve = token.balanceOf(address(this));\n        uint256 bnb_amount = (amount * address(this).balance) / total_liquidity;\n\n        uint256 token_amount = (amount * (token_reserve)) / total_liquidity;\n        require(bnb_amount >= min_bnb && token_amount >= min_tokens);\n        _burn(msg.sender, amount);\n        payable(msg.sender).transfer(bnb_amount);\n        require(token.transfer(msg.sender, token_amount));\n        emit onRemoveLiquidity(msg.sender, bnb_amount, token_amount);\n        emit onLiquidity(msg.sender, balanceOf(msg.sender));\n        emit Transfer(msg.sender, address(0), amount);\n        return (bnb_amount, token_amount);\n    }\n}\n",
  "sourcePath": "contracts/StakeFountain.sol",
  "type": "contract"
}